:020000040800F2
:1000000078960320DD010008C97E000813710008FE
:10001000A17C00087D190008839A000800000000F8
:10002000000000000000000000000000EB9200084B
:10003000B51E0008000000006D8000083D96000815
:10004000F7010008F7010008F7010008F7010008B0
:10005000F7010008F701000805410008F701000852
:1000600029410008F7010008F7010008F70100081E
:10007000F7010008F7010008F7010008F701000880
:10008000F7010008F7010008F7010008F701000870
:10009000F7010008F7010008F7010008F701000860
:1000A000F70100081D970008F7010008F701000894
:1000B000F7010008F7010008F7010008F701000840
:1000C000F7010008F7010008F7010008F701000830
:1000D000F7010008F7010008F7010008F701000820
:1000E0000D410008F7010008F7010008F7010008BA
:1000F000F7010008F7010008F7010008F701000800
:10010000F7010008F7010008F7010008F7010008EF
:10011000F7010008F7010008F7010008F7010008DF
:10012000ED1D0008F7010008F7010008F7010008BD
:10013000F91D0008F7010008F7010008F7010008A1
:10014000F7010008F7010008F7010008F7010008AF
:10015000F7010008F7010008051E0008F701000874
:10016000F7010008F7010008F7010008F70100088F
:10017000F7010008F7010008F7010008000000007F
:10018000F7010008F7010008F7010008F70100086F
:10019000F7010008F7010008F7010008F70100085F
:1001A0004D760008F7010008F7010008F701000884
:1001B000F7010008F7010008F7010008F70100083F
:1001C000F7010008F7010008DFF80CD000F0F0FAA2
:1001D00000480047EDA700087896032006488047AE
:1001E00006480047FEE7FEE7FEE7FEE7FEE7FEE71C
:1001F000FEE7FEE7FEE7FEE7C9960008C901000832
:100200002DE9F05F0546002092469B46884606464B
:10021000814640241BE0284641464746224600F0DE
:1002200083F953465A46C01A914110D311461846D5
:10023000224600F06AF92D1A67EB01084F46224664
:100240000120002100F061F917EB00094E41201E4A
:10025000A4F10104DFDC484631462A464346BDE8A6
:10026000F09F40EA01039B0703D009E008C9121F71
:1002700008C0042AFAD203E011F8013B00F8013B60
:10028000521EF9D27047D2B201E000F8012B491E8C
:10029000FBD270470022F6E710B513460A46044623
:1002A0001946FFF7F0FF204610BD2DE9FE4F81EA09
:1002B000030404F0004421F0004100944FF0000BCF
:1002C00023F0004350EA01045ED052EA03045BD0FD
:1002D000C3F30A54C1F30A552C44A4F2F334019435
:1002E000A0FB0254C1F3130141F48011C3F31303C3
:1002F00043F4801301FB024400FB034E840A970A77
:1003000044EA815447EA8357A4FB076802958D0AA3
:1003100005FB07854FEA932C04FB0C542705029D2F
:100320004FEA065847EA1637B5EB08056EEB070C9F
:10033000870E920E47EA811742EA8312A7FB020159
:10034000B6EB0B0164EB00042B0D43EA0C335E1893
:1003500044EB1C50DA465146E7FB0201C5F3130497
:100360004FEA0B3343EA14534FEA0432019C43EA49
:100370000603A4F10C040294009CCDE900B400F043
:10038000F2F803B0BDE8F08F00200146F9E72DE94F
:10039000F04D81EA030404F0004B21F000451446BF
:1003A0004FF0000A23F0004150EA050220D054EA41
:1003B00001021DD0C5F30A570246C5F31303C1F36A
:1003C0001300C1F30A5640F4801543F48013A7EBE1
:1003D0000608101BD64608F2FD3873EB050002D361
:1003E00008F1010801E092185B41B8F1000F03DA4F
:1003F00000200146BDE8F08D00204FF48011064634
:1004000084460EE0171B73EB050705D3121B63EB45
:10041000050306434CEA010C49084FEA30009218E4
:100420005B4150EA0107EDD152EA030012D082EAA3
:10043000040083EA0501084305D0101BAB4106D236
:100440000122002306E000224FF0004302E06FF09B
:10045000010253101AEB06004CEB085110EB0A0096
:1004600041EB0B01BDE8F04D00F06EB80EB540F267
:10047000334102910021CDE900110A460B4600F0FC
:1004800072F803B000BDC1F30A5210B5C1F31301F5
:1004900040F2FF3341F480119A4201DA002010BD8E
:1004A00040F233439A42A2F2334203DC524200F05C
:1004B0003BF810BD904010BD00F0004230F000400D
:1004C0000AD0C10D01F56071C0F3160042EA015176
:1004D000C20840071143704700200146704730B5FD
:1004E0000B46014600202022012409E021FA02F5F2
:1004F0009D4205D303FA02F5491B04FA02F528448C
:10050000151EA2F10102F1DC30BD202A04DB203AE5
:1005100000FA02F1002070479140C2F1200320FA56
:1005200003F3194390407047202A04DB203A21FA54
:1005300002F00021704721FA02F3D040C2F12002FC
:10054000914008431946704710B5141E73F100041A
:1005500008DA401C41F1000192185B411A4301D1B5
:1005600020F0010010BD2DE9F04D92469B4611B1DF
:10057000B1FA81F202E0B0FA80F220329046FFF741
:10058000C4FF04460F4640EA0A0041EA0B01534605
:100590005A46084313D0114653EA010019D0C8F156
:1005A00040025046FFF7C0FF05460E4650465946EA
:1005B0004246FFF7AAFF084305D0012004E0204689
:1005C0003946BDE8F08D0020054346EAE0762C432D
:1005D00037430A986305E40AA0EB08000022FD0AED
:1005E00044EA47540A3002D500200146E9E70105F4
:1005F00010196941DDE9084500196941BDE8F04D70
:10060000A2E72DE9FE4F804681EA0300C00F0C46A9
:10061000009021F0004123F00045B8EB0200A94111
:1006200005D24046214690461C460B46024623F022
:100630000040104347D0270DC7F30A00C3F30A5107
:100640000290401A019040286BDAC3F3130040F483
:10065000801B0098924620B10023D2EB030A63EB83
:100660000B0B01985946C0F140025046FFF74DFF71
:1006700006460D4650465946019A00F0ABF810EB7D
:1006800008006141002487EA115284EAE7731A43A3
:1006900040D0009A62B3019A012A4FEA075215DC52
:1006A000001B61EB02014FF0004202EA0752CDE964
:1006B0000042001C41F5801132462B46FFF753FFE4
:1006C00003B0BDE8F08F40462146F9E7001B61EB1F
:1006D0000201001C41F5801300185B412018A2F5AF
:1006E000001747EB030140EAD570B6196D4111E0E0
:1006F0006D084FEA360645EAC0754FEA0752001BFF
:1007000061EB0201001C41F5801149084FEA3000FD
:100710000019514132462B4603B0BDE8F04FFFF7B8
:1007200013BF0098012240000023D0EB020263EBCC
:10073000E073009821464FEAE074B8EB000061EBEB
:100740000401E9E783F000435BE781F0004158E7EB
:10075000C1F30A52C1F3130140F2FF3341F4801197
:100760009A4202DA00200146704740F233439A422F
:10077000A2F2334202DC5242FFF7D6BEFFF7C5BEFB
:1007800030B5041E71F1000404DB4FF00044404218
:1007900064EB0101141E73F1000405DB1C464FF0ED
:1007A0000043524263EB0403994208BF904230BDBC
:1007B000064C074D06E0E06840F0010394E80700AE
:1007C00098471034AC42F6D3FFF702FD1CE900084D
:1007D0003CE90008202A06DBCB17203A41FA02F058
:1007E00043EAE07306E041FA02F3D040C2F120028E
:1007F000914008431946704770B58C1810F8015B9A
:1008000015F0070301D110F8013B2A1106D110F8A9
:10081000012B03E010F8016B01F8016B5B1EF9D1AD
:100820002B0705D40023521E0DD401F8013BFAE733
:1008300010F8013BCB1A921C03E013F8015B01F89E
:10084000015B521EF9D5A142D8D3002070BD70477C
:1008500004F082BA014806F0B3BD0000E48A032028
:100860003EB50224002202ABADF80820CDE90034E9
:100870000A4623460146064806F05CFEBDF808001D
:100880000102000AC1F3072140EA01203EBD000039
:10089000E48A032037B582B00A46022404ABBDF8CF
:1008A0001010CDE9003423460D02090A2D0A41EA51
:1008B0000521ADF810100146024806F050FE05B0C3
:1008C00030BD0000E48A03200B4810B500F0C4FCE2
:1008D00000F064FBC1884FF6FF70012307A2C1EB53
:1008E000C10100EA4101002000F074FABDE81040A7
:1008F000022000F0D9BC00000000FFFF20202020D3
:10090000202020444D4120204552524F522020208B
:10091000202000000149012048717047A8000020F4
:100920002DE9F0410646384886B0016841F40001DF
:1009300001600068344D00F400000590143D286803
:1009400040F04000286028680024022700F04000A2
:100950004FF48068CDF80080CDE901740A21039737
:10096000CDE904102948694604F016FA286840F0D9
:100970008000286028686946CDE9024700F08000C1
:100980000590B803CDE90004214804F005FA286871
:1009900040F480002860286800F4800005901D481D
:1009A000316881421DD11C49C2144FF0030C9701DC
:1009B00043144C6085158C60C1E90348C1E9087493
:1009C000C1E90AC415480C6341F8140B124881E8C8
:1009D0002C00143931678E6304F00DF80E4804F0D2
:1009E0000BF900220F21462004F03AFE462004F0C5
:1009F00029FE00220F21282004F032FE282004F0D6
:100A000021FE06B0BDE8F0814438024000180240E3
:100A1000001C0240245C0140B08F0320B8640240F7
:100A20002DE9F041B0F5407F17460E464FF0010525
:100A30003BD107F027FF07F09BFF1D4800223946F6
:100A400000F04EF81A491B480860084605F0B8FC4B
:100A500018B917480021FFF763FF15491548843975
:100A600020380860084605F0ABFC20B9104800218A
:100A7000843800F061F801213A46002007F010FFA9
:100A80000D4C3420A1688847A0F5094194390CD158
:100A9000E16A342088470948002546223B4646F44F
:100AA0004071446034202468A0472846BDE8F081A6
:100AB000CC8E0320245C0140BC0100208401002076
:100AC0008AB20146024810B505F074FD002010BD41
:100AD000CC8E03200149022048717047A8000020F5
:100AE00010B5A2B00C46684604F022FEA4F52C51C5
:100AF00011394FF480104FF4800115D0A4F5AC42A9
:100B0000223A11D0A4F52C42443A0DD007230124F7
:100B10004FF4AC72109109940393CDE9000268463A
:100B200004F030FF22B010BD022340F2AD121324B6
:100B3000F0E77047704700002DE9F04F0646474840
:100B400087B0016841F4000101600068434F00F480
:100B500000000590143F386840F4807038603868B1
:100B600000F480700590386840F480703860386810
:100B700000F480700590386840F480703860386800
:100B80004FF002080325DFF8D8B000F480704FF072
:100B90000A098021CDE9001800246946CDE90490B6
:100BA000CDE90245584604F0F7F82021584602AA3C
:100BB000CDE90018694682E8300204F0EDF802AA97
:100BC0004FF0400A6946584682E83002CDE900A855
:100BD00004F0E2F810226946CDE9002802AA58463E
:100BE00082E8300204F0D8F8386840F480003860B9
:100BF000386800F4800005901A483168814221D19C
:100C0000194903156A06C7144FF480784A60042016
:100C1000C1F808A0DA01C1E90343C1F81C804FF410
:100C2000005CC1E90A54114B0C630B60C1E9082058
:100C3000C1E9057CF16608468E6303F0DCFE0A48D4
:100C400003F0DAFF00220E213C2004F009FD3C20D5
:100C500004F0F8FC07B0BDE8F08F00004438024013
:100C600000200240045C0140508F03207064024069
:100C700070B505460C488AB20C4629464068C368E0
:100C80003420984708B1012070BDB4F5003F01D26F
:100C9000600801E04FF6FF70294682B2034805F074
:100CA000E7FC002070BD000084010020488E032076
:100CB00010B5084C21680A6822F480320A60206668
:100CC000204605F081FB2068016841F48031016015
:100CD00010BD0000488E0320054910B549684A6AD6
:100CE000014634209047002800D0012010BD0000AC
:100CF00084010020054910B549680A6A014634207C
:100D00009047002800D0012010BD00008401002081
:100D1000704700001CB5044600F05EF9034600F081
:100D20004BF902460020CDE900040648064C006855
:100D300000EB800101EBC00104EB8101C96D06F0FD
:100D400045FC1CBD50010020008C03200648C02338
:100D500030B408240522046061034361C261C162AA
:100D600030BC04F00FBE00007C8B032030B40A4C72
:100D70000A4B246804EB440403EB84039B689C88BF
:100D80001D68E41DDB88E408203A14FB02F203FB33
:100D9000025230BC03F05EB950010020E88C032001
:100DA000094810B50068816941F0010181610122A3
:100DB0000648110304F0E1F801220548BDE810409F
:100DC000082104F0DAB80000008C03200020024063
:100DD000002802402DE9F0470027044615468946C1
:100DE00010463A4600E0521C10F8011B0029FAD1C7
:100DF00000F0E2F8DFF89CC0012B274EDCF8001071
:100E000001EB410106EB810189688988B0FBF1F0B3
:100E100002D0022B09D104E0801A484304EB5000B1
:100E200002E0801A4843001B84B247F6FF71601E3F
:100E3000884200D30124E04600F0BEF80146D8F80D
:100E4000000000EB400006EB80008068808807FB14
:100E5000101189B2814213D3012012E04946204685
:100E6000FFF784FFD8F800007F1CBFB26D1C00EBB9
:100E7000400006EB800080688088204484B2DBE775
:100E800000202A780AB1012100E000210842E5D1C2
:100E9000BDE8F08750010020E88C0320164B70B5A8
:100EA00006460D461868154C00EB800101EBC000AA
:100EB00004EB8000806C02280ED000F07DF81968E9
:100EC00005FB006001EB810303EBC10104EB810131
:100ED000C96D41F8202070BD00F06EF8196805FB5F
:100EE000006001EB810303EBC10104EB8101C96DDB
:100EF00021F8102070BD000050010020008C03205C
:100F00002DE9FC419846234B0746234E15460C46D7
:100F1000186800EB400056F8200000F0B9F9186896
:100F2000A6F1E80200EB800101EBC00002EB8000BB
:100F3000806C02281FD000F03FF8196800FB047095
:100F400001EB810404EBC10102EB8101C96D01EBEE
:100F5000800400BF00F030F8411B1868434600EBE6
:100F6000400256F82220CDE900122A46214606F01A
:100F70002DFBBDE8FC8100F01FF8196800FB047030
:100F800001EB810404EBC10102EB8101C96D01EBAE
:100F90004004DFE750010020E88C032004480549A5
:100FA000006800EB400001EB8000806870470000A3
:100FB00050010020E88C03200548006800EB800108
:100FC00001EBC000034901EB8000006E7047000098
:100FD00050010020008C03200548006800EB8001D0
:100FE00001EBC000034901EB8000406E7047000038
:100FF00050010020008C03202DE9F041224C2820D4
:10100000092140F21B1604F1140840F2152535227F
:1010100040F21D1C0B2340F2352788E8EF10002119
:101020002046FFF793FE4FF4F07222664FF488716A
:101030006166002084F8340084F8350084F83600B6
:101040006060A060114AE06022602061204604F0E8
:10105000D7F918B90021204600F05CF80A4804F0DE
:1010600037FA01220A48110303F087FF09480122D9
:10107000082103F082FF00F023F9074800F0FAF896
:101080000020BDE8F0810000008C032000680140D2
:1010900000200240002802405401002030B58DB0ED
:1010A0000A46002304460093FFF786FFCDE90103BB
:1010B000FFF792FFFF21039007208DF8303009924F
:1010C0004FF4C0658DF83130CDE9043106938DF8C9
:1010D0003230CDE90750FFF76FFF0A90FFF77CFF32
:1010E0000B9022460948694604F060F9074904EB71
:1010F00044004FF0FF34E83101EB800223065460D6
:10110000034C946041F820300DB030BD008C0320BA
:10111000540100204748F0B5016887B041F0806174
:101120000160006800F08060059042481438016852
:1011300041F400010160016801F4000105910168BA
:1011400041F010010160016801F010010591016892
:1011500041F040010160016801F040010591016822
:1011600041F480710160016801F4807105910168AA
:1011700041F400710160016801F40071059101689A
:1011800041F480610160016801F4806105910168AA
:1011900041F480710160016801F48071059101687A
:1011A00041F480610160006802240E2500F4806033
:1011B00005901020CDE9000402A8002180E832004B
:1011C0001D48694603F0E8FDE602694609200490DF
:1011D0001A48CDE9006403F0DFFD194F4FF4664073
:1011E000CDE9000469463846049503F0D5FD4EF676
:1011F000FF706946CDE900041248049503F0CCFD68
:101200000495F720104D6946CDE90004284603F007
:10121000C3FD012469463846CDE9006403F0BCFDF6
:1012200008206946CDE90004284603F0B5FD07B063
:10123000F0BD000044380240001002400018024097
:1012400000200240002402400028024001490860BA
:1012500070470000500100200449054A096801EB6D
:10126000410102EB810148607047000050010020FD
:10127000E88C03200449054A096801EB410102EBAF
:10128000810188607047000050010020E88C032035
:101290000349044A096801EB410142F82100704703
:1012A00050010020E88C03200349044A31F8101053
:1012B00052F8200003F05CBE0CBB00084401002083
:1012C0001B4802222DE9F04100F13401174E07239B
:1012D0000660042581E82C00CB6000240A61D70158
:1012E0004A6110238A61910244604026C0E90245A8
:1012F0004A00C0E90741C0E909241030002180E814
:10130000C800103800F05AF809490948343105F08E
:101310000DFA084D10B10120287000E02C7040F249
:10132000036000F009F82878BDE8F081400100A0D2
:10133000C08D0320740100202DE9F8431E4C1027B6
:1013400000254FF6FF780126009521468146C4E925
:101350000067C4E90265A1F15000424605F01AFA9F
:1013600002202146C4E90007C4E90265A1F150004A
:10137000424605F00FFA03214246C4E9001708204F
:101380002146C4E90205A1F1500005F003FA4FF42B
:101390000870009004214246C4E90260C4E90017C5
:1013A0002146A1F1500005F0F5F9A4F1500049469D
:1013B000BDE8F84305F0DCB9108E0320F0B5044613
:1013C0004F4887B0016841F00101016000684C4955
:1013D00000F0010005900839086840F480000860BA
:1013E000086800F480000590086840F00400086078
:1013F000086800F004000590086840F008000860E4
:10140000086800F008000590086840F010000860C7
:10141000086800F010000590086840F0200008609F
:10142000086800F020000590086840F0400008605F
:10143000086800F040000590086840F080000860EF
:10144000086801210C2200F0800005900220CDE9FF
:10145000010108230093CDE903022A48694603F0FD
:101460009BFC4CF2037000902748694603F094FC03
:101470004FF6837000902548694603F08DFC4FF6C7
:101480003F0000902248694603F086FC48F2331082
:1014900000902048694603F07FFC282000901E48F9
:1014A000694603F079FC1D494FF4007500224FF0A6
:1014B000800CEE006F004A606801C1E902C5C1E915
:1014C00004761831164EC300032581E80D00C1E9EA
:1014D00003254A618A6141F8186D21630F488C63C6
:1014E00003F089FA0D4803F087FB00220F21382012
:1014F00004F0B6F8382004F0A5F807B0F0BD0000FD
:101500003838024000080240000C0240001002403F
:101510000014024000180240001C0240008D03200D
:10152000106402400B4800B587B0016841F0040127
:10153000016000680021012200F0040005900323EF
:101540004FF400508DE80F000348694603F024FC77
:1015500007B000BD3038024000080240044810B512
:1015600005F069FA042801D0012010BD002010BD4B
:10157000F091032014480021124A10B50C46C0E92E
:1015800000218160C160016141618161FFF7CAFF93
:1015900000F01CF8012801D0022010BD0A480021EB
:1015A00000F026F8084805F05CFA08B1012406E0CE
:1015B00005484FF4006105F005F90028F6D12046F2
:1015C00010BD0000002C0140F091032008B501205F
:1015D0008DF800004103054803F0CAFC012802D140
:1015E00000208DF800009DF8000008BD00080240B2
:1015F0002DE9F04F04464C4887B0016841F4006182
:101600000160006800F400600590474814380168E4
:1016100041F480010160016801F4800105910168D5
:1016200041F004010160016801F0040105910168C5
:1016300041F008010160006802234FF4F85100F006
:10164000080005900C20012202920325CDE9001329
:10165000CDE903503548694603F09EFB3448042623
:101660006946009603F098FB00220E21312003F01A
:10167000F7FF312003F0E6FF2E48002732024FF03B
:1016800000699100C0E90197C7604FF4403BC0E991
:1016900004218900816120214662C0E9071B264997
:1016A0004FF4000840F8281B4FF4001A80E820058A
:1016B0002838E06384631F4803F09DF91D4803F058
:1016C0009BFA1C48402120226030C0E90217090122
:1016D000016189004161C0F820B08F00164948318E
:1016E000C0E90019C0E90672C0E90965C0E90B8AC2
:1016F0002064846303F07FF90E48603003F07CFAC5
:1017000000220F213B2003F0ABFF3B2003F09AFFA8
:1017100000220F21452003F0A3FF452003F092FF94
:1017200007B0BDE8F08F00004438024000080240D6
:10173000000C0240709003205864024008B50093EA
:1017400013460A460146034805F0D6F9002800D0A2
:10175000012008BDF091032008B5009313460A4606
:101760000146034805F0A0FA002800D0012008BD7A
:10177000F09103202DE9F04F95B0584D4FF0000B3C
:1017800006465C46CDF844B0CDF848B0CDF84CB034
:10179000A868016968788847002830707ED00024E6
:1017A0000DF1100A0DF1380908AF8BE0A8680DF1B2
:1017B0002C080AEB440208EB440143696878984717
:1017C0002878012807D138F8142029F814203AF88D
:1017D000141027F81410810705D538F81410C1F536
:1017E000805129F81410410705D53AF81410C1F5B5
:1017F000805127F81410000707D538F8140027F88F
:1018000014003AF8141029F81410DFF8D48039F8CD
:10181000140058F82410884201D9421A00E00A1A2C
:101820002F491FFA82FC37F81420143151F8243064
:101830009A4201D9D31A00E09B1A9BB26344052B4C
:1018400003D948F8240041F8242095F801C0BCF1E0
:10185000700F26D058F8242006EB44006B885A43BA
:10186000120B428051F82410AA885143090B818140
:1018700013A8214612AB009011AA604608F0BCFEE6
:10188000301911998175129980F82010139979B146
:1018900001290FD0022910D0032900E01AE010D14D
:1018A0000DE006EB4401488037F814008881DFE73B
:1018B000012100E00221C17603E00321FBE780F86B
:1018C0001BB0641C3078A0423FF670AF304600F089
:1018D00009F8044615B02046BDE8F08F78010020D5
:1018E000208E0320F8B50446144800266946009669
:1018F0003546407808F070FE0098182816D005DCB0
:1019000068B110280DD0142806D10CE01C280FD087
:1019100040280FD049280FD001252846F8BDA662DF
:10192000FBE7012000E00220A062F6E70320FBE7CE
:101930000420F9E70520F7E70620F5E77801002005
:1019400070B50C4C00260C4D60807020A180296879
:101950008847696870208847512802D0032630469E
:1019600070BDA5607020607008212170E96888470B
:10197000F5E70000780100208C010020FEE710B59B
:10198000FEF788FF002010BD2DE9F74F6A480E468C
:101990002DED048B82B0817800297CD181469FEDAA
:1019A000670AD0ED070A90ED061A0078D40580EE9C
:1019B000202A4AF644431502240C58434FF47A7106
:1019C000B0FBF1F0B7EE008A05F58075C0EE011AA4
:1019D00080B20190BCEEC22A12EE101A8FB2C1EE94
:1019E000008AFCEEE11A11EE900A1FFA80F880EEF0
:1019F000809A90E036F91400DFED519A0090B9F822
:101A0000040068EEA90A00EE100AB8EE400A20EEC3
:101A1000800A08F041FD019838EE401AB0EE480AFD
:101A20004FEA500A00EE90AAF8EE600A00EE810A32
:101A300069EE290ABCEEC00A10EE100A1FFA80FBFC
:101A4000B9F8060000EE100AB8EE400A20EE800A4F
:101A500008F022FD00EE90AA38EE400AB0EE481AD7
:101A6000F8EE600A99F80100A4EB0B024FF4304144
:101A7000002800EE801A02F53042B2FBF1F3BCEE12
:101A8000C10A10EE100A80B2A4EB000000F530404D
:101A9000B0FBF1FC00E042E001FB132244D001FB6B
:101AA0001C0036F9122036F910104846009B01EE52
:101AB000902A00EE903A99ED081AB8EEE12AF8EE75
:101AC000E00A00EE101AD9ED091A621C41EE020A72
:101AD000B8EEC00A31EE081A41EE800A31EE210A52
:101AE00080EE801ABDEEC10A10EE101A26F814100E
:101AF00094B2828802EB0801491CB1FBF8F308FBA1
:101B000013118180C1883944491CB1FBF7F207FBEE
:101B10001211A9F80610B4EB550FFFF46BAF02B029
:101B2000BDEC048BBDE8FE8F01FB1C01069830F96B
:101B3000122030F91110B8E70800002000442C47AB
:101B4000DB0FC9402DE9F041A1F16002674F684CFD
:101B50001D2A9FED650AA0F1AB06A0F11F05A0F2BA
:101B60007313A0F1E70230D26249222E08D2D4EDDD
:101B7000060A10EE900A88427EDA30EE800A09E00A
:101B8000222D0AD2D4ED060A10EE900AB84276DD74
:101B900030EEC00A84ED060A89E0222B08D2D4ED8B
:101BA000070A10EE900A884269DA30EE800A09E0EE
:101BB000222A64D2D4ED070A10EE900AB8425EDD04
:101BC00030EEC00A84ED070A71E0A1F1A10CBCF16E
:101BD0001D0F30D24848222E08D2D4ED080A10EE4C
:101BE000901A81424BDA30EE800A09E0222D0AD2A7
:101BF000D4ED080A10EE900AB84240DD30EEC00A7B
:101C000084ED080A53E0222B08D2D4ED090A10EE25
:101C1000901A814233DA30EE800A09E0222A2ED26D
:101C2000D4ED090A10EE900AB84228DD30EEC00A61
:101C300084ED090A3BE0A1F1DD051D2D3BD25B38A7
:101C4000362826D22D480078012818D12C48FFF7D5
:101C500011FB4FF0FF30FFF7FFFA4FF07F40FFF727
:101C600017FB607868B1012809D10323E5216420BE
:101C700024A2FFF7AFF800E001E000206070BDE8AB
:101C8000F0810323E52164201FA2FFF7A3F80120C0
:101C9000F4E71748222B017803D20A29EFD2491C16
:101CA00004E0222AEBD20029E9D0491E2170BDE8C8
:101CB000F04100F063BB8A1F272A07D20A2805D902
:101CC000502803D2BDE8F04101F018B8103922299C
:101CD000D5D2B0F5D27FD2D9B0F5E37FCFD8BDE869
:101CE000F04101F01DB900000AD7233C0AD7233C7C
:101CF0000800002014AEC73EA4707D3FA80000205D
:101D00005C010020534F49004E4F490011490846DD
:101D10000A790189C0880A2A1AD2DFE802F0050789
:101D2000090B0D0F1113151705F098BE07F0AABE89
:101D300006F088BC06F03AB900F008B902F018BB0A
:101D4000FFF700BF07F0EABD06F0B4B907F05ABCD0
:101D500070470000A8000020F0B5059C44EA034548
:101D600003685C6C04F040442C435C640368DA63F1
:101D70004268B2F5403F02D00068C160F0BD01F496
:101D80007F42856801F47F04224301F07F4301F420
:101D90007F0701F47F46CCB2BDB1012D16D001F40E
:101DA0007F02C1F3C401D20C022D11D0032D14D037
:101DB000320B390D15011A0F45EA0123210943EAB7
:101DC00002320A4300688263F0BD1A432243F9E7F6
:101DD000B30A5B0143EAC222F3E7F40ADB0F6401B2
:101DE00044EA822242EAC332EBE700000148006B7A
:101DF00002F032BEC08D03200148C06E02F02CBE3E
:101E0000488E03200148006F02F026BECC8E0320CE
:101E100001681823CAB2103AB2FBF3F2054B6FF314
:101E20000901032A9B5CC36500D9091D8165084629
:101E300070470000E4B2000810B583694FF0C07429
:101E4000826A0146002053B1B3F5005F15D072B12C
:101E5000012A0CD0022A0AD0032A09D104E01AB1BF
:101E6000012A06D0022A03D1C96AC90100D501207E
:101E700010BDC96AA142FAD010BD002AF7D0012ACC
:101E8000F2D0022AF3D0032AF3D010BD30B5046893
:101E9000256825F480252560046863608368402BED
:101EA000036803D099600068C26030BD9A60006822
:101EB000C16030BD70470000234BF0B55C884AF626
:101EC00044464FF47A755F787443002F94FBF5F520
:101ED00035D1D6051402320C1E78D3ED030A4FF427
:101EE000304704F5807427E0A2EB050331F912C0F6
:101EF00003F53043B3FBF7FE07FB1E3306B331F99E
:101F0000133000BF00EE10CA01EE103AF7EE001ACF
:101F1000B8EEC00AB8EEC11A70EEA11A02F1010CB7
:101F200000EE810A80EE211ABDEEC10A10EE103AD1
:101F300021F812301FFA8CF2B2EB540FD4D3F0BD5B
:101F400030F91330DEE700003000002010B5494CB6
:101F5000A1F16F031D2B628833D2A0F1AB012229BE
:101F600005D240F2E73082424DD2521C06E0A0F189
:101F70001F01222904D2002A45D0521E62801CE093
:101F80003C4AA0F27311DFED3C0A222992ED030ACC
:101F900007D210EE100A3949884234DA30EE200AAE
:101FA00009E0E73822282ED210EE100A3449884280
:101FB00029DD30EE600A84ED030ABDE8104000F030
:101FC0005DBAA1F1C9031D2B26D25B3836281AD27F
:101FD0002C480078012816D12B48FFF74BF94FF019
:101FE000FF30FFF739F94FF07F40FFF751F92078C4
:101FF00050B1012807D10323D121642023A2FEF789
:10200000E9FE0020207010BD0323D121642020A20E
:10201000FEF7E0FE0120F5E7A1F19203132B10D2A9
:10202000A0F1B001182905D240F2DF308242EAD295
:102030000A32A3E724381828E5D2092AE3D90A3A54
:102040009CE78A1F272A07D20A2805D9502803D2DD
:10205000BDE8104000F052BE10392229D3D2B0F5AD
:10206000D27FD0D9B0F5E37FCDD8BDE8104000F0E5
:10207000BBBF0000300000200AD7233CA4707D3F86
:102080000AD7233CA80000205C010020534F4900E0
:102090004E4F49002DE9F041934D2846FEF73AFE98
:1020A000AC152046FFF7F4F81E2323225F21AA2057
:1020B000FEF726FF1E23232218465F21FEF720FF8E
:1020C0004FF4B9761E23304623225F21FEF718FF16
:1020D0001E2323225F21E620FEF712FF1E23232268
:1020E000A021AA20FEF70CFF1E2323221846A021C0
:1020F000FEF706FF1E2330462322A021FEF700FF35
:102100001E232322A021E620FEF7FAFE1E233722FB
:10211000DC215A20FEF7F4FE1E2330462322DC2168
:10212000FEF7EEFE1E232322DC21E620FEF7E8FE6A
:102130002823462205210A20FEF7E2FE2846FFF763
:102140008BF82046FFF7A4F86848FFF793F80323BD
:102150000F21782066A2FEF73DFE6748FFF78AF858
:1021600003234B21492065A2FEF734FE40F21116ED
:10217000032330464B2164A2FEF72CFE03238C215F
:10218000492064A2FEF726FE032330468C2164A278
:10219000FEF720FE0323C821522064A2FEF71AFE98
:1021A0000323C821701F63A2FEF714FE2046FFF729
:1021B00053F826063046FFF76BF803236821B62054
:1021C0005FA2FEF707FE032368212A205DA2FEF727
:1021D00001FE4FF4BF7403232046682158A2FEF786
:1021E000F9FD03236821F22056A2FEF7F3FD032335
:1021F000A921B62052A2FEF7EDFD0323A9212A2032
:1022000050A2FEF7E7FD03232046A9214CA2FEF7CA
:10221000E1FD0323A921F2204AA2FEF7DBFD0323FF
:102220002046E52146A2FEF7D5FD0323E521F22055
:1022300044A2FEF7CFFD444C607810B1012803D0D2
:1022400008E0032341A201E0032341A2E521642029
:10225000FEF7C0FD3F48FFF70DF81621032308469F
:102260003DA2FEF7B7FD00F089F83A48FFF702F803
:102270002846FEF7F1FFA0784FF4D2774FF4AA7406
:1022800001281FD000282CD14FF0FF20FFF700F8C5
:10229000232338460F211A46FEF732FE2846FEF762
:1022A000F7FF1423204646221A21FEF729FE304666
:1022B000FEF7EEFF03232AA22046BDE8F0411A21D3
:1022C000FEF788BD2948FEF7E3FF232338460F2198
:1022D0001A46FEF715FE3046FEF7DAFF032324A266
:1022E000EAE7BDE8F0810000D3D3D3FF540100201A
:1022F00043484F52555300005C0100205241544561
:1023000020315B487A5D3A005241544520325B48A7
:102310007A5D3A00444550544820313A00000000AC
:10232000444550544820323A00000000574552536B
:102330004A413A0044454C41595B6D735D3A000097
:102340002B0000002D00000008000020534F490022
:102350004E4F490064010020504F57524F54000027
:10236000574C41435A4F4E59000000000000FFFFF8
:1023700057594C41435A4F4E5900000070B5394CE3
:102380002046FEF785FF1E234FF491703722DC2193
:10239000FEF7B6FDA015FEF77BFF2046FEF75CFFBB
:1023A0003148FEF767FF314CA069FEF785F841EC34
:1023B000100B2FA153EC102B04F10B0007F0EAFBDC
:1023C00003236621552004F10B02FEF703FDE069AB
:1023D000FEF772F841EC100B25A153EC102B04F121
:1023E0000E0007F0D7FB40F21D1503232846662197
:1023F00004F10E02FEF7EEFC206AFEF75DF841ECF8
:10240000100B1BA153EC102B04F1110007F0C2FBC1
:102410000323A721552004F11102FEF7DBFC606ABB
:10242000FEF74AF841EC100B11A153EC102B04F10C
:10243000140007F0AFFB03232846A72104F1140280
:10244000FEF7C8FC22780CA104F1080007F0A2FBFB
:1024500004F10802BDE870400323E3214FF49670B5
:10246000FEF7B8BCD3D3D3FF5401002008000020EE
:10247000252E3266000000002564000010B5194CBE
:102480002046FEF705FF1E2346226E215A20FEF746
:1024900037FDA015FEF7FCFE2046FEF7DDFE1248D4
:1024A000FEF7E8FE114C12A1201D628807F072FBB6
:1024B0000323221D75215F20FEF78CFCE068FDF7E9
:1024C000FBFF41EC100BE01D53EC102B09A107F0B2
:1024D00061FBE21D4FF491700323BDE810407521AC
:1024E000FEF778BCD3D3D3FF540100203000002086
:1024F00025640000252E32660000000070B5244CD3
:102500002046FEF7C5FE1E2337226E215A20FEF715
:10251000F7FCA015FEF7BCFE2046FEF79DFE1D4809
:10252000FEF7A8FE1C4C1DA1A01D227807F032FB6F
:102530000323A21D75215F20FEF74CFC6069FDF7A7
:10254000BBFF41EC100B16A153EC102B04F10C0057
:1025500007F020FB4FF4917503232846752104F101
:102560000C02FEF737FC2069FDF7A6FF41EC100BCB
:102570000BA153EC102B04F1090007F00BFB04F145
:1025800009022846BDE870400323CF21FEF722BC94
:10259000D3D3D3FF54010020400000202564000065
:1025A000252E32660000000010B54FF0FF30FEF718
:1025B0006FFE1648FEF750FE1548FEF75BFE154C01
:1025C000A068FDF779FF41EC100B601C53EC102B59
:1025D00011A107F0DFFA0323621C75215520FEF7D5
:1025E000F9FBE068FDF768FF41EC100B201D53EC90
:1025F000102B09A107F0CEFA221D40F21D10032373
:10260000BDE810407521FEF7E5BB0000D3D3D3FF32
:102610005401002058000020252E326600000000E2
:1026200070B52F4C2046FEF733FE1E2337226E2155
:102630005A20FEF765FC1E233722C8215A20FEF7D8
:102640005FFC4FF491751E2328463722C821FEF700
:1026500057FCA015FEF71CFE2046FEF7FDFD2148A5
:10266000FEF708FE204C21A104F11000227807F0AB
:1026700091FA032375215F2004F11002FEF7AAFBF3
:10268000E069FDF719FF41EC100B19A153EC102B79
:1026900004F1130007F07EFA03232846752104F1A4
:1026A0001302FEF797FB627810A104F1160007F001
:1026B00071FA0323CF215F2004F11602FEF78AFB93
:1026C000A2780AA104F1190007F064FA0323CF21CC
:1026D000681D04F11902BDE87040FEF77BBB0000E5
:1026E000D3D3D3FF540100207800002025640000DC
:1026F000252E32660000000010B51A4C2046FEF769
:10270000C7FD1E2337226E215A20FEF7F9FBA015C4
:10271000FEF7BEFD2046FEF79FFD1348FEF7AAFD1B
:10272000124C13A1A01D227807F034FA0323A21D36
:1027300075215F20FEF74EFBE068FDF7BDFE41EC22
:10274000100B0CA153EC102B04F1090007F022FA36
:1027500003234FF4917004F10902BDE81040752184
:10276000FEF738BBD3D3D3FF5401002098000020DC
:1027700025640000252E32660000000010B51C4CB8
:102780002046FEF785FD1E233C226E215A20FEF7CF
:10279000B7FBA015FEF77CFD2046FEF75DFD154852
:1027A000FEF768FD144C15A1A01D94F9002007F058
:1027B000F1F90323A21D75215520FEF70BFB60786C
:1027C000002813D1E068FDF777FE41EC100BE01C08
:1027D00053EC102B0AA107F0DDF9E21C4FF49170C5
:1027E0000323BDE810407521FEF7F4BA10BD0000C8
:1027F000D3D3D3FF540100206800002025640000DB
:10280000252E32660000000010B5114C2046FEF760
:102810003FFD232346228221E120FEF771FBA01514
:10282000FEF736FD2046FEF717FD0A48FEF722FDAB
:1028300009480AA14278801C07F0ACF9064A032334
:102840008B21921CBDE81040E620FEF7C3BA0000C1
:10285000D3D3D3FF540100200000002025640000E2
:102860002DE9F041734D2846FEF754FAAC15204689
:10287000FEF70EFD1E2323226E21AA20FEF740FB49
:102880001E23232218466E21FEF73AFB1423192239
:102890009121AF20FEF734FB14231922912123202C
:1028A000FEF72EFB1E234FF4B97023226E21FEF794
:1028B00027FB1E2323226E21E620FEF721FB1E2389
:1028C0003722C8215A20FEF71BFB28234622052168
:1028D0000A20FEF715FB2846FEF7BEFC2046FEF751
:1028E000D7FC5548FEF7C6FC03230F21782053A2DE
:1028F000FEF770FA5348FEF7BDFC03235A2144202B
:1029000051A2FEF767FA03234FF491705A2151A2A6
:10291000FEF760FA0323B421522050A2FEF75AFAC0
:102920002046FEF799FC26063046FEF7B1FC03234D
:102930007721B6204BA2FEF74DFA032377212A20F8
:1029400049A2FEF747FA4948FEF794FC0323962173
:10295000B12047A2FEF73EFA03239621252045A287
:10296000FEF738FA3748FEF785FC03234FF4BF70B3
:1029700077213CA2FEF72EFA03237721F2203AA218
:10298000FEF728FA3C4C207810B1012803D008E06B
:1029900003233AA201E0032339A2D1216420FEF7E8
:1029A00019FA3248FEF766FC16210323084635A2C1
:1029B000FEF710FAFFF762FD2C48FEF75BFC284695
:1029C000FEF74AFC60784FF4D2774FF4AA740128DE
:1029D0001FD000282CD14FF0FF20FEF759FC2323F5
:1029E00038460F211A46FEF78BFA2846FEF750FCB0
:1029F0001423204646221A21FEF782FA3046FEF7BB
:102A000047FC032321A22046BDE8F0411A21FEF72E
:102A1000E1B92148FEF73CFC232338460F211A4632
:102A2000FEF76EFA3046FEF733FC03231BA2EAE7FB
:102A3000BDE8F081D3D3D3FF5401002044454C417D
:102A4000590000005C01002044454C41595B6D7306
:102A50005D3A00004741494E3A0000005745525345
:102A60004A413A002B0000002D00000064010020C4
:102A70002B3130002D31300030000020534F490001
:102A80004E4F4900504F57524F540000574C41434E
:102A90005A4F4E59000000000000FFFF57594C41AB
:102AA000435A4F4E590000002DE9F041754D28461C
:102AB000FEF730F9AC152046FEF7EAFB1E23232271
:102AC0006E21AA20FEF71CFA1E23232218466E212F
:102AD000FEF716FA4FF4B9761E23304623226E21F4
:102AE000FEF70EFA1E2323226E21E620FEF708FAD7
:102AF0001E2330462322C821FEF702FA1E2323227A
:102B0000C821E620FEF7FCF91E233722C8215A20EF
:102B1000FEF7F6F92823462205210A20FEF7F0F9F0
:102B20002846FEF799FB2046FEF7B2FB5648FEF713
:102B3000A1FB03230F21782054A2FEF74BF955483F
:102B4000FEF798FB03235A21442053A2FEF742F9D3
:102B500003234FF491705A2152A2FEF73BF903234D
:102B600040F21110B42151A2FEF734F90323B4212D
:102B7000522051A2FEF72EF92046FEF76DFB2606E5
:102B80003046FEF785FB03237721B6204CA2FEF7E3
:102B900021F9032377212A204AA2FEF71BF94FF4DB
:102BA000BF7403232046772145A2FEF713F90323C0
:102BB0007721F22043A2FEF70DF903232046D1210D
:102BC0003FA2FEF707F90323D121F2203DA2FEF731
:102BD00001F93D4C607810B1012803D008E00323CF
:102BE0003AA201E003233AA2D1216420FEF7F2F8D1
:102BF0003848FEF73FFB16210323084636A2FEF7AE
:102C0000E9F8FFF77BFC3348FEF734FB2846FEF774
:102C100023FBA0784FF4D2774FF4AA7401281FD079
:102C200000282CD14FF0FF20FEF732FB232338463B
:102C30000F211A46FEF764F92846FEF729FB1423F4
:102C4000204646221A21FEF75BF93046FEF720FBAC
:102C5000032323A22046BDE8F0411A21FEF7BAB8AB
:102C60002248FEF715FB232338460F211A46FEF7AC
:102C700047F93046FEF70CFB03231DA2EAE7BDE847
:102C8000F0810000D3D3D3FF54010020464C414EC5
:102C9000474552005C01002044454C41595B6D732F
:102CA0005D3A00004741494E3A0000005241544508
:102CB0005B487A5D3A000000574552534A413A005A
:102CC0002B0000002D00000040000020534F490061
:102CD0004E4F490064010020504F57524F5400009E
:102CE000574C41435A4F4E59000000000000FFFF6F
:102CF00057594C41435A4F4E590000002DE9F047B7
:102D0000DFF8CCA100208AF804007248FEF7B2FA7E
:102D10006FF4FE00FDF7FEFF4FF0FF352846FEF78B
:102D20009BFA01242846FEF7B3FA0A27A9464FF07A
:102D30007F4804E04846FEF7ABFA052C03DAFEF7BD
:102D40004BF9E63802E0FEF747F9823885B2FEF724
:102D500033F9E117462304EB917121F00301661A60
:102D600029466422704307EB900080B2FEF7C8F852
:102D70004046FEF78DFA082C05D0052C11DAFEF737
:102D80002BF9E63810E0FEF727F9623884B2FEF737
:102D900013F94F4A0C20032321467232FEF71AF82A
:102DA00019E0FEF719F98238203085B2FEF704F9F0
:102DB00070431921464A032301EB9000C4EBC40180
:102DC000103202EB4102294680B20E3AFEF702F8B9
:102DD000641C092CAEDB44464046FEF759FAFEF768
:102DE000FBF8323885B2FEF7E7F8FF38294680B2A3
:102DF0002D237822FEF784F84D464846FEF748FA20
:102E0000FEF7EAF82D3886B2FEF7D6F8FA383146E2
:102E100080B223236E22FEF773F82046FEF738FABD
:102E20002D48FEF727FAFEF7D7F81F3886B2FEF7CF
:102E3000C3F8F538314680B2032328A2FDF7CAFF54
:102E40009AF8030090BB2046FEF722FAFEF7C4F87A
:102E5000323886B2FEF7B0F87D38314680B22D2385
:102E60007822FEF74DF82846FEF712FAFEF7B4F87E
:102E70002D3886B2FEF7A0F87838314680B2232389
:102E80006E22FEF73DF82046FEF702FA1248FEF7E2
:102E9000F1F9FEF7A1F81F3884B2FEF78DF8733808
:102EA000214680B2032312A2FDF794FF1548FEF7D6
:102EB000E1F92846FEF7ECF91348FEF7CDF9BDE835
:102EC000F04703230821552010A2FDF783BF00001F
:102ED000A8000020640100206C01002050727A7963
:102EE00077726F6320646F6D79736C6E650000009C
:102EF0005A617069737A206E61206B6172636965D3
:102F00002053440054010020D3D3D3FF4D554C54DB
:102F1000494546454B542047495441524F57590063
:102F200026482DE9F0410078012830D12448FEF7E9
:102F3000A1F9DFF890804046FEF78EF9224C4FF45D
:102F4000D2764FF07F474FF4AA75A07808B30128D6
:102F50001DD14FF0FF20FEF79BF9232330460F21B0
:102F60001A46FDF7CDFF4046FEF792F91423284696
:102F700046221A21FDF7C4FF3846FEF789F90323DC
:102F800028461A2111A2FDF725FF0020A070BDE8F8
:102F9000F0811148FEF77CF9232330460F211A46B1
:102FA000FDF7AEFF3846FEF773F9032328461A21D2
:102FB0000AA2FDF70FFF0120E8E70000A8000020AB
:102FC00064010020D3D3D3FF08000020574C4143B5
:102FD0005A4F4E59000000000000FFFF57594C4166
:102FE000435A4F4E5900000026482DE9F041007821
:102FF000012830D12448FEF73DF9DFF890804046A3
:10300000FEF72AF9224C4FF4D2764FF07F474FF467
:10301000AA75607808B301281DD14FF0FF20FEF794
:1030200037F9232330460F211A46FDF769FF404642
:10303000FEF72EF91423284646221A21FDF760FFD9
:103040003846FEF725F9032328461A2111A2FDF779
:10305000C1FE00206070BDE8F0811148FEF718F94C
:10306000232330460F211A46FDF74AFF3846FEF764
:103070000FF9032328461A210AA2FDF7ABFE01200F
:10308000E8E70000A800002064010020D3D3D3FFAC
:1030900030000020574C41435A4F4E590000000069
:1030A0000000FFFF57594C41435A4F4E5900000052
:1030B00026482DE9F0410078012830D12448FEF758
:1030C000D9F8DFF890804046FEF7C6F8224C4FF45E
:1030D000D2764FF07F474FF4AA75A07808B3012845
:1030E0001DD14FF0FF20FEF7D3F8232330460F21E8
:1030F0001A46FDF705FF4046FEF7CAF81423284696
:1031000046221A21FDF7FCFE3846FEF7C1F80323DC
:1031100028461A2111A2FDF75DFE0020A070BDE82F
:10312000F0811148FEF7B4F8232330460F211A46E8
:10313000FDF7E6FE3846FEF7ABF8032328461A21D2
:103140000AA2FDF747FE0120E8E70000A8000020E2
:1031500064010020D3D3D3FF40000020574C4143EB
:103160005A4F4E59000000000000FFFF57594C41D4
:10317000435A4F4E5900000026482DE9F04100788F
:10318000012830D12448FEF775F8DFF890804046DA
:10319000FEF762F8224C4FF4D2764FF07F474FF49F
:1031A000AA75207808B301281DD14FF0FF20FEF743
:1031B0006FF8232330460F211A46FDF7A1FE404643
:1031C000FEF766F81423284646221A21FDF798FEDA
:1031D0003846FEF75DF8032328461A2111A2FDF7B1
:1031E000F9FD00202070BDE8F0811148FEF750F88D
:1031F000232330460F211A46FDF782FE3846FEF79C
:1032000047F8032328461A210AA2FDF7E3FD01200F
:10321000E8E70000A800002064010020D3D3D3FF1A
:1032200058000020574C41435A4F4E5900000000AF
:103230000000FFFF57594C41435A4F4E59000000C0
:1032400026482DE9F0410078012830D12448FEF7C6
:1032500011F8DFF890804046FDF7FEFF224C4FF456
:10326000D2764FF07F474FF4AA75A07808B30128B3
:103270001DD14FF0FF20FEF70BF8232330460F211E
:103280001A46FDF73DFE4046FEF702F81423284695
:1032900046221A21FDF734FE3846FDF7F9FF0323D5
:1032A00028461A2111A2FDF795FD0020A070BDE867
:1032B000F0811148FDF7ECFF232330460F211A4619
:1032C000FDF71EFE3846FDF7E3FF032328461A21CB
:1032D0000AA2FDF77FFD0120E8E70000A80000201A
:1032E00064010020D3D3D3FF68000020574C414332
:1032F0005A4F4E59000000000000FFFF57594C4143
:10330000435A4F4E5900000026482DE9F0410078FD
:10331000012830D12448FDF7ADFFDFF8908040460A
:10332000FDF79AFF224C4FF4D2764FF07F474FF4CF
:10333000AA75E07808B301281DD14FF0FF20FDF7F2
:10334000A7FF232330460F211A46FDF7D9FD40463B
:10335000FDF79EFF1423284646221A21FDF7D0FDD3
:103360003846FDF795FF032328461A2111A2FDF7E1
:1033700031FD0020E070BDE8F0811148FDF788FFC5
:10338000232330460F211A46FDF7BAFD3846FDF7D4
:103390007FFF032328461A210AA2FDF71BFD012007
:1033A000E8E70000A800002064010020D3D3D3FF89
:1033B00078000020574C41435A4F4E5900000000FE
:1033C0000000FFFF57594C41435A4F4E590000002F
:1033D00026482DE9F0410078012830D12448FDF736
:1033E00049FFDFF890804046FDF736FF224C4FF44E
:1033F000D2764FF07F474FF4AA75A07808B3012822
:103400001DD14FF0FF20FDF743FF232330460F214E
:103410001A46FDF775FD4046FDF73AFF142328468E
:1034200046221A21FDF76CFD3846FDF731FF0323D4
:1034300028461A2111A2FDF7CDFC0020A070BDE89E
:10344000F0811148FDF724FF232330460F211A464F
:10345000FDF756FD3846FDF71BFF032328461A21CA
:103460000AA2FDF7B7FC0120E8E70000A800002051
:1034700064010020D3D3D3FF98000020574C414370
:103480005A4F4E59000000000000FFFF57594C41B1
:10349000435A4F4E590000002DE9F041574D284640
:1034A000FDF738FCAC152046FDF7F2FE1E23232263
:1034B0006E21AA20FDF724FD1E23232218466E212B
:1034C000FDF71EFD1E234FF4B97023226E21FDF778
:1034D00017FD1E2323226E21E620FDF711FD282370
:1034E000462205210A20FDF70BFD2846FDF7B4FE14
:1034F0002046FDF7CDFE4248FDF7BCFE03230F2119
:10350000782040A2FDF766FC4148FDF7B3FE032397
:103510005A2141203FA2FDF75DFC03234FF4917037
:103520005A213FA2FDF756FC2046FDF795FE2606E0
:103530003046FDF7ADFE03237721B6203AA2FDF712
:1035400049FC032377212A2038A2FDF743FC0323FB
:103550004FF4BF70772134A2FDF73CFC03237721A1
:10356000F22032A2FDF736FC3148FDF783FE16212A
:10357000032308462FA2FDF72DFCFFF715F82C4872
:10358000FDF778FE2846FDF767FE2C484FF4D2770A
:103590004FF4AA74007801281FD000282CD14FF0D6
:1035A000FF20FDF775FE232338460F211A46FDF74D
:1035B000A7FC2846FDF76CFE1423204646221A215C
:1035C000FDF79EFC3046FDF763FE03231CA2204658
:1035D000BDE8F0411A21FDF7FDBB1C48FDF758FE80
:1035E000232338460F211A46FDF78AFC3046FDF7A3
:1035F0004FFE032316A2EAE7BDE8F081D3D3D3FF41
:10360000540100204F56455244524956450000008F
:103610005C010020434C49502056414C55453A002E
:103620004741494E3A0000002B0000002D000000E9
:1036300064010020504F57524F54000058000020A2
:10364000574C41435A4F4E59000000000000FFFF05
:1036500057594C41435A4F4E590000002DE9F04153
:10366000674D2846FDF756FBAE153046FDF710FEB8
:103670001E2323226E21AA20FDF742FC1E232322B3
:1036800018466E21FDF73CFC5E4C607860B91E2345
:103690004FF4B97023226E21FDF732FC1E23232242
:1036A0006E21E620FDF72CFC1E235F22C8213C2062
:1036B000FDF726FC2823462205210A20FDF720FCE1
:1036C0002846FDF7C9FD3046FDF7E2FD4E48FDF7FF
:1036D000D1FD03230F2169204CA2FDF77BFB4F484E
:1036E000FDF7C8FD03235A2144204DA2FDF772FBCC
:1036F000607830B903234FF491705A214AA2FDF744
:1037000069FB0323B4214B2049A2FDF763FB30463C
:10371000FDF7A2FD4FF07F463046FDF7B9FD0323CC
:103720007721B62044A2FDF755FB032377212A20F9
:1037300042A2FDF74FFB607810B1012810D015E0D0
:1037400003234FF4BF7077213BA2FDF743FB032314
:103750007721F22039A2FDF73DFB032338A201E0D7
:10376000032338A2D1214620FDF734FB3748FDF76B
:1037700081FD16210323084635A2FDF72BFBFEF73A
:10378000FDFF3248FDF776FD2846FDF765FDA07880
:103790004FF4D2774FF4AA7401281FD000282CD1FF
:1037A0004FF0FF20FDF774FD232338460F211A4602
:1037B000FDF7A6FB2846FDF76BFD142320464622A5
:1037C0001A21FDF79DFB3046FDF762FD032322A27F
:1037D0002046BDE8F0411A21FDF7FCBA2148FDF76B
:1037E00057FD232338460F211A46FDF789FB304643
:1037F000FDF74EFD03231CA2EAE7BDE8F0810000BF
:10380000D3D3D3FF68000020540100205049544313
:103810004820534849465445520000005C010020AE
:1038200050495443483A00004741494E3A0000008D
:10383000574552534A413A002B0000002D0000002A
:10384000414444005245504C41434500640100202E
:10385000504F57524F540000574C41435A4F4E5906
:10386000000000000000FFFF57594C41435A4F4EE3
:10387000590000002DE9F041764D2846FDF74AFA3F
:10388000AC152046FDF704FD1E2323226E21AA203D
:10389000FDF736FB1E23232218466E21FDF730FB71
:1038A0004FF4B9761E23304623226E21FDF728FB04
:1038B0001E2323226E21E620FDF722FB1E23232256
:1038C000C821AA20FDF71CFB1E2323221846C8216D
:1038D000FDF716FB1E2330462322C821FDF710FBFF
:1038E0001E232322C821E620FDF70AFB28234622B7
:1038F00005210A20FDF704FB2846FDF7ADFC204614
:10390000FDF7C6FC5448FDF7B5FC03230F217820D2
:1039100052A2FDF75FFA5348FDF7ACFC03235A218E
:103920003C2051A2FDF756FA03234FF491705A211F
:1039300051A2FDF74FFA0323B421232050A2FDF733
:1039400049FA0323B421EB2052A2FDF743FA2046A3
:10395000FDF782FC26063046FDF79AFC032377210B
:10396000B62051A2FDF736FA032377212A204FA271
:10397000FDF730FA4FF4BF740323204677214AA2A3
:10398000FDF728FA03237721F22048A2FDF722FA57
:103990000323D121B62044A2FDF71CFA0323D12131
:1039A0002A2042A2FDF716FA03232046D1213EA287
:1039B000FDF710FA0323D121F2203CA2FDF70AFA09
:1039C0003B48FDF757FC16210323084639A2FDF7B3
:1039D00001FAFEF725FE3648FDF74CFC2846FDF7B8
:1039E0003BFC36484FF4D2774FF4AA74C0780128D4
:1039F0001FD000282CD14FF0FF20FDF749FC2323D6
:103A000038460F211A46FDF77BFA2846FDF740FCA1
:103A10001423204646221A21FDF772FA3046FDF79C
:103A200037FC032326A22046BDE8F0411A21FDF70A
:103A3000D1B92648FDF72CFC232338460F211A461E
:103A4000FDF75EFA3046FDF723FC032320A2EAE7E8
:103A5000BDE8F081D3D3D3FF540100205245564531
:103A6000524200005C010020524F4F4D2053495AF2
:103A7000455B255D3A00000044455054483A00003B
:103A80005052452044454C415920315B6D735D3A9D
:103A9000000000005052452044454C415920325B03
:103AA0006D735D3A000000002B0000002D00000047
:103AB00064010020504F57524F54000078000020FE
:103AC000574C41435A4F4E59000000000000FFFF81
:103AD00057594C41435A4F4E5900000070B50546A6
:103AE0003848FDF7C7FB384E3046FDF713F9B415DB
:103AF0002046FDF7CDFB3046FDF7AEFB03236E21DC
:103B0000502032A2FDF766F93548FDF7B3FB012DD1
:103B10004FF07F453FD02846FDF7BAFB0323BE2177
:103B2000A52030A2FDF756F92046FDF7B1FBFDF7C1
:103B300053FA323881B223236422BE20FDF7E0F924
:103B40002846FDF7A5FB2046FDF786FB2B48FDF731
:103B500091FBFDF741FA273881B20323D22028A236
:103B6000FDF738F9284CE07800281D4817D0FDF7FC
:103B700081FB2648FDF78CFB3046FDF76DFBE078B6
:103B80004FF00303022808D021A2BDE87040A02115
:103B9000C320FDF71FB92046BEE721A2F5E7FDF7D8
:103BA00069FB4FF0FF20FDF773FB3046FDF754FB38
:103BB0000323A021C3201EA2FDF70CF9BDE870402D
:103BC00003F032BE54010020D3D3D3FF4D554C54E3
:103BD000494546454B542047495441524F57590097
:103BE000640100204B4C494B4E494A204142592028
:103BF00055525543484F4D49433A00005C0100205F
:103C00005354415254000000A80000200000FFFF60
:103C1000426C6164206B617274792053442E000001
:103C20004272616B206B6172747920534400000012
:103C30004B61727461205344206F6265636E610052
:103C40002DE9F041674C2046FDF764F8A51528469C
:103C5000FDF71EFB1E2323226E21AA20FDF750F93B
:103C60001E23232218466E21FDF74AF91E234FF426
:103C7000B97023226E21FDF743F91E2323226E2102
:103C8000E620FDF73DF91E233722C8215A20FDF713
:103C900037F92823462205210A20FDF731F920466D
:103CA000FDF7DAFA2846FDF7F3FA4F48FDF7E2FA96
:103CB00003230F2178204DA2FDF78CF84D48FDF726
:103CC000D9FA03235A2144204BA2FDF783F803239A
:103CD0004FF491705A214BA2FDF77CF80323B421D5
:103CE0004B204AA2FDF776F82846FDF7B5FA2E06D6
:103CF0003046FDF7CDFA03237721B62046A2FDF723
:103D000069F8032377212A2044A2FDF763F80323EF
:103D10004FF4BF70772140A2FDF75CF803237721B1
:103D2000F2203EA2FDF756F83D4D687820B10128FB
:103D300005D0022806D00BE003233AA204E00323B7
:103D400039A201E0032339A2D1216420FDF742F812
:103D50003748FDF78FFA16210323084635A2FDF7F1
:103D600039F8FEF7C9FC3248FDF784FA2046FDF722
:103D700073FAA8784FF4D2774FF4AA7501281FD0B0
:103D800000282CD14FF0FF20FDF782FA232338467C
:103D90000F211A46FDF7B4F82046FDF779FA1423EF
:103DA000284646221A21FDF7ABF83046FDF770FA97
:103DB000032322A22846BDE8F0411A21FDF70AB8E4
:103DC0002148FDF765FA232338460F211A46FDF7EF
:103DD00097F83046FDF75CFA03231CA2EAE7BDE83A
:103DE000F0810000D3D3D3FF540100205452454D3D
:103DF0004F4C4F005C010020524154455B487A5DB6
:103E00003A00000044455054483A00004B535A547D
:103E1000414C543A000000002B0000002D0000002F
:103E20009800002053494E00545249005351550008
:103E300064010020504F57524F540000574C4143EB
:103E40005A4F4E59000000000000FFFF57594C41E7
:103E5000435A4F4E5900000070B54B4C2046FCF7BA
:103E600059FFA5152846FDF713FA2846FDF710FA65
:103E70002323322282214FF49670FDF741F8232349
:103E8000322282219620FDF73BF81E2340F23310A8
:103E90002322AA21FDF734F81E232322AA219D20E4
:103EA000FDF72EF8FDF798F8323881B2232364220B
:103EB000BE20FDF725F82823462205210A20FDF71C
:103EC0001FF82046FDF7C8F92846FDF7E1F92F480D
:103ED000FDF7D0F903230F2178202DA2FCF77AFFFC
:103EE0002E48FDF7C7F90323322164202CA2FCF7EA
:103EF00071FF03234121642036A2FCF76BFF0323EB
:103F00005021A52040A2FCF765FF2806FDF7C0F967
:103F10002846FDF7A1F916210323084642A2FCF723
:103F200059FF1A48FDF7A6F903238A2140A24FF44E
:103F30009E70FCF74FFF03238A21A6203DA2FCF7C9
:103F400049FF1648FDF796F90323B5213AA24FF42D
:103F50009C70FCF73FFF0323B521A22037A2FCF79A
:103F600039FF3748FDF786F9FDF736F8273881B273
:103F70000323C52033A2FCF72DFF3548017841709B
:103F8000BDE87040FEF740BCD3D3D3FF54010020FE
:103F9000474C4F534E4F5343000000006401002034
:103FA0005A6D69616E6120676C6F736E6F736369C0
:103FB0002077796A7363696F77656A2077207A6101
:103FC0006B7265736965203025202D2031303025D6
:103FD000000000007A6163686F647A692070727A09
:103FE0007920757A796369752070727A796369735B
:103FF0006B6F7720272B27206920272D27206F72B2
:10400000617A20706F200000776369736E69656361
:1040100069752070727A796369736B7520275A41CC
:1040200053544F53554A2700504F57524F54000096
:104030002B0000002D0000002B3130002D3130000E
:104040005C0100205A4153544F53554A0000000070
:10405000000000202DE9F74F29480026DFF89CA03A
:10406000006800EB40000AEB800080688588C78804
:10407000E81D834620F00700401B00F0FF0939E0EF
:104080004FEADB010298012901FB060009D0022951
:1040900009D0017842788378080440EA0220184366
:1040A00003E0007801E0008840BA002480461AE06E
:1040B0002A1B02EB09010120491E884010EA080F63
:1040C000009800EB04020E48016890B201EB410237
:1040D00002D05AF8222002E00AEB82014A680199D4
:1040E000FCF7DCFE641CAC42E2D30198401C80B2B9
:1040F0000190761CBE42C3D3BDE8FE8FE88C03203E
:10410000500100204FF4006000F03ABE05480068FE
:10411000800402D54FF4204001E04FF4006000F02D
:104120002FBE0000143C0140042000F029BEF0B571
:10413000D1E90125D1E90343D1E905762A43D1F834
:1041400000C044EA0304D1E9073542EA0402496A9F
:1041500042EA0702BCF1010F42EA060208D00468F5
:104160001A432A430A43E30BDB031A4302600BE0C2
:10417000066844682B4326F4F84529430B43036043
:104180006FF30E04224342600020F0BD426942EA10
:10419000410141610020704738B591E81C00C968B1
:1041A0006FF01F051A4305EB441444EA41210A430A
:1041B00000920261002038BD2DE9F043914691E85C
:1041C0001C006FF00F05521E2E0105EB03131A435E
:1041D0000B7E06EB04268C8A2F034FEA054C0D8AD2
:1041E00032434FF07F4808EB0366CB68B9F1010F0B
:1041F00007EB05450CEB04540CD081683F1107EB2D
:1042000003331A432A432243324301F070410A43E5
:10421000826011E08168DFF828C0C7681B03A3F53E
:10422000805323432A4301EA0C0132430B4383604A
:1042300007F070442243C2600020BDE8F083000014
:10424000FF0F0FFF2DE9F74F46480E462DED028B6D
:104250008178002975D182469FED430AD0ED040A8A
:104260000078D4054AF6444380EE201A1502240C47
:1042700058434FF47A71B0FBF1F0B7EE008A4FF477
:10428000304B05F58075C0EE808A1FFA80F9BCEED0
:10429000C11A11EE100A87B250E000BF9FED330A39
:1042A000BAF8040036F9148068EE800A00EE100AAD
:1042B000B8EE400A20EE800A06F0EEF84FEA590008
:1042C0009AF8011001EE100AF0EE480AB8EE411A11
:1042D00030EEC00A41EE000ABCEEE00A10EE100A11
:1042E00080B291B3201A00F53040B0FBFBF20BFB1B
:1042F000120036F9100000BF00EE108A00EE900A9E
:104300009AED051AB8EEC00AF8EEE00A621C01EE5A
:10431000200A71EE080A80EE201ABDEEC10A10EEE6
:10432000100A26F81400BAF8040094B23844401C6D
:10433000B0FBF7F207FB1200AAF80400B4EB550F2C
:10434000ACD3BDEC028BBDE8FE8FFFE7211A0298CB
:1043500001F53041B1FBFBF20BFB121130F91100FA
:10436000CAE700004000002000442C47DB0FC94092
:104370002DE9F041A1F16F04494D4B4E1D2C4B4CE2
:10438000A0F273139FED470AA0F1E70229D221465C
:10439000A0F1AB07222F097803D2142943D2491C7C
:1043A00005E01F38222804D200293CD0491E217084
:1043B0005AE0222B08D2D4ED050A10EE900AA8424A
:1043C00031DA30EE800A09E0222A2CD2D4ED050A37
:1043D00010EE900AB04226DD30EEC00A84ED050AE8
:1043E00042E0A1F1C9071D2F42D25B38362824D202
:1043F0002F480078012816D12E48FCF73BFF4FF0DC
:10440000FF30FCF729FF4FF07F40FCF741FF607859
:1044100058B1012807D10323D121642026A2FCF73B
:10442000D9FC00206070BDE8F0810323D121642015
:1044300022A2FCF7CFFC0120F4E7222B08D2D4ED16
:10444000040A10EE900AA842EDDA30EE800A09E084
:10445000222AE8D2D4ED040A10EE900AB042E2DD3E
:1044600030EEC00A84ED040ABDE8F041FEF746B81C
:104470008A1F272A07D20A2805D9502803D2BDE867
:10448000F041FEF73BBC10392229CCD2B0F5D27FE7
:10449000C9D9B0F5E37FC6D8BDE8F041FEF708BE44
:1044A000A4707D3F0AD7233C0AD7233C400000205C
:1044B000A80000205C010020534F49004E4F4900E6
:1044C000124907289FED120A1DD2DFE800F004060A
:1044D000090C0F181A0008787047D1ED060A07E09A
:1044E000D1ED070A04E0D1ED080A01E0D1ED090A97
:1044F00020EE800ABCEEC00A10EE100A7047487821
:10450000704788787047002070470000080000203E
:104510000000C8420D4938B1012807D0022810D048
:10452000032810D0002070474888704791ED030A97
:10453000DFED070A20EE200ABCEEC00A10EE100ADA
:1045400070470878704748787047000030000020B6
:104550000000C8420E4905289FED0E0A16D2DFE87A
:1045600000F003050811130008787047D1ED040A24
:1045700001E0D1ED050A20EE800ABCEEC00A10EE83
:10458000100A704748787047887870470020704755
:10459000400000200000C8420B499FED0C0A28B1E2
:1045A000012806D002280DD000207047D1ED020A64
:1045B00001E0D1ED030A20EE800ABCEEC00A10EE45
:1045C000100A704708787047580000200000C84261
:1045D0000D4938B1012808D0022811D0032811D084
:1045E0000020704791F90000704791ED030ADFED5C
:1045F000070A20EE200ABCEEC00A10EE100A70472F
:104600004878704788787047680000200000C842EA
:104610000E49052817D2DFE800F003051012140038
:104620000878704791ED070ADFED090A20EE200AAD
:10463000BCEEC00A10EE100A7047487870478878C0
:104640007047C8787047002070470000780000204D
:104650000000C8420D4938B1012807D0022810D007
:10466000032810D0002070470878704791ED030AA6
:10467000DFED070A20EE200ABCEEC00A10EE100A99
:10468000704748787047887870470000980000208D
:104690000000C84201480078704700000000002078
:1046A000F0B50126044600201E2301E05B1E05D361
:1046B00003F01F0706FA07F50D42F7D072B1082A7A
:1046C0000AD0102A05D0182A01D1072B06D30120C1
:1046D000F0BD082BFBD201E0102BF8D22368596102
:1046E00021688B6823F0180313438B60F0BD000032
:1046F00010B5040010D0607F20B90020207720463C
:1047000000F032F821790220607739B1D4E9021241
:104710002046FFF7C5FF48B1012010BD21681148B0
:1047200048612068816821F0180181606079A0B13A
:10473000216820690861012220686369816821F08D
:104740006001194381602068A369816821F08001BC
:10475000194381606277002010BD21684FF0FF305F
:10476000E8E70000B71DC10408B5006806498842A3
:1047700008D10648016841F480510160006800F4E6
:104780008050009008BD00000030024030380240E8
:1047900070B590F83820012A23D0244C012680F8E7
:1047A0003860022300EB011280F83930158CD36990
:1047B00018320A2B43EA054515D0092B13D0137B79
:1047C00045EA0363056899B1E969A1431943E961C1
:1047D000016813680B6151680A291BD0092919D097
:1047E0001DE0022070BDD36803F07F432B43E9E74F
:1047F000696AA14319436962016813688B61516852
:104800000A2901D009290AD1D168026821F07F4123
:10481000916204E0D168026821F07F4111620021B9
:1048200080F8396080F83810084670BD0F0003FF2B
:1048300070B5040004D094F83900002510B106E0EA
:10484000012070BD204684F8385000F01FF8022087
:1048500084F83900D4E900030121026822F44032CF
:104860001A4302602068A368426B22F007021A43D1
:1048700042632068E368026C6FF30D021A4302641E
:10488000E56384F83910002070BD000008B50068A9
:104890000649884208D10648016841F400010160D8
:1048A000006800F40000009008BD000000B0024065
:1048B000303802402DE9F8430026044604270D460F
:1048C00000964FF0030800680068C00726D000F08B
:1048D00059FB81461EE04068009010F0210F10D077
:1048E0000098800603D5E06B40F00200E06300987A
:1048F000C00703D0E06B40F00100E0632168212095
:1049000035E0681C06D000F03DFBA0EB0900A84292
:104910004DD8A5B3206841688907DCD52068C169F6
:10492000406A01F0200100F02000084335D000F07B
:1049300029FB81462DE04068009010F0290F1FD020
:104940000098000703D5E06B40F00400E063009896
:10495000800603D5E06B40F00200E0630098C007DA
:1049600003D0E06B40F00100E063216829208860FB
:1049700084F83970012084F83860BDE8F88316E0C7
:10498000681C06D000F0FEFAA0EB0900A8420ED881
:104990006DB120684168C906CDD522681221012079
:1049A000916084F83900002084F83860E5E7E16B15
:1049B00084F8386041F02001E16384F839800320F5
:1049C000DBE7F8B50446069894F83850012D10D06E
:1049D000012684F83860022584F83950009020467A
:1049E000FDF7BAF92068016841F00101016000207B
:1049F000F8BD0220F8BD70B504002BD094F8350046
:104A0000022826D0206800252122016821F001011A
:104A10000160206805602068456020688560206826
:104A2000C56020680561206842612046FDF7F0F905
:104A300094F85C203F2191408160E56325646564C2
:104A4000A564E5642565656584F83550002084F823
:104A5000345070BD012070BD2DE9F84304464FF07D
:104A60000009644B0820CDF800904FF41652A56D54
:104A700094F85C101B682E68B3FBF2F700FA01F1A2
:104A800031420FD021680A6852070BD50A6822F01C
:104A900004020A6094F85C108840A860606D40F0E1
:104AA0000100606594F85C104FF0010808FA01F00D
:104AB000304208D021684969090604D5A860606DB4
:104AC00040F00200606594F85C1004208840304299
:104AD00008D021680968890704D5A860606D40F096
:104AE0000400606594F85C1010208840304218D0B3
:104AF00021680968090714D5A8602068016849037E
:104B000004D50068000308D5A16C07E00168C90559
:104B100003D4016821F008010160216C09B120462D
:104B2000884794F85C1020208840304231D02168BA
:104B30000968C9062DD5A86094F8350005282068B5
:104B4000016806D0490347D5006800031DD4616C95
:104B50001CE021F0160101602068416921F080010C
:104B60004161206C08B9A06C20B12068016821F077
:104B70000801016094F85C303F229A40AA6084F8F2
:104B8000349084F83580216D1FE0E16B09B1204637
:104B90008847606D00282BD0606DC00714D00520B9
:104BA00084F835002068016821F001010160009857
:104BB000401C0090B84203D820680068C007F6D1B6
:104BC00084F8349084F83580E16C002910D001B06D
:104BD0002046BDE8F04308470168C905D5D40368FD
:104BE00023F01003036084F8349084F83580CCE718
:104BF000BDE8F883340100202DE9F047044600F0B9
:104C0000C1F9054664B14FF0000984F834900221DF
:104C100084F835102068016821F0010101600EE080
:104C20000120BDE8F08700BF00F0ACF9401B05286B
:104C300005D920216165032084F83500F1E720685B
:104C40000068C007F0D1D4E90020D4E90251D4E9CA
:104C5000043C284304F1180519430843116895E8FA
:104C6000E00140EA0C001C4B2843194040EA0600D2
:104C700040EA0700B8F1040F40EA010003D1D4E98B
:104C80000B1319430843106020680126656A4069C8
:104C9000042D20F0070045EA00050CD1D4E90A01F3
:104CA000054341B12046FDF7C7F820B140206065BB
:104CB00084F83560B4E7206845612046FDF7A8F820
:104CC00094F85C303F229A408260C4F8549084F893
:104CD00035600020A5E700003F8010F02DE9F0418D
:104CE000044690F8340000250128A66D0ED094F8F3
:104CF00035C00127002084F83470BCF1010F07D0C3
:104D0000022584F834002846BDE8F0810220FBE744
:104D1000022784F8357060652046FDF7B7F894F8EF
:104D20005C103F208840B0602068016841F01601A7
:104D300001602068416941F080014161206C20B12F
:104D40002068016841F0080101602068016841F0B5
:104D500001010160D7E7000070B5044600F012F9C8
:104D60000546601C02D004480078044400F00AF9AB
:104D7000401BA042FAD370BD2801002070470000FC
:104D8000044910B50A68024202D00860FFF7F6FF36
:104D900010BD0000143C01402DE9F84FDFF89CE104
:104DA00000224FF001084FF0030B4FF00F0A00BF35
:104DB0000B6808FA02F42340A34271D14D68022D1A
:104DC00001D0122D0FD1D5080E69570700EB8505CC
:104DD000A9462D6AFF0E0AFA07FCBE4025EA0C051B
:104DE0002E43C9F820600F79550006680BFA05FCC0
:104DF00007F0030726EA0C06AF40374307604E680A
:104E0000012E05D0022E03D0112E01D0122E0ED16C
:104E10008668CF6826EA0C06AF403743876046684D
:104E20000F79A643C7F30017974037434760C4681C
:104E30008E6824EA0C04AE402643C6604C68E40049
:104E400075D53F4C256845F480452560246822F0DF
:104E50000306950704F4804400943A4C2D0F264431
:104E6000D6F80848DFF8E0C00AFA05F7604524EAFA
:104E7000070401D100272EE0344FB84201D10127A9
:104E800029E0334FB84201D1022724E0314FB84224
:104E900001D103271FE0304FB84202D104271AE0A6
:104EA00045E02E4FB84201D1052714E02C4FB842FF
:104EB00001D106270FE02B4FB84201D107270AE0A6
:104EC000294FB84201D1082705E0284FB84201D147
:104ED000092700E00A27AF4027437546C6F808783F
:104EE0004E68DEF80040F60324EA030400D51C43B4
:104EF000124E2C60361D4D683468AD0324EA03045D
:104F000000D51C430D4F346008374D683C68ED02F6
:104F100024EA030400D51C43084D3C600C354E6860
:104F20002C68B60224EA030400D51C432C60521CF2
:104F3000102AFFF43DAFBDE8F88F0000003C0140AF
:104F400044380240003001400000024000040240AA
:104F500000080240000C0240001002400014024011
:104F600000180240001C02400020024000240240C1
:104F70000069084000D0012070470AB18161704784
:104F80000904FBE701488068704700002801002001
:104F900010B5040014D0242084F841002068016872
:104FA00021F001010160204600F0CAF90020606490
:104FB00084F84100206384F8420084F8400010BD6A
:104FC000012010BD90F841007047000070B504004A
:104FD00004D094F84100002510B106E0012070BD16
:104FE000204684F8405000F0ACF9242084F84100B9
:104FF0002068016821F001010160D4E9001020F06F
:10500000706008612068816821F400418160E06877
:1050100021680128A06806D040F404408860E06858
:10502000022803D006E040F40040F7E721684FF47F
:105030000060486020212068114A436813434360A0
:105040002068C26822F40042C26054F8106B0DCC94
:10505000104340EA0320F06054F81C3CD4E90002FD
:105060001043186054F81C0D026842F001020260FF
:10507000656484F84110256384F84250002070BDB7
:10508000008000022DE9FF4F83B0044690F84100F4
:105090009A469346DDE91087DDF84890202874D1C0
:1050A0005FEA080014D09FB194F8400001286CD04A
:1050B000012084F84000FFF765FF0122064619230E
:1050C0000090D103204602F0F5F8002871D103E0EA
:1050D0004FF4007060646CE00025C4F82480222145
:1050E00084F84110402084F8420065646785534687
:1050F00065635A4604992046CDE9009602F060F8AF
:1051000010B184F8405054E0618DFF2734484FF0CF
:105110008078FF294FF0007A04D927853A46434624
:10512000009005E0618D53462185009094F8282079
:105130002046049902F0A8F800224B46042120469C
:10514000009602F0B7F8A0BB2068616A406A087058
:10515000606A401C6062208D401E81B22185608D96
:10516000401E6085608DD8B1D1B900224B468021A8
:105170002046009602F09EF8D8B9608DFF2805D928
:1051800027853A464346009506E026E0608D534663
:105190002085009594F828202046049902F074F8A0
:1051A000608D0028C8D132464946204602F0AFF84B
:1051B00018B1012007B0BDE8F08F21682020094A0E
:1051C000C86121684B6813404B6084F8410084F843
:1051D0004250002084F84050ECE70220EAE700004B
:1051E0000024008000E800FE2DE9FF4F83B0044654
:1051F00090F841009A469346DDE91087DDF8489023
:10520000202871D15FEA080014D09FB194F84000C3
:10521000012869D0012084F84000FFF7B3FE012285
:10522000064619230090D103204602F043F80028D7
:105230006ED103E04FF40070606469E00025C4F8AB
:105240002480212184F84110402084F842006564C4
:105250006785534665635A4604992046CDE9009612
:1052600001F0E0FF10B184F8405051E0608DFF275D
:105270004FF08078FF284FF0007A04D927853A460E
:105280004346009505E0608D53462085009594F8CF
:1052900028202046049901F0F7FF3246494620466F
:1052A00002F05CF8A0BB606A216800788862606ADE
:1052B000401C6062608D401E6085208D401E80B263
:1052C0002085618DD9B1D0B900224B46802120467E
:1052D000009601F0EFFFD8B9608DFF2805D927852A
:1052E0003A464346009506E026E0608D5346208509
:1052F000009594F828202046049901F0C5FF608DA0
:105300000028CAD132464946204602F000F818B1BA
:10531000012007B0BDE8F08F20682021074AC16155
:10532000206843681340436084F8411084F8425079
:10533000002084F84050ECE70220EAE700E800FE95
:105340007047704702488168027811448160704755
:1053500028010020032010B500F0A2F9002000F081
:1053600005F800F035F9002010BD000070B50D4DB6
:1053700004464FF47A700C4A29781268B0FBF1F0B9
:10538000B2FBF0F001F061FD48B9102C07D2002209
:105390002146501E00F064F900206C6070BD0120B1
:1053A00070BD000028010020340100202DE9F041EB
:1053B000044690F8A00016460F4601281DD001258E
:1053C00084F8A050022084F8A10006EB860000EBD0
:1053D000C600342204EB80003830FAF742FF324630
:1053E0003946204602F038F9216800204D6284F8E1
:1053F000A15084F8A000BDE8F0810220FBE77047CF
:1054000090F8A10070472DE9F0410446006800279C
:105410004FF00408856B466B690715D5710713D5E6
:10542000426B22F0040242632068C0F83C80D4F84A
:10543000A40040F00100C4F8A40084F8A180204634
:1054400084F8A070FFF7DBFFA80716D5B00714D5C6
:1054500020680222436B23F0020343632068C26387
:10546000D4F8A40040F00200C4F8A40084F8A1809D
:10547000204684F8A070FFF7C2FF05EA06004FF04F
:105480000108C0070ED021684A6B22F001024A636E
:105490002168C1F83C8084F8A180204684F8A0707F
:1054A00000F092F8280710D530070ED520680822A2
:1054B000436B23F0080343632068C26384F8A18030
:1054C000204684F8A07000F081F8BDE8F08100006B
:1054D0002DE9F041040004D094F8A100002518B192
:1054E00007E00120BDE8F081204684F8A05000F0DC
:1054F0006CF83448022184F8A110012202CC8B6997
:1055000023F070438B6194E84A001943E3681E431B
:1055100054F8043D31439E693143996121688B6899
:1055200003408B602168A68AA7698B683B4343EAE6
:1055300006438B602168CB680340CB602168A38B56
:10554000276ACE683E4346EA0346CE6021680B696F
:1055500003400B612368A68CA76A1969394341EAA5
:105560000641196121684B6903404B612068A38D96
:10557000266B4169314341EA03414161236894F854
:10558000351094F83600DE6A000406F07F46DE62CD
:10559000236840EA012094F83460D96A314301431A
:1055A000D9622068416B41F006014163206881693E
:1055B00041F001018161C4F8A45084F8A1200020C9
:1055C00090E7000000F800F0704770477047000057
:1055D0001B4808B5016841F080510160006800F087
:1055E000805000901648001D016841F48041016020
:1055F00000680022032100F4804000906FF00B004F
:1056000000F02EF8002203216FF00A0000F028F8C5
:10561000002203216FF0090000F022F8002203218C
:10562000501F00F01DF803210022C81F00F018F8D9
:1056300000220321BDE80840481F00F011B8000017
:1056400040380240002809DB410900F01F028900B0
:10565000012001F1E0219040C1F8000170470000F5
:105660000E4BF0B41B680D46C3F30223C3F10706CB
:10567000042E00D90426191D072901D2002300E0B9
:10568000DB1E012404FA06F19C40491E2940641ED9
:10569000994014402143F0BC04F090BA0CED00E0B6
:1056A000064900F0070210B54FF6FF040868044BE6
:1056B000204040EA02201843086010BD0CED00E0D5
:1056C0000000FA051848F8B5016841F08051016002
:1056D0000068164C00F080500090206840F4803044
:1056E0002060FFF74FFC4FF47A76054605E000BFD7
:1056F000FFF748FC401BB0420FD86068C003F7D5E5
:10570000206840F400302060FFF73CFC054606E0CE
:10571000FFF738FC401BB04201D90320F8BD606898
:105720008003F5D50020F8BD4038024000700040ED
:105730004B4B30B549490160191D1C680A1DC4F363
:10574000881444601C68C4F3014404611C68C4F3F9
:105750000364C4601B68C3F3027383600B68C3F304
:10576000881343610B68C3F3014303623C4B0C682D
:105770007C3BC4F3036484610968C1F30271C161B5
:105780001468111D04F01F0444621468C4F3042457
:1057900084621468C4F30144C462146804F44014BD
:1057A000C463146804F4400404641C6804F4000432
:1057B00044630C6804F4403444660C6804F44024E8
:1057C00084660C6804F44014C4660C6804F4400455
:1057D00004670C6804F0030444640C6804F00C04CF
:1057E00084640C6804F03004C4640C6804F0C004E1
:1057F00004650C6804F4407444650C6804F4406467
:1058000084650C68164D04F44054C4650C68143D5E
:1058100004F4404404660C6804F0407444670C6867
:1058200004F0806484670C6804F00064C46709684D
:1058300001F08051C0F8801019682B6801F4F8114C
:1058400003F440730B4303631168C90101D40021C1
:1058500001E04FF08071816330BD0000F1FFFF0077
:1058600084380240F0B5444BB0F5002F404D4FF462
:10587000801E404EA3F10404404F03F1040240494E
:1058800084464FF000000DD0F44516D1D2F800C088
:105890001CF4400C3CD0BCF5800F4ED0BCF5000F82
:1058A0000BD109E0D2F800C01CF4401C06D0F4452E
:1058B00019D0BCF5001F00D13846F0BD0868400281
:1058C000086800F03F0002D4B5FBF0F001E0B6FB41
:1058D000F0F019681B681468C1F30362C3F38813FE
:1058E000C4F304213DE008684002086800F03F006E
:1058F00002D4B5FBF0F001E0B6FBF0F021682368BC
:105900001468C1F3036204F01F01C3F3881328E095
:1059100008684002086800F03F0002D4B5FBF0F0D0
:1059200001E0B6FBF0F01C681B681168C4F3036269
:10593000C3F38813C1F3042113E008684002086828
:1059400000F03F0002D4B5FBF0F001E0B6FBF0F050
:10595000256823681168C5F3036201F01F01C3F3D2
:1059600088134343491CB3FBF2F0B0FBF1F0F0BDE8
:105970000024F40040787D01883802400080BB009C
:10598000043802402DE9F84F04460078DFF82494EB
:105990004FF000063746C0070ED0D9F8001021F4AA
:1059A0000001C9F80010D9F80010626B1143C9F862
:1059B0000010606B00B90126FE4D2068843500039D
:1059C0000ED5E16B286820F4401008432860E06B96
:1059D000B0F5801F01D010B102E0012600E00127E0
:1059E00020684FF4800BC0020CD5216C286820F48D
:1059F000400008432860206C584501D1012601E091
:105A000000B901272068C10100D50126800666D5AE
:105A1000E8483830016841F0805101600068DFF8E3
:105A200098A300F080500090DAF8001041F48071E3
:105A3000CAF80010FFF7A6FA804605E0FFF7A2FAC1
:105A4000A0EB080064287DD8DAF80000C005F5D581
:105A5000DFF8608308F16808D8F8000010F440709F
:105A60002AD0218E01F44071814225D0D8F800104F
:105A7000D8F8002021F4407142F48032C8F80020A8
:105A8000D8F8002022F48032C8F80020C8F80010AE
:105A9000D8F80000C0070FD0FFF774FA824607E07D
:105AA000FFF770FAA0EB0A0141F288308142CAD8B0
:105AB000D8F800008007F3D5206BC0F3012103293B
:105AC0007ED0D9F8001021F4F811C9F80010228E08
:105AD000D8F80010C2F30B021143C8F80010207868
