:020000040800F2
:1000000088940320DD010008E17E000813710008D8
:10001000717C000895190008EB97000800000000AB
:1000200000000000000000000000000057900008E1
:10003000C91E000800000000F97F00089193000825
:10004000F7010008F7010008F7010008F7010008B0
:10005000F7010008F70100083D410008F70100081A
:1000600061410008F7010008F7010008F7010008E6
:10007000F7010008F7010008F7010008F701000880
:10008000F7010008F7010008F7010008F701000870
:10009000F7010008F7010008F7010008F701000860
:1000A000F701000871940008F7010008F701000843
:1000B000F7010008F7010008F7010008F701000840
:1000C000F7010008F7010008F7010008F701000830
:1000D000F7010008F7010008F7010008F701000820
:1000E00045410008F7010008F7010008F701000882
:1000F000F7010008F7010008F7010008F701000800
:10010000F7010008F7010008F7010008F7010008EF
:10011000F7010008F7010008F7010008F7010008DF
:10012000011E0008F7010008F7010008F7010008A8
:100130000D1E0008F7010008F7010008F70100088C
:10014000F7010008F7010008F7010008F7010008AF
:10015000F7010008F7010008191E0008F701000860
:10016000F7010008F7010008F7010008F70100088F
:10017000F7010008F7010008F7010008000000007F
:10018000F7010008F7010008F7010008F70100086F
:10019000F7010008F7010008F7010008F70100085F
:1001A0004D760008F7010008F7010008F701000884
:1001B000F7010008F7010008F7010008F70100083F
:1001C000F7010008F7010008DFF80CD000F0F0FAA2
:1001D0000048004785A5000888940320064880470A
:1001E00006480047FEE7FEE7FEE7FEE7FEE7FEE71C
:1001F000FEE7FEE7FEE7FEE71D940008C9010008E0
:100200002DE9F05F0546002092469B46884606464B
:10021000814640241BE0284641464746224600F0DE
:1002200083F953465A46C01A914110D311461846D5
:10023000224600F06AF92D1A67EB01084F46224664
:100240000120002100F061F917EB00094E41201E4A
:10025000A4F10104DFDC484631462A464346BDE8A6
:10026000F09F40EA01039B0703D009E008C9121F71
:1002700008C0042AFAD203E011F8013B00F8013B60
:10028000521EF9D27047D2B201E000F8012B491E8C
:10029000FBD270470022F6E710B513460A46044623
:1002A0001946FFF7F0FF204610BD2DE9FE4F81EA09
:1002B000030404F0004421F0004100944FF0000BCF
:1002C00023F0004350EA01045ED052EA03045BD0FD
:1002D000C3F30A54C1F30A552C44A4F2F334019435
:1002E000A0FB0254C1F3130141F48011C3F31303C3
:1002F00043F4801301FB024400FB034E840A970A77
:1003000044EA815447EA8357A4FB076802958D0AA3
:1003100005FB07854FEA932C04FB0C542705029D2F
:100320004FEA065847EA1637B5EB08056EEB070C9F
:10033000870E920E47EA811742EA8312A7FB020159
:10034000B6EB0B0164EB00042B0D43EA0C335E1893
:1003500044EB1C50DA465146E7FB0201C5F3130497
:100360004FEA0B3343EA14534FEA0432019C43EA49
:100370000603A4F10C040294009CCDE900B400F043
:10038000F2F803B0BDE8F08F00200146F9E72DE94F
:10039000F04D81EA030404F0004B21F000451446BF
:1003A0004FF0000A23F0004150EA050220D054EA41
:1003B00001021DD0C5F30A570246C5F31303C1F36A
:1003C0001300C1F30A5640F4801543F48013A7EBE1
:1003D0000608101BD64608F2FD3873EB050002D361
:1003E00008F1010801E092185B41B8F1000F03DA4F
:1003F00000200146BDE8F08D00204FF48011064634
:1004000084460EE0171B73EB050705D3121B63EB45
:10041000050306434CEA010C49084FEA30009218E4
:100420005B4150EA0107EDD152EA030012D082EAA3
:10043000040083EA0501084305D0101BAB4106D236
:100440000122002306E000224FF0004302E06FF09B
:10045000010253101AEB06004CEB085110EB0A0096
:1004600041EB0B01BDE8F04D00F06EB80EB540F267
:10047000334102910021CDE900110A460B4600F0FC
:1004800072F803B000BDC1F30A5210B5C1F31301F5
:1004900040F2FF3341F480119A4201DA002010BD8E
:1004A00040F233439A42A2F2334203DC524200F05C
:1004B0003BF810BD904010BD00F0004230F000400D
:1004C0000AD0C10D01F56071C0F3160042EA015176
:1004D000C20840071143704700200146704730B5FD
:1004E0000B46014600202022012409E021FA02F5F2
:1004F0009D4205D303FA02F5491B04FA02F528448C
:10050000151EA2F10102F1DC30BD202A04DB203AE5
:1005100000FA02F1002070479140C2F1200320FA56
:1005200003F3194390407047202A04DB203A21FA54
:1005300002F00021704721FA02F3D040C2F12002FC
:10054000914008431946704710B5141E73F100041A
:1005500008DA401C41F1000192185B411A4301D1B5
:1005600020F0010010BD2DE9F04D92469B4611B1DF
:10057000B1FA81F202E0B0FA80F220329046FFF741
:10058000C4FF04460F4640EA0A0041EA0B01534605
:100590005A46084313D0114653EA010019D0C8F156
:1005A00040025046FFF7C0FF05460E4650465946EA
:1005B0004246FFF7AAFF084305D0012004E0204689
:1005C0003946BDE8F08D0020054346EAE0762C432D
:1005D00037430A986305E40AA0EB08000022FD0AED
:1005E00044EA47540A3002D500200146E9E70105F4
:1005F00010196941DDE9084500196941BDE8F04D70
:10060000A2E72DE9FE4F804681EA0300C00F0C46A9
:10061000009021F0004123F00045B8EB0200A94111
:1006200005D24046214690461C460B46024623F022
:100630000040104347D0270DC7F30A00C3F30A5107
:100640000290401A019040286BDAC3F3130040F483
:10065000801B0098924620B10023D2EB030A63EB83
:100660000B0B01985946C0F140025046FFF74DFF71
:1006700006460D4650465946019A00F0ABF810EB7D
:1006800008006141002487EA115284EAE7731A43A3
:1006900040D0009A62B3019A012A4FEA075215DC52
:1006A000001B61EB02014FF0004202EA0752CDE964
:1006B0000042001C41F5801132462B46FFF753FFE4
:1006C00003B0BDE8F08F40462146F9E7001B61EB1F
:1006D0000201001C41F5801300185B412018A2F5AF
:1006E000001747EB030140EAD570B6196D4111E0E0
:1006F0006D084FEA360645EAC0754FEA0752001BFF
:1007000061EB0201001C41F5801149084FEA3000FD
:100710000019514132462B4603B0BDE8F04FFFF7B8
:1007200013BF0098012240000023D0EB020263EBCC
:10073000E073009821464FEAE074B8EB000061EBEB
:100740000401E9E783F000435BE781F0004158E7EB
:10075000C1F30A52C1F3130140F2FF3341F4801197
:100760009A4202DA00200146704740F233439A422F
:10077000A2F2334202DC5242FFF7D6BEFFF7C5BEFB
:1007800030B5041E71F1000404DB4FF00044404218
:1007900064EB0101141E73F1000405DB1C464FF0ED
:1007A0000043524263EB0403994208BF904230BDBC
:1007B000064C074D06E0E06840F0010394E80700AE
:1007C00098471034AC42F6D3FFF702FDF0E300087F
:1007D00010E40008202A06DBCB17203A41FA02F089
:1007E00043EAE07306E041FA02F3D040C2F120028E
:1007F000914008431946704770B58C1810F8015B9A
:1008000015F0070301D110F8013B2A1106D110F8A9
:10081000012B03E010F8016B01F8016B5B1EF9D1AD
:100820002B0705D40023521E0DD401F8013BFAE733
:1008300010F8013BCB1A921C03E013F8015B01F89E
:10084000015B521EF9D5A142D8D3002070BD70477C
:1008500004F07EBA014806F0B3BD0000F88803201A
:100860003EB50224002202ABADF80820CDE90034E9
:100870000A4623460146064806F05CFEBDF808001D
:100880000102000AC1F3072140EA01203EBD000039
:10089000F888032037B582B00A46022404ABBDF8BD
:1008A0001010CDE9003423460D02090A2D0A41EA51
:1008B0000521ADF810100146024806F050FE05B0C3
:1008C00030BD0000F8880320124810B5124C407962
:1008D00008280BD002F0FCF9184810A109F026F8FE
:1008E00016480A21224602F0CDF90EE0144800F025
:1008F000CDFC204600F0D8FC124800F0B9FC0323E0
:10090000A0219B2005A200F07FFABDE81040022044
:1009100000F0D6BC980000200000FFFF424C41448C
:1009200020444D4121205A5245534554554A2055A3
:10093000525A41445A454E4945000000D0BC00205F
:1009400058010020D3D3D3FF01490120887170479B
:10095000980000202DE9F0410646384886B001682D
:1009600041F4000101600068344D00F4000005907E
:10097000143D286840F040002860286800240227C1
:1009800000F040004FF48068CDF80080CDE901749C
:100990000A210397CDE904102948694604F0F8F9C3
:1009A000286840F08000286028686946CDE9024741
:1009B00000F080000590B803CDE90004214804F060
:1009C000E7F9286840F480002860286800F4800077
:1009D00005901D48316881421DD11C49C2144FF059
:1009E000030C970143144C6085158C60C1E90348E2
:1009F000C1E90874C1E90AC415480C6341F8140B35
:100A0000124881E82C00143931678E6303F0EFFF40
:100A10000E4804F0EDF800220F21462004F01CFEE1
:100A2000462004F00BFE00220F21282004F014FEC3
:100A3000282004F003FE06B0BDE8F08144380240EF
:100A400000180240001C0240245C0140C48D0320B9
:100A5000B86402402DE9F041B0F5407F17460E46DC
:100A60004FF001053BD107F0C3FD07F037FE1D48ED
:100A70000022394600F04EF81A491B480860084623
:100A800005F09AFC18B917480021FFF763FF1549D4
:100A90001548843920380860084605F08DFC20B9D7
:100AA00010480021843800F061F801213A46002006
:100AB00007F0ACFD0D4C3420A1688847A0F5094132
:100AC00094390CD1E16A3420884709480025462230
:100AD0003B4646F44071446034202468A0472846D1
:100AE000BDE8F081E08C0320245C0140A8010020D7
:100AF000700100208AB20146024810B505F056FD8B
:100B0000002010BDE08C032001490220887170474D
:100B10009800002010B5A2B00C46684604F004FE10
:100B2000A4F52C5111394FF480104FF4800115D0E9
:100B3000A4F5AC42223A11D0A4F52C42443A0DD08F
:100B4000072301244FF4AC72109109940393CDE96B
:100B50000002684604F012FF22B010BD022340F2EA
:100B6000AD121324F0E77047704700002DE9F04FF5
:100B70000646474887B0016841F4000101600068FB
:100B8000434F00F400000590143F386840F4807033
:100B90003860386800F480700590386840F48070E0
:100BA0003860386800F480700590386840F48070D0
:100BB000386038684FF002080325DFF8D8B000F439
:100BC00080704FF00A098021CDE9001800246946A1
:100BD000CDE90490CDE90245584604F0D9F820212A
:100BE000584602AACDE90018694682E8300204F0AE
:100BF000CFF802AA4FF0400A6946584682E8300210
:100C0000CDE900A804F0C4F810226946CDE9002817
:100C100002AA584682E8300204F0BAF8386840F474
:100C200080003860386800F4800005901A48316808
:100C3000814221D1194903156A06C7144FF48078FF
:100C40004A600420C1F808A0DA01C1E90343C1F8F1
:100C50001C804FF4005CC1E90A54114B0C630B601B
:100C6000C1E90820C1E9057CF16608468E6303F0FE
:100C7000BEFE0A4803F0BCFF00220E213C2004F017
:100C8000EBFC3C2004F0DAFC07B0BDE8F08F00007C
:100C90004438024000200240045C0140648D03207F
:100CA0007064024070B505460C488AB20C4629466D
:100CB0004068C3683420984708B1012070BDB4F57E
:100CC000003F01D2600801E04FF6FF70294682B272
:100CD000034805F0C9FC002070BD00007001002031
:100CE0005C8C032010B5084C21680A6822F480321D
:100CF0000A602066204605F063FB2068016841F425
:100D00008031016010BD00005C8C0320054910B5E6
:100D100049684A6A014634209047002800D00120E3
:100D200010BD000070010020054910B549680A6A2D
:100D3000014634209047002800D0012010BD00005B
:100D400070010020704700001CB5044600F050F907
:100D5000034600F03DF902460020CDE900040648B4
:100D6000064C006800EB800101EBC00104EB81013F
:100D7000C96D06F02BFC1CBD44010020148A032021
:100D80000648C02330B4082405220460610343618F
:100D9000C261C16230BC04F0F1BD00009089032043
:100DA00030B40A4C0A4B246804EB440403EB84037C
:100DB0009B689C881D68E41DDB88E408203A14FBCE
:100DC00002F203FB025230BC03F060B94401002080
:100DD000FC8A0320094810B50068816941F00101CF
:100DE000816101220648110304F0C3F8012205487D
:100DF000BDE81040082104F0BCB80000148A0320AC
:100E000000200240002802402DE9F0470027044658
:100E10001546894610463A4600E0521C10F8011B60
:100E20000029FAD100F0D4F8DFF89CC0012B274E3E
:100E3000DCF8001001EB410106EB8101896889882B
:100E4000B0FBF1F002D0022B09D104E0801A484334
:100E500004EB500002E0801A4843001B84B247F6BE
:100E6000FF71601E884200D30124E04600F0B0F814
:100E70000146D8F8000000EB400006EB80008068D7
:100E8000808807FB101189B2814213D3012012E040
:100E900049462046FFF784FFD8F800007F1CBFB208
:100EA0006D1C00EB400006EB8000806880882044C9
:100EB00084B2DBE700202A780AB1012100E000219A
:100EC0000842E5D1BDE8F08744010020FC8A0320F8
:100ED000164B70B506460D461868154C00EB8001A0
:100EE00001EBC00004EB8000806C02280ED000F003
:100EF0006FF8196805FB006001EB810303EBC1018A
:100F000004EB8101C96D41F8202070BD00F060F84C
:100F1000196805FB006001EB810303EBC10104EBE1
:100F20008101C96D21F8102070BD0000440100202E
:100F3000148A03202DE9FC419846234B0746234E93
:100F400015460C46186800EB400056F8200000F0EB
:100F5000ABF91868A6F1E80200EB800101EBC000D4
:100F600002EB8000806C02281FD000F031F8196875
:100F700000FB047001EB810404EBC10102EB810171
:100F8000C96D01EB800400BF00F022F8411B186816
:100F9000434600EB400256F82220CDE900122A46D3
:100FA000214606F013FBBDE8FC8100F011F819683A
:100FB00000FB047001EB810404EBC10102EB810131
:100FC000C96D01EB4004DFE744010020FC8A0320E7
:100FD0000548006800EB800101EBC000034901EB0C
:100FE0008000006E7047000044010020148A032036
:100FF0000548006800EB800101EBC000034901EBEC
:101000008000406E7047000044010020148A0320D5
:101010002DE9F041224C2820092140F21B1604F151
:10102000140840F21525352240F21D1C0B2340F216
:10103000352788E8EF1000212046FFF7A1FE4FF486
:10104000F07222664FF488716166002084F83400E3
:1010500084F8350084F836006060A060114AE060D2
:1010600022602061204604F0C7F918B9002120460B
:1010700000F05CF80A4804F027FA01220A4811033C
:1010800003F077FF09480122082103F072FF00F006
:1010900023F9074800F0FAF80020BDE8F0810000CD
:1010A000148A03200068014000200240002802400A
:1010B0004801002030B58DB00A4600230446009355
:1010C000FFF786FFCDE90103FFF792FFFF210390B1
:1010D00007208DF8303009924FF4C0658DF831301B
:1010E000CDE9043106938DF83230CDE90750FFF792
:1010F0006FFF0A90FFF77CFF0B9022460948694674
:1011000004F050F9074904EB44004FF0FF34E83194
:1011100001EB800223065460034C946041F82030B8
:101120000DB030BD148A0320480100204748F0B5B7
:10113000016887B041F080610160006800F0806064
:10114000059042481438016841F4000101600168CB
:1011500001F400010591016841F01001016001688E
:1011600001F010010591016841F040010160016842
:1011700001F040010591016841F48071016001684E
:1011800001F480710591016841F40071016001680A
:1011900001F400710591016841F48061016001680A
:1011A00001F480610591016841F48071016001687A
:1011B00001F480710591016841F48061016000686B
:1011C00002240E2500F4806005901020CDE9000473
:1011D00002A8002180E832001D48694603F0D8FDCE
:1011E000E6026946092004901A48CDE9006403F03C
:1011F000CFFD194F4FF46640CDE9000469463846EB
:10120000049503F0C5FD4EF6FF706946CDE9000474
:101210001248049503F0BCFD0495F720104D694673
:10122000CDE90004284603F0B3FD012469463846A1
:10123000CDE9006403F0ACFD08206946CDE9000467
:10124000284603F0A5FD07B0F0BD00004438024079
:10125000001002400018024000200240002402401A
:101260000028024001490860704700004401002046
:101270000449054A096801EB410102EB810148601C
:101280007047000044010020FC8A03200449054AFD
:10129000096801EB410102EB8101886070470000A1
:1012A00044010020FC8A03200349044A096801EB39
:1012B000410142F82100704744010020FC8A0320CC
:1012C0000349044A31F8101052F8200003F04CBED4
:1012D000D8B80008380100201B4802222DE9F0414F
:1012E00000F13401174E07230660042581E82C0025
:1012F000CB6000240A61D7014A6110238A61910200
:1013000044604026C0E902454A00C0E90741C0E9FF
:1013100009241030002180E8C800103800F05AF885
:1013200009490948343105F0FDF9084D10B1012093
:10133000287000E02C7040F2036000F009F8287873
:10134000BDE8F081400100A0D48B032060010020A3
:101350002DE9F8431E4C102700254FF6FF78012693
:10136000009521468146C4E90067C4E90265A1F100
:101370005000424605F00AFA02202146C4E900075F
:10138000C4E90265A1F15000424605F0FFF90321CE
:101390004246C4E9001708202146C4E90205A1F12C
:1013A000500005F0F3F94FF4087000900421424614
:1013B000C4E90260C4E900172146A1F1500005F01C
:1013C000E5F9A4F150004946BDE8F84305F0CCB971
:1013D000248C0320F0B504464F4887B0016841F0E3
:1013E0000101016000684C4900F0010005900839D6
:1013F000086840F480000860086800F480000590E8
:10140000086840F004000860086800F004000590D7
:10141000086840F008000860086800F008000590BF
:10142000086840F010000860086800F0100005909F
:10143000086840F020000860086800F0200005906F
:10144000086840F040000860086800F0400005901F
:10145000086840F080000860086801210C2200F054
:10146000800005900220CDE9010108230093CDE919
:1014700003022A48694603F08BFC4CF2037000908B
:101480002748694603F084FC4FF683700090254896
:10149000694603F07DFC4FF63F0000902248694604
:1014A00003F076FC48F2331000902048694603F0C0
:1014B0006FFC282000901E48694603F069FC1D4916
:1014C0004FF4007500224FF0800CEE006F004A6070
:1014D0006801C1E902C5C1E904761831164EC3009E
:1014E000032581E80D00C1E903254A618A6141F8BD
:1014F000186D21630F488C6303F079FA0D4803F0EF
:1015000077FB00220F21382004F0A6F8382004F0E1
:1015100095F807B0F0BD00003838024000080240DE
:10152000000C02400010024000140240001802406B
:10153000001C0240148B0320106402400B4800B5CD
:1015400087B0016841F004010160006800210122B8
:1015500000F00400059003234FF400508DE80F00C5
:101560000348694603F014FC07B000BD3038024060
:1015700000080240044810B505F059FA042801D0CB
:10158000012010BD002010BD04900320144800214C
:10159000124A10B50C46C0E900218160C1600161AA
:1015A00041618161FFF7CAFF00F01CF8012801D0FA
:1015B000022010BD0A48002100F026F8084805F076
:1015C0004CFA08B1012406E005484FF4006105F02B
:1015D000F5F80028F6D1204610BD0000002C01408F
:1015E0000490032008B501208DF800004103054850
:1015F00003F0BAFC012802D100208DF800009DF80C
:10160000000008BD000802402DE9F04F04464C4898
:1016100087B0016841F400610160006800F4006077
:10162000059047481438016841F480010160016861
:1016300001F480010591016841F004010160016835
:1016400001F004010591016841F0080101600068A2
:1016500002234FF4F85100F0080005900C200122FD
:1016600002920325CDE90013CDE9035035486946C0
:1016700003F08EFB344804266946009603F088FB8D
:1016800000220E21312003F0E7FF312003F0D6FFC6
:101690002E48002732024FF000699100C0E90197FF
:1016A000C7604FF4403BC0E90421890081612021DB
:1016B0004662C0E9071B26494FF4000840F8281B82
:1016C0004FF4001A80E820052838E06384631F483F
:1016D00003F08DF91D4803F08BFA1C4840212022AD
:1016E0006030C0E902170901016189004161C0F859
:1016F00020B08F0016494831C0E90019C0E90672D0
:10170000C0E90965C0E90B8A2064846303F06FF9BE
:101710000E48603003F06CFA00220F213B2003F0EA
:101720009BFF3B2003F08AFF00220F21452003F09E
:1017300093FF452003F082FF07B0BDE8F08F000063
:101740004438024000080240000C0240848E03200E
:101750005864024008B5009313460A460146034800
:1017600005F0C6F9002800D0012008BD0490032030
:1017700008B5009313460A460146034805F090FA5F
:10178000002800D0012008BD049003202DE9F04F6F
:1017900095B0584D4FF0000B06465C46CDF844B06E
:1017A000CDF848B0CDF84CB0A86801696878884792
:1017B000002830707ED000240DF1100A0DF1380998
:1017C00008AF8BE0A8680DF12C080AEB440208EB87
:1017D00044014369687898472878012807D138F888
:1017E000142029F814203AF8141027F8141081074F
:1017F00005D538F81410C1F5805129F814104107A7
:1018000005D53AF81410C1F5805127F814100007D7
:1018100007D538F8140027F814003AF8141029F8FE
:101820001410DFF8D48039F8140058F824108842D6
:1018300001D9421A00E00A1A2F491FFA82FC37F830
:101840001420143151F824309A4201D9D31A00E0FF
:101850009B1A9BB26344052B03D948F8240041F836
:10186000242095F801C0BCF1700F26D058F8242030
:1018700006EB44006B885A43120B428051F8241047
:10188000AA885143090B818113A8214612AB00900D
:1018900011AA604608F07CFD3019119981751299E2
:1018A00080F82010139979B101290FD0022910D0A6
:1018B000032900E01AE010D10DE006EB4401488056
:1018C00037F814008881DFE7012100E00221C176AA
:1018D00003E00321FBE780F81BB0641C3078A042D2
:1018E0003FF670AF304600F009F8044615B02046C8
:1018F000BDE8F08F64010020348C0320F8B5044665
:1019000014480026694600963546407808F030FDB8
:101910000098182816D005DC68B110280DD01428BE
:1019200006D10CE01C280FD040280FD049280FD03A
:1019300001252846F8BDA662FBE7012000E0022051
:10194000A062F6E70320FBE70420F9E70520F7E7AC
:101950000620F5E76401002070B50C4C00260C4D04
:1019600060807020A1802968884769687020884756
:10197000512802D00326304670BDA56070206070EB
:1019800008212170E9688847F5E70000640100201C
:1019900078010020FEE710B5FEF77CFF002010BDA7
:1019A0002DE9F74F6A480E462DED048B82B0817801
:1019B00000297CD181469FED670AD0ED070A90EDA2
:1019C000061A0078D40580EE202A4AF64443150210
:1019D000240C58434FF47A71B0FBF1F0B7EE008A53
:1019E00005F58075C0EE011A80B20190BCEEC22AE6
:1019F00012EE101A8FB2C1EE008AFCEEE11A11EE5F
:101A0000900A1FFA80F880EE809A90E036F9140070
:101A1000DFED519A0090B9F8040068EEA90A00EED3
:101A2000100AB8EE400A20EE800A08F001FC019886
:101A300038EE401AB0EE480A4FEA500A00EE90AA7B
:101A4000F8EE600A00EE810A69EE290ABCEEC00ACF
:101A500010EE100A1FFA80FBB9F8060000EE100A1B
:101A6000B8EE400A20EE800A08F0E2FB00EE90AAF1
:101A700038EE400AB0EE481AF8EE600A99F8010014
:101A8000A4EB0B024FF43041002800EE801A02F55F
:101A90003042B2FBF1F3BCEEC10A10EE100A80B284
:101AA000A4EB000000F53040B0FBF1FC00E042E0A8
:101AB00001FB132244D001FB1C0036F9122036F939
:101AC00010104846009B01EE902A00EE903A99EDE6
:101AD000081AB8EEE12AF8EEE00A00EE101AD9ED85
:101AE000091A621C41EE020AB8EEC00A31EE081A69
:101AF00041EE800A31EE210A80EE801ABDEEC10A65
:101B000010EE101A26F8141094B2828802EB080125
:101B1000491CB1FBF8F308FB13118180C1883944DB
:101B2000491CB1FBF7F207FB1211A9F80610B4EB40
:101B3000550FFFF46BAF02B0BDEC048BBDE8FE8F18
:101B400001FB1C01069830F9122030F91110B8E79A
:101B50000800002000442C47DB0FC9402DE9F0416C
:101B6000A1F16002674F684C1D2A9FED650AA0F144
:101B7000AB06A0F11F05A0F27313A0F1E70230D26B
:101B80006249222E08D2D4ED060A10EE900A88424D
:101B90007EDA30EE800A09E0222D0AD2D4ED060A60
:101BA00010EE900AB84276DD30EEC00A84ED060AE7
:101BB00089E0222B08D2D4ED070A10EE900A884261
:101BC00069DA30EE800A09E0222A64D2D4ED070AED
:101BD00010EE900AB8425EDD30EEC00A84ED070ACE
:101BE00071E0A1F1A10CBCF11D0F30D24848222EAA
:101BF00008D2D4ED080A10EE901A81424BDA30EE8A
:101C0000800A09E0222D0AD2D4ED080A10EE900ACB
:101C1000B84240DD30EEC00A84ED080A53E0222BC2
:101C200008D2D4ED090A10EE901A814233DA30EE70
:101C3000800A09E0222A2ED2D4ED090A10EE900A79
:101C4000B84228DD30EEC00A84ED090A3BE0A1F17C
:101C5000DD051D2D3BD25B38362826D22D48007875
:101C6000012818D12C48FFF711FB4FF0FF30FFF788
:101C7000FFFA4FF07F40FFF717FB607868B101284B
:101C800009D10323E521642024A2FFF7BDF800E079
:101C900001E000206070BDE8F0810323E5216420AD
:101CA0001FA2FFF7B1F80120F4E71748222B0178B3
:101CB00003D20A29EFD2491C04E0222AEBD20029E0
:101CC000E9D0491E2170BDE8F04100F061BB8A1FD8
:101CD000272A07D20A2805D9502803D2BDE8F041A7
:101CE00000F0F6BF10392229D5D2B0F5D27FD2D973
:101CF000B0F5E37FCFD8BDE8F04101F0BFB90000F7
:101D00000AD7233C0AD7233C0800002014AEC73E64
:101D1000A4707D3F9800002050010020534F4900DF
:101D20004E4F4900104908464A79818A408A092A5B
:101D300018D2DFE802F00507090B0D0F111315008B
:101D400005F082BE07F052BD06F032BB06F0F4B8D3
:101D500000F006B902F028BBFFF700BF07F088BC0F
:101D600007F0FABA7047000098000020F0B5059C13
:101D700044EA034503685C6C04F040442C435C6413
:101D80000368DA634268B2F5403F02D00068C16080
:101D9000F0BD01F47F42856801F47F04224301F025
:101DA0007F4301F47F0701F47F46CCB2BDB1012D22
:101DB00016D001F47F02C1F3C401D20C022D11D060
:101DC000032D14D0320B390D15011A0F45EA0123EA
:101DD000210943EA02320A4300688263F0BD1A43D4
:101DE0002243F9E7B30A5B0143EAC222F3E7F40AAC
:101DF000DB0F640144EA822242EAC332EBE70000CF
:101E00000148006B02F024BED48B03200148C06E51
:101E100002F01EBE5C8C03200148006F02F018BE69
:101E2000E08C032001681823CAB2103AB2FBF3F227
:101E3000054B6FF30901032A9B5CC36500D9091D9B
:101E40008165084670470000B0B0000810B583698E
:101E50004FF0C074826A0146002053B1B3F5005FB1
:101E600015D072B1012A0CD0022A0AD0032A09D156
:101E700004E01AB1012A06D0022A03D1C96AC901B5
:101E800000D5012010BDC96AA142FAD010BD002AB8
:101E9000F7D0012AF2D0022AF3D0032AF3D010BDE2
:101EA00030B50468256825F48025256004686360E2
:101EB0008368402B036803D099600068C26030BD1E
:101EC0009A600068C16030BD70470000234BF0B5D8
:101ED0005C884AF644464FF47A755F787443002F65
:101EE00094FBF5F535D1D6051402320C1E78D3EDEE
:101EF000030A4FF4304704F5807427E0A2EB050392
:101F000031F912C003F53043B3FBF7FE07FB1E3374
:101F100006B331F9133000BF00EE10CA01EE103ADB
:101F2000F7EE001AB8EEC00AB8EEC11A70EEA11AA8
:101F300002F1010C00EE810A80EE211ABDEEC10A09
:101F400010EE103A21F812301FFA8CF2B2EB540F57
:101F5000D4D3F0BD30F91330DEE7000030000020AC
:101F600010B5494CA1F16F031D2B628833D2A0F14B
:101F7000AB01222905D240F2E73082424DD2521CF9
:101F800006E0A0F11F01222904D2002A45D0521EEA
:101F900062801CE03C4AA0F27311DFED3C0A22296A
:101FA00092ED030A07D210EE100A3949884234DA5A
:101FB00030EE200A09E0E73822282ED210EE100A6F
:101FC0003449884229DD30EE600A84ED030ABDE819
:101FD000104000F05DBAA1F1C9031D2B26D25B3879
:101FE00036281AD22C480078012816D12B48FFF742
:101FF0004DF94FF0FF30FFF73BF94FF07F40FFF70F
:1020000053F9207850B1012807D10323D12164204E
:1020100023A2FEF7F9FE0020207010BD0323D1217A
:10202000642020A2FEF7F0FE0120F5E7A1F1920363
:10203000132B10D2A0F1B001182905D240F2DF30E5
:102040008242EAD20A32A3E724381828E5D2092AC4
:10205000E3D90A3A9CE78A1F272A07D20A2805D91A
:10206000502803D2BDE8104000F032BE10392229BA
:10207000D3D2B0F5D27FD0D9B0F5E37FCDD8BDE8CB
:10208000104001F081B80000300000200AD7233C46
:10209000A4707D3F0AD7233C980000205001002007
:1020A000534F49004E4F49002DE9F041934D2846CA
:1020B000FEF74AFEAC152046FFF7F6F81E23232252
:1020C0005F21AA20FEF736FF1E23232218465F2138
:1020D000FEF730FF4FF4B9761E23304623225F21EE
:1020E000FEF728FF1E2323225F21E620FEF722FFB2
:1020F0001E232322A021AA20FEF71CFF1E23232239
:102100001846A021FEF716FF1E2330462322A021E9
:10211000FEF710FF1E232322A021E620FEF70AFF70
:102120001E233722DC215A20FEF704FF1E233046EF
:102130002322DC21FEF7FEFE1E232322DC21E620E3
:10214000FEF7F8FE2823462205210A20FEF7F2FEBC
:102150002846FFF78DF82046FFF7A6F86848FFF7F6
:1021600095F803230F21782066A2FEF74DFE6748FD
:10217000FFF78CF803234B21492065A2FEF744FEAC
:1021800040F21116032330464B2164A2FEF73CFEB9
:1021900003238C21492064A2FEF736FE0323304638
:1021A0008C2164A2FEF730FE0323C821522064A2D2
:1021B000FEF72AFE0323C821701F63A2FEF724FE48
:1021C0002046FFF755F826063046FFF76DF8032343
:1021D0006821B6205FA2FEF717FE032368212A209C
:1021E0005DA2FEF711FE4FF4BF7403232046682161
:1021F00058A2FEF709FE03236821F22056A2FEF73B
:1022000003FE0323A921B62052A2FEF7FDFD0323FE
:10221000A9212A2050A2FEF7F7FD03232046A92179
:102220004CA2FEF7F1FD0323A921F2204AA2FEF7FA
:10223000EBFD03232046E52146A2FEF7E5FD03233F
:10224000E521F22044A2FEF7DFFD444C607810B196
:10225000012803D008E0032341A201E0032341A2A7
:10226000E5216420FEF7D0FD3F48FFF70FF8162167
:10227000032308463DA2FEF7C7FD00F089F83A485F
:10228000FFF704F82846FEF7F3FFA0784FF4D27763
:102290004FF4AA7401281FD000282CD14FF0FF2042
:1022A000FFF702F8232338460F211A46FEF742FEB5
:1022B0002846FEF7F9FF1423204646221A21FEF78E
:1022C00039FE3046FEF7F0FF03232AA22046BDE880
:1022D000F0411A21FEF798BD2948FEF7E5FF2323B8
:1022E00038460F211A46FEF725FE3046FEF7DCFF82
:1022F000032324A2EAE7BDE8F0810000D3D3D3FF93
:102300004801002043484F5255530000500100201F
:102310005241544520315B487A5D3A005241544560
:1023200020325B487A5D3A00444550544820313AA7
:1023300000000000444550544820323A000000009C
:10234000574552534A413A0044454C41595B6D73DD
:102350005D3A00002B0000002D0000000800002066
:10236000534F49004E4F490058010020504F5752DB
:102370004F540000574C41435A4F4E590000000043
:102380000000FFFF57594C41435A4F4E590000007F
:1023900070B5394C2046FEF787FF1E234FF491702D
:1023A0003722DC21FEF7C6FDA015FEF77DFF204693
:1023B000FEF75EFF3148FEF769FF314CA069FEF77A
:1023C0007BF841EC100B2FA153EC102B04F10B0008
:1023D00007F0ACFA03236621552004F10B02FEF747
:1023E00013FDE069FEF768F841EC100B25A153ECF2
:1023F000102B04F10E0007F099FA40F21D1503238B
:102400002846662104F10E02FEF7FEFC206AFEF764
:1024100053F841EC100B1BA153EC102B04F11100ED
:1024200007F084FA0323A721552004F11102FEF7D7
:10243000EBFC606AFEF740F841EC100B11A153EC85
:10244000102B04F1140007F071FA03232846A7218A
:1024500004F11402FEF7D8FC22780CA104F1080064
:1024600007F064FA04F10802BDE870400323E32199
:102470004FF49670FEF7C8BCD3D3D3FF48010020B9
:1024800008000020252E32660000000025640000B0
:1024900010B5194C2046FEF707FF1E2346226E2179
:1024A0005A20FEF747FDA015FEF7FEFE2046FEF778
:1024B000DFFE1248FEF7EAFE114C12A1201D6288D1
:1024C00007F034FA0323221D75215F20FEF79CFCE0
:1024D000E068FDF7F1FF41EC100BE01D53EC102B11
:1024E00009A107F023FAE21D4FF491700323BDE820
:1024F00010407521FEF788BCD3D3D3FF48010020DC
:102500003000002025640000252E32660000000007
:1025100070B5244C2046FEF7C7FE1E2337226E21DD
:102520005A20FEF707FDA015FEF7BEFE2046FEF777
:102530009FFE1D48FEF7AAFE1C4C1DA1A01D22787F
:1025400007F0F4F90323A21D75215F20FEF75CFC60
:102550006069FDF7B1FF41EC100B16A153EC102B95
:1025600004F10C0007F0E2F94FF4917503232846BB
:10257000752104F10C02FEF747FC2069FDF79CFF72
:1025800041EC100B0BA153EC102B04F1090007F0E8
:10259000CDF904F109022846BDE870400323CF219C
:1025A000FEF732BCD3D3D3FF480100204000002007
:1025B00025640000252E32660000000010B54FF0A3
:1025C000FF30FEF771FE1648FEF752FE1548FEF783
:1025D0005DFE154CA068FDF76FFF41EC100B601C11
:1025E00053EC102B11A107F0A1F90323621C7521F4
:1025F0005520FEF709FCE068FDF75EFF41EC100B8B
:10260000201D53EC102B09A107F090F9221D40F278
:102610001D100323BDE810407521FEF7F5BB000037
:10262000D3D3D3FF4801002058000020252E326666
:102630000000000070B52F4C2046FEF735FE1E232B
:1026400037226E215A20FEF775FC1E233722C8213F
:102650005A20FEF76FFC4FF491751E23284637224F
:10266000C821FEF767FCA015FEF71EFE2046FEF708
:10267000FFFD2148FEF70AFE204C21A104F11000C5
:10268000227807F053F9032375215F2004F110022B
:10269000FEF7BAFBE069FDF70FFF41EC100B19A143
:1026A00053EC102B04F1130007F040F903232846E4
:1026B000752104F11302FEF7A7FB627810A104F163
:1026C000160007F033F90323CF215F2004F116022F
:1026D000FEF79AFBA2780AA104F1190007F026F987
:1026E0000323CF21681D04F11902BDE87040FEF7F5
:1026F0008BBB0000D3D3D3FF48010020680000202B
:1027000025640000252E32660000000010B51A4C2A
:102710002046FEF7C9FD1E2337226E215A20FEF700
:1027200009FCA015FEF7C0FD2046FEF7A1FD1348E9
:10273000FEF7ACFD124C13A1A01D227807F0F6F8AD
:102740000323A21D75215F20FEF75EFBE068FDF705
:10275000B3FE41EC100B0CA153EC102B04F109005B
:1027600007F0E4F803234FF4917004F10902BDE887
:1027700010407521FEF748BBD3D3D3FF480100209A
:102780008800002025640000252E3266000000002D
:1027900010B5114C2046FEF787FD232346228221E7
:1027A000E120FEF7C7FBA015FEF77EFD2046FEF7F1
:1027B0005FFD0A48FEF76AFD09480AA14278801CBD
:1027C00007F0B4F8064A03238B21921CBDE81040A1
:1027D000E620FEF719BB0000D3D3D3FF4801002049
:1027E00000000020256400002DE9F041734D2846CB
:1027F000FEF7AAFAAC152046FEF756FD1E2323224B
:102800006E21AA20FEF796FB1E23232218466E2176
:10281000FEF790FB142319229121AF20FEF78AFBCB
:102820001423192291212320FEF784FB1E234FF449
:10283000B97023226E21FEF77DFB1E2323226E2119
:10284000E620FEF777FB1E233722C8215A20FEF729
:1028500071FB2823462205210A20FEF76BFB284640
:10286000FEF706FD2046FEF71FFD5548FEF70EFD5C
:1028700003230F21782053A2FEF7C6FA5348FEF730
:1028800005FD03235A21442051A2FEF7BDFA03237C
:102890004FF491705A2151A2FEF7B6FA0323B421E6
:1028A000522050A2FEF7B0FA2046FEF7E1FC2606C1
:1028B0003046FEF7F9FC03237721B6204BA2FEF742
:1028C000A3FA032377212A2049A2FEF79DFA49485B
:1028D000FEF7DCFC03239621B12047A2FEF794FA11
:1028E00003239621252045A2FEF78EFA3748FEF7EE
:1028F000CDFC03234FF4BF7077213CA2FEF784FA8E
:1029000003237721F2203AA2FEF77EFA3C4C20788E
:1029100010B1012803D008E003233AA201E0032309
:1029200039A2D1216420FEF76FFA3248FEF7AEFCDF
:1029300016210323084635A2FEF766FAFFF7A8FD25
:102940002C48FEF7A3FC2846FEF792FC60784FF473
:10295000D2774FF4AA7401281FD000282CD14FF051
:10296000FF20FEF7A1FC232338460F211A46FEF76D
:10297000E1FA2846FEF798FC1423204646221A2145
:10298000FEF7D8FA3046FEF78FFC032321A220463B
:10299000BDE8F0411A21FEF737BA2148FEF784FC62
:1029A000232338460F211A46FEF7C4FA3046FEF7B5
:1029B0007BFC03231BA2EAE7BDE8F081D3D3D3FF5E
:1029C0004801002044454C415900000050010020BE
:1029D00044454C41595B6D735D3A00004741494E97
:1029E0003A000000574552534A413A002B0000007C
:1029F0002D000000580100202B3130002D31300017
:102A000030000020534F49004E4F4900504F57525D
:102A10004F540000574C41435A4F4E59000000009C
:102A20000000FFFF57594C41435A4F4E59000000D8
:102A30002DE9F041754D2846FEF786F9AC15204684
:102A4000FEF732FC1E2323226E21AA20FEF772FA23
:102A50001E23232218466E21FEF76CFA4FF4B97636
:102A60001E23304623226E21FEF764FA1E23232202
:102A70006E21E620FEF75EFA1E2330462322C8218F
:102A8000FEF758FA1E232322C821E620FEF752FA49
:102A90001E233722C8215A20FEF74CFA282346224B
:102AA00005210A20FEF746FA2846FEF7E1FB2046FC
:102AB000FEF7FAFB5648FEF7E9FB03230F217820C7
:102AC00054A2FEF7A1F95548FEF7E0FB03235A2173
:102AD000442053A2FEF798F903234FF491705A2132
:102AE00052A2FEF791F9032340F21110B42151A232
:102AF000FEF78AF90323B421522051A2FEF784F98C
:102B00002046FEF7B5FB26063046FEF7CDFB032335
:102B10007721B6204CA2FEF777F9032377212A20EC
:102B20004AA2FEF771F94FF4BF74032320467721C0
:102B300045A2FEF769F903237721F22043A2FEF7AD
:102B400063F903232046D1213FA2FEF75DF9032359
:102B5000D121F2203DA2FEF757F93D4C607810B12B
:102B6000012803D008E003233AA201E003233AA29C
:102B7000D1216420FEF748F93848FEF787FB16217B
:102B80000323084636A2FEF73FF9FFF7C1FC33489E
:102B9000FEF77CFB2846FEF76BFBA0784FF4D2775C
:102BA0004FF4AA7401281FD000282CD14FF0FF2029
:102BB000FEF77AFB232338460F211A46FEF7BAF9AF
:102BC0002846FEF771FB1423204646221A21FEF701
:102BD000B1F93046FEF768FB032323A22046BDE887
:102BE000F0411A21FEF710B92248FEF75DFB2323BE
:102BF00038460F211A46FEF79DF93046FEF754FB82
:102C000003231DA2EAE7BDE8F0810000D3D3D3FF80
:102C100048010020464C414E4745520050010020DB
:102C200044454C41595B6D735D3A00004741494E44
:102C30003A000000524154455B487A5D3A0000007A
:102C4000574552534A413A002B0000002D00000026
:102C500040000020534F49004E4F490058010020CA
:102C6000504F57524F540000574C41435A4F4E5902
:102C7000000000000000FFFF57594C41435A4F4EDF
:102C8000590000002DE9F04117460C4605460E4854
:102C9000FEF7FCFA0D4E3046FEF706FB2823FA221B
:102CA000E1211420FEF746F93046FEF7E1FA3846F6
:102CB000FEF7FAFA04F114002A46BDE8F0410323B6
:102CC000F121FEF7A1B80000580100202A2AA5FF33
:102CD0002DE9F05FCE4D00206871CE48FEF7D6FAA0
:102CE000CD48FEF731F84FF0FF342046FEF7C0FA2A
:102CF00005F1210AA34601244FF00A084FF01B09F1
:102D00005846FEF7D1FA052C03DAFEF771F9E638DA
:102D100002E0FEF76DF9823886B2FEF759F9E21744
:102D20003146462304EB927222F00302A71A642272
:102D3000784308EB900080B2FEF7FCF84FF07F403C
:102D4000FEF7B2FA052C03DAFEF752F9E63802E094
:102D5000FEF74EF98238203086B2FEF739F9784313
:102D6000C4EBC4023146032309EB90000AEB420294
:102D700080B20E3AFEF748F8641C082CC0DB032032
:102D800001F0E4FBA54F00284FF0FF287DD0384626
:102D9000FEF78AFAFEF72CF9E13886B2FEF718F949
:102DA00000EB400031460F240C2304EB90001A4640
:102DB00080B2FEF7BFF8022001F00AFC002865D0BF
:102DC0004FEA0700FEF770FAFEF712F9E13886B213
:102DD000FEF7FEF8400831460F300C2380B21A4649
:102DE000FEF7A8F8032001F031FC00287ED0384619
:102DF000FEF75AFAFEF7FCF87D3886B2FEF7E8F8DF
:102E000000EB400031460C2304EB90001A4680B2E0
:102E1000FEF790F8042001F0B9FB002867D038468F
:102E2000FEF742FAFEF7E4F87D3886B2FEF7D0F8F6
:102E30000C23314604EB90001A4680B2FEF77AF874
:102E4000062001F059FB00287DD03846FEF72CFA09
:102E5000FEF7CEF87D3886B2FEF7BAF84008314664
:102E60000F300C2380B21A46FEF764F8042001F0FC
:102E7000CBFB00287AD03846FEF716FAFEF7B8F8F2
:102E8000E13886B2FEF7A4F801E065E066E00C23C5
:102E9000314604EB90001A4680B2FEF74BF83846F4
:102EA000FEF702FA01F0F2FB024659485CA11C3021
:102EB00006F03CFDFEF79CF8E13884B2FEF788F896
:102EC000534A03230F2021461C32FDF79DFF4FF08C
:102ED0007F442046FEF7E8F9FEF78AF87B3881B296
:102EE0003D2374220720FEF725F801E038E039E0A1
:102EF0005E465846FEF7D8F9FEF77AF8783881B280
:102F000037236E220A20FEF715F82046FEF7CCF98B
:102F10004048FEF7BBF9FEF76BF8743881B2032323
:102F2000202041A2FDF770FFFEF762F8623881B2FF
:102F3000032320203FA2FDF767FFFEF759F8503822
:102F400081B2032301E00FE010E01D203CA2FDF759
:102F50005BFFE87860B13BE0404619E7404631E767
:102F6000404645E740465BE740466FE7404683E71B
:102F70002046FEF799F9FEF73BF8303885B2FEF7A8
:102F800027F89938294680B229239222FDF7D2FFEB
:102F90003046FEF789F9FEF72BF82D3885B2FEF79B
:102FA00017F89638294680B223238C22FDF7C2FFFA
:102FB0002046FEF779F9FEF71BF81F3885B2FEF7B9
:102FC00007F89438294680B2032320A2FDF71CFF9E
:102FD0002046FEF769F930234FF48172DD2110207D
:102FE000FDF7A8FF1E4805214246FFF74BFE1D488E
:102FF000FEF74CF93046FEF757F90748FEF738F967
:10300000BDE8F05F03230821552017A2FDF7FCBEA1
:103010009800002058010020D3D3D3FF0000FFFF09
:10302000256425250000000050727A7977726F635D
:1030300000000000446F6D79736C6E650000000045
:103040005573746177656E69610000005A6170693B
:10305000737A206E61206B6172636965205344004E
:10306000D0BC0020480100204D554C5449454645F0
:103070004B542047495441524F5759002A482DE993
:10308000F041007801284CD12848FEF7FFF8DFF81E
:10309000A0804046FEF7ECF8264C4FF4D2764FF075
:1030A0007F474FF4AA75A07828B3012839D14FF093
:1030B000FF20FEF7F9F8232330460F211A46FDF7CB
:1030C00039FF4046FEF7F0F81423284646221A211D
:1030D000FDF730FF3846FEF7E7F8032328461A21AC
:1030E00015A2FDF791FE0020A07016A11B48BDE8B7
:1030F000F04106F01BBC1A48FEF7D6F823233046F1
:103100000F211A46FDF716FF3846FEF7CDF80323C8
:1031100028461A2113A2FDF777FE0120A07014A102
:10312000E4E7BDE8F081000098000020580100208D
:10313000D3D3D3FF08000020574C41435A4F4E5978
:1031400000000000576C61637A6F6E6F20656665E2
:103150006B742043686F727573000000D0BC002050
:103160000000FFFF57594C41435A4F4E5900000091
:1031700057796C61637A6F6E6F206566656B74203A
:1031800043686F72757300002A482DE9F04100789A
:1031900001284CD12848FEF779F8DFF8A080404696
:1031A000FEF766F8264C4FF4D2764FF07F474FF487
:1031B000AA75607828B3012839D14FF0FF20FEF7B7
:1031C00073F8232330460F211A46FDF7B3FE40461D
:1031D000FEF76AF81423284646221A21FDF7AAFEB4
:1031E0003846FEF761F8032328461A2115A2FDF799
:1031F0000BFE0020607016A11B48BDE8F04106F0F0
:1032000095BB1A48FEF750F8232330460F211A4683
:10321000FDF790FE3846FEF747F8032328461A21AB
:1032200013A2FDF7F1FD0120607014A1E4E7BDE8F1
:10323000F08100009800002058010020D3D3D3FF74
:1032400030000020574C41435A4F4E5900000000B7
:10325000576C61637A6F6E6F206566656B7420448E
:10326000656C617900000000D0BC00200000FFFF09
:1032700057594C41435A4F4E5900000057796C61E1
:10328000637A6F6E6F206566656B742044656C6150
:10329000790000002A482DE9F041007801284CD13E
:1032A0002848FDF7F3FFDFF8A0804046FDF7E0FF78
:1032B000264C4FF4D2764FF07F474FF4AA75A07892
:1032C00028B3012839D14FF0FF20FDF7EDFF23236C
:1032D00030460F211A46FDF72DFE4046FDF7E4FF6C
:1032E0001423284646221A21FDF724FE3846FDF70E
:1032F000DBFF032328461A2115A2FDF785FD0020D8
:10330000A07016A11B48BDE8F04106F00FBB1A489B
:10331000FDF7CAFF232330460F211A46FDF70AFEA8
:103320003846FDF7C1FF032328461A2113A2FDF7F3
:103330006BFD0120A07014A1E4E7BDE8F08100005E
:103340009800002058010020D3D3D3FF4000002074
:10335000574C41435A4F4E5900000000576C61636F
:103360007A6F6E6F206566656B7420466C616E6760
:1033700065720000D0BC00200000FFFF57594C418F
:10338000435A4F4E5900000057796C61637A6F6E53
:103390006F206566656B7420466C616E67657200B0
:1033A0002A482DE9F041007801284CD12848FDF742
:1033B0006DFFDFF8A0804046FDF75AFF264C4FF422
:1033C000D2764FF07F474FF4AA75207828B30128B2
:1033D00039D14FF0FF20FDF767FF232330460F213F
:1033E0001A46FDF7A7FD4046FDF75EFF1423284669
:1033F00046221A21FDF79EFD3846FDF755FF0323AF
:1034000028461A2115A2FDF7FFFC0020207016A106
:103410001C48BDE8F04106F089BA1B48FDF744FF9F
:10342000232330460F211A46FDF784FD3846FDF769
:103430003BFF032328461A2114A2FDF7E5FC0120D7
:10344000207015A1E4E7BDE8F0810000980000209D
:1034500058010020D3D3D3FF58000020574C4143DC
:103460005A4F4E5900000000576C61637A6F6E6FBF
:10347000206566656B74204F766572647269766547
:1034800000000000D0BC00200000FFFF57594C4155
:10349000435A4F4E5900000057796C61637A6F6E42
:1034A0006F206566656B74204F766572647269760D
:1034B000650000002A482DE9F041007801284CD130
:1034C0002848FDF7E3FEDFF8A0804046FDF7D0FE78
:1034D000264C4FF4D2764FF07F474FF4AA75E07830
:1034E00028B3012839D14FF0FF20FDF7DDFE23235B
:1034F00030460F211A46FDF71DFD4046FDF7D4FE6C
:103500001423284646221A21FDF714FD3846FDF7FC
:10351000CBFE032328461A2115A2FDF775FC0020D7
:10352000E07016A11B48BDE8F04106F0FFB91A484B
:10353000FDF7BAFE232330460F211A46FDF7FAFCA9
:103540003846FDF7B1FE032328461A2113A2FDF7E2
:103550005BFC0120E07014A1E4E7BDE8F08100000D
:103560009800002058010020D3D3D3FF680000202A
:10357000574C41435A4F4E5900000000576C61634D
:103580007A6F6E6F206566656B7420526576657222
:1035900062000000D0BC00200000FFFF57594C41E2
:1035A000435A4F4E5900000057796C61637A6F6E31
:1035B0006F206566656B74205265766572620000E7
:1035C0002A482DE9F041007801284CD12848FDF720
:1035D0005DFEDFF8A0804046FDF74AFE264C4FF422
:1035E000D2764FF07F474FF4AA75A07828B3012810
:1035F00039D14FF0FF20FDF757FE232330460F212E
:103600001A46FDF797FC4046FDF74EFE1423284668
:1036100046221A21FDF78EFC3846FDF745FE0323AE
:1036200028461A2115A2FDF7EFFB0020A07016A175
:103630001B48BDE8F04106F079B91A48FDF734FEA1
:10364000232330460F211A46FDF774FC3846FDF758
:103650002BFE032328461A2113A2FDF7D5FB0120D8
:10366000A07014A1E4E7BDE8F081000098000020FC
:1036700058010020D3D3D3FF88000020574C41438A
:103680005A4F4E5900000000576C61637A6F6E6F9D
:10369000206566656B74205472656D6F6C6F0000F9
:1036A000D0BC00200000FFFF57594C41435A4F4EF9
:1036B0005900000057796C61637A6F6E6F20656600
:1036C000656B74205472656D6F6C6F002DE9F0416D
:1036D000574D2846FDF738FBAC152046FDF7E4FDB5
:1036E0001E2323226E21AA20FDF724FC1E23232261
:1036F00018466E21FDF71EFC1E234FF4B9702322DD
:103700006E21FDF717FC1E2323226E21E620FDF714
:1037100011FC2823462205210A20FDF70BFC284630
:10372000FDF7A6FD2046FDF7BFFD4248FDF7AEFDC3
:1037300003230F21782040A2FDF766FB4148FDF7E7
:10374000A5FD03235A2141203FA2FDF75DFB032382
:103750004FF491705A213FA2FDF756FB2046FDF72A
:1037600087FD26063046FDF79FFD03237721B6200F
:103770003AA2FDF749FB032377212A2038A2FDF75F
:1037800043FB03234FF4BF70772134A2FDF73CFBCA
:1037900003237721F22032A2FDF736FB3148FDF7F3
:1037A00075FD1621032308462FA2FDF72DFBFEF71A
:1037B00005FF2C48FDF76AFD2846FDF759FD2C480A
:1037C0004FF4D2774FF4AA74007801281FD0002854
:1037D0002CD14FF0FF20FDF767FD232338460F2142
:1037E0001A46FDF7A7FB2846FDF75EFD1423204689
:1037F00046221A21FDF79EFB3046FDF755FD0323B7
:103800001CA22046BDE8F0411A21FDF7FDBA1C4874
:10381000FDF74AFD232338460F211A46FDF78AFBA0
:103820003046FDF741FD032316A2EAE7BDE8F0812B
:10383000D3D3D3FF480100204F5645524452495636
:103840004500000050010020434C49502056414C97
:1038500055453A004741494E3A0000002B00000010
:103860002D00000058010020504F57524F540000C7
:1038700058000020574C41435A4F4E590000000059
:103880000000FFFF57594C41435A4F4E590000006A
:103890002DE9F041764D2846FDF756FAAC15204645
:1038A000FDF702FD1E2323226E21AA20FDF742FB15
:1038B0001E23232218466E21FDF73CFB4FF4B976F8
:1038C0001E23304623226E21FDF734FB1E232322C4
:1038D0006E21E620FDF72EFB1E232322C821AA20FD
:1038E000FDF728FB1E2323221846C821FDF722FBE3
:1038F0001E2330462322C821FDF71CFB1E23232252
:10390000C821E620FDF716FB2823462205210A20C0
:10391000FDF710FB2846FDF7ABFC2046FDF7C4FC85
:103920005448FDF7B3FC03230F21782052A2FDF782
:103930006BFA5348FDF7AAFC03235A213C2051A2FD
:10394000FDF762FA03234FF491705A2151A2FDF75B
:103950005BFA0323B421232050A2FDF755FA032379
:10396000B421EB2052A2FDF74FFA2046FDF780FC70
:1039700026063046FDF798FC03237721B62051A296
:10398000FDF742FA032377212A204FA2FDF73CFAE4
:103990004FF4BF740323204677214AA2FDF734FA7F
:1039A00003237721F22048A2FDF72EFA0323D12129
:1039B000B62044A2FDF728FA0323D1212A2042A2EF
:1039C000FDF722FA03232046D1213EA2FDF71CFA7F
:1039D0000323D121F2203CA2FDF716FA3B48FDF764
:1039E00055FC16210323084639A2FDF70DFAFEF710
:1039F00021FE3648FDF74AFC2846FDF739FC3648DB
:103A00004FF4D2774FF4AA74C07801281FD0002851
:103A10002CD14FF0FF20FDF747FC232338460F2120
:103A20001A46FDF787FA2846FDF73EFC1423204688
:103A300046221A21FDF77EFA3046FDF735FC0323B6
:103A400026A22046BDE8F0411A21FDF7DDB926483F
:103A5000FDF72AFC232338460F211A46FDF76AFAA0
:103A60003046FDF721FC032320A2EAE7BDE8F08100
:103A7000D3D3D3FF4801002052455645524200009F
:103A800050010020524F4F4D2053495A455B255D50
:103A90003A00000044455054483A00005052452036
:103AA00044454C415920315B6D735D3A0000000084
:103AB0005052452044454C415920325B6D735D3A6C
:103AC000000000002B0000002D0000005801002025
:103AD000504F57524F54000068000020574C41434C
:103AE0005A4F4E59000000000000FFFF57594C414B
:103AF000435A4F4E5900000070B506463948FDF74D
:103B0000C5FB394D2846FDF71FF9AC152046FDF7DA
:103B1000CBFB2846FDF7ACFB03236E21502033A2DC
:103B2000FDF772F93648FDF7B1FB012E4FF07F46E5
:103B30003CD03046FDF7B8FB0323BE21A52031A2BF
:103B4000FDF762F92046FDF7AFFBFDF751FA323879
:103B500081B223236422BE20FDF7ECF93046FDF745
:103B6000A3FB2046FDF784FB2C48FDF78FFBFDF7F8
:103B70003FFA273881B20323D22029A2FDF744F966
:103B8000FDF730FD284C207190B1E07820B31C483F
:103B9000FDF77CFB2548FDF787FB2846FDF768FB12
:103BA000E078022807D0032321A212E02046C1E7D3
:103BB0000220E070EBE7207948B1012810D10323FF
:103BC000A02191201EA2BDE87040FDF71DB903237E
:103BD00025A2A021C320F6E7BDE8704003F024BE73
:103BE00070BD000048010020D3D3D3FF4D554C5485
:103BF000494546454B542047495441524F57590077
:103C0000580100204B4C494B4E494A204142592013
:103C100055525543484F4D49433A0000500100204A
:103C20005354415254000000980000200000FFFF50
:103C3000426C6164206B617274792053442E0000E1
:103C40004B617274612053442077796B727974618F
:103C50002C207A7265736574756A2075727A616456
:103C60007A656E69650000004272616B206B61725B
:103C700074792053440000002DE9F041674C204640
:103C8000FDF762F8A5152846FDF70EFB1E2323223B
:103C90006E21AA20FDF74EF91E23232218466E211D
:103CA000FDF748F91E234FF4B97023226E21FDF76A
:103CB00041F91E2323226E21E620FDF73BF91E2346
:103CC0003722C8215A20FDF735F92823462205213D
:103CD0000A20FDF72FF92046FDF7CAFA2846FDF71E
:103CE000E3FA4F48FDF7D2FA03230F2178204DA2C3
:103CF000FDF78AF84D48FDF7C9FA03235A214420FD
:103D00004BA2FDF781F803234FF491705A214BA287
:103D1000FDF77AF80323B4214B204AA2FDF774F88B
:103D20002846FDF7A5FA2E063046FDF7BDFA032317
:103D30007721B62046A2FDF767F8032377212A20D2
:103D400044A2FDF761F803234FF4BF70772140A22E
:103D5000FDF75AF803237721F2203EA2FDF754F82D
:103D60003D4D687820B1012805D0022806D00BE02F
:103D700003233AA204E0032339A201E0032339A27A
:103D8000D1216420FDF740F83748FDF77FFA16216E
:103D90000323084635A2FDF737F8FEF7B7FC324893
:103DA000FDF774FA2046FDF763FAA8784FF4D2774E
:103DB0004FF4AA7501281FD000282CD14FF0FF2006
:103DC000FDF772FA232338460F211A46FDF7B2F8A1
:103DD0002046FDF769FA1423284646221A21FDF7EA
:103DE000A9F83046FDF760FA032322A22846BDE871
:103DF000F0411A21FDF708B82148FDF755FA2323B1
:103E000038460F211A46FDF795F83046FDF74CFA73
:103E100003231CA2EAE7BDE8F0810000D3D3D3FF5F
:103E2000480100205452454D4F4C4F005001002096
:103E3000524154455B487A5D3A0000004445505475
:103E4000483A00004B535A54414C543A0000000089
:103E50002B0000002D0000008800002053494E0078
:103E6000545249005351550058010020504F5752A9
:103E70004F540000574C41435A4F4E590000000028
:103E80000000FFFF57594C41435A4F4E5900000064
:103E900070B54B4C2046FCF757FFA5152846FDF79B
:103EA00003FA2846FDF700FA2323322282214FF439
:103EB0009670FDF73FF82323322282219620FDF7EA
:103EC00039F81E2340F233102322AA21FDF732F8DD
:103ED0001E232322AA219D20FDF72CF8FDF788F848
:103EE000323881B223236422BE20FDF723F8282331
:103EF000462205210A20FDF71DF82046FDF7B8F9F6
:103F00002846FDF7D1F92F48FDF7C0F903230F210B
:103F100078202DA2FCF778FF2E48FDF7B7F9032390
:103F2000322164202CA2FCF76FFF0323412164207F
:103F300036A2FCF769FF03235021A52040A2FCF71D
:103F400063FF2806FDF7B0F92846FDF791F9162121
:103F50000323084642A2FCF757FF1A48FDF796F9DB
:103F600003238A2140A24FF49E70FCF74DFF0323E8
:103F70008A21A6203DA2FCF747FF1648FDF786F9E7
:103F80000323B5213AA24FF49C70FCF73DFF0323B5
:103F9000B521A22037A2FCF737FF3748FDF776F9A5
:103FA000FDF726F8273881B20323C52033A2FCF79A
:103FB0002BFF354801784170BDE87040FEF7E8BB43
:103FC000D3D3D3FF48010020474C4F534E4F5343A8
:103FD00000000000580100205A6D69616E61206781
:103FE0006C6F736E6F7363692077796A7363696F3F
:103FF00077656A2077207A616B7265736965203016
:1040000025202D2031303025000000007A616368C2
:104010006F647A692070727A7920757A796369752C
:104020002070727A796369736B6F7720272B272052
:104030006920272D27206F72617A20706F20000081
:10404000776369736E69656369752070727A7963E5
:1040500069736B7520275A4153544F53554A2700B3
:10406000504F57524F5400002B0000002D0000000D
:104070002B3130002D313000500100205A41535473
:104080004F53554A00000000000000202DE9F74F73
:1040900029480026DFF89CA0006800EB40000AEBEE
:1040A000800080688588C788E81D834620F0070067
:1040B000401B00F0FF0939E04FEADB0102980129BB
:1040C00001FB060009D0022909D0017842788378E3
:1040D000080440EA0220184303E0007801E0008869
:1040E00040BA002480461AE02A1B02EB0901012095
:1040F000491E884010EA080F009800EB04020E48A1
:10410000016890B201EB410202D05AF8222002E08D
:104110000AEB82014A680199FCF7DAFE641CAC42A2
:10412000E2D30198401C80B20190761CBE42C3D3FA
:10413000BDE8FE8FFC8A0320440100204FF400609C
:1041400000F01ABE05480068800402D54FF42040F4
:1041500001E04FF4006000F00FBE0000143C01408D
:10416000042000F009BEF0B5D1E90125D1E90343EF
:10417000D1E905762A43D1F800C044EA0304D1E925
:10418000073542EA0402496A42EA0702BCF1010F1C
:1041900042EA060208D004681A432A430A43E30BA2
:1041A000DB031A4302600BE0066844682B4326F4E5
:1041B000F84529430B4303606FF30E04224342602A
:1041C0000020F0BD426942EA410141610020704790
:1041D00038B591E81C00C9686FF01F051A4305EB5C
:1041E000441444EA41210A4300920261002038BD90
:1041F0002DE9F043914691E81C006FF00F05521E27
:104200002E0105EB03131A430B7E06EB04268C8A62
:104210002F034FEA054C0D8A32434FF07F4808EBDD
:104220000366CB68B9F1010F07EB05450CEB0454AD
:104230000CD081683F1107EB03331A432A43224312
:10424000324301F070410A43826011E08168DFF877
:1042500028C0C7681B03A3F5805323432A4301EA00
:104260000C0132430B43836007F070442243C26069
:104270000020BDE8F0830000FF0F0FFF2DE9F74F8E
:1042800046480E462DED028B8178002975D1824675
:104290009FED430AD0ED040A0078D4054AF6444362
:1042A00080EE201A1502240C58434FF47A71B0FBAB
:1042B000F1F0B7EE008A4FF4304B05F58075C0EE93
:1042C000808A1FFA80F9BCEEC11A11EE100A87B27B
:1042D00050E000BF9FED330ABAF8040036F91480AD
:1042E00068EE800A00EE100AB8EE400A20EE800A5E
:1042F00005F09EFF4FEA59009AF8011001EE100AEE
:10430000F0EE480AB8EE411A30EEC00A41EE000A5B
:10431000BCEEE00A10EE100A80B291B3201A00F54C
:104320003040B0FBFBF20BFB120036F9100000BF6F
:1043300000EE108A00EE900A9AED051AB8EEC00A57
:10434000F8EEE00A621C01EE200A71EE080A80EE27
:10435000201ABDEEC10A10EE100A26F81400BAF8B1
:10436000040094B23844401CB0FBF7F207FB120083
:10437000AAF80400B4EB550FACD3BDEC028BBDE83A
:10438000FE8FFFE7211A029801F53041B1FBFBF2E5
:104390000BFB121130F91100CAE7000040000020A9
:1043A00000442C47DB0FC9402DE9F041A1F16F0417
:1043B000494D4B4E1D2C4B4CA0F273139FED470AF9
:1043C000A0F1E70229D22146A0F1AB07222F0978FC
:1043D00003D2142943D2491C05E01F38222804D2F5
:1043E00000293CD0491E21705AE0222B08D2D4ED7E
:1043F000050A10EE900AA84231DA30EE800A09E090
:10440000222A2CD2D4ED050A10EE900AB04226DD05
:1044100030EEC00A84ED050A42E0A1F1C9071D2F64
:1044200042D25B38362824D22F480078012816D192
:104430002E48FCF72BFF4FF0FF30FCF719FF4FF031
:104440007F40FCF731FF607858B1012807D1032382
:10445000D121642026A2FCF7D7FC00206070BDE8C3
:10446000F0810323D121642022A2FCF7CDFC01209E
:10447000F4E7222B08D2D4ED040A10EE900AA842E9
:10448000EDDA30EE800A09E0222AE8D2D4ED040AFF
:1044900010EE900AB042E2DD30EEC00A84ED040A6C
:1044A000BDE8F041FEF734B88A1F272A07D20A2850
:1044B00005D9502803D2BDE8F041FEF709BC1039F8
:1044C0002229CCD2B0F5D27FC9D9B0F5E37FC6D8C6
:1044D000BDE8F041FEF7DEBEA4707D3F0AD7233C65
:1044E0000AD7233C40000020980000205001002003
:1044F000534F49004E4F4900124907289FED120AB9
:104500001DD2DFE800F00406090C0F181A00087825
:104510007047D1ED060A07E0D1ED070A04E0D1EDBE
:10452000080A01E0D1ED090A20EE800ABCEEC00ABB
:1045300010EE100A7047487870478878704700205E
:1045400070470000080000200000C8420D4938B143
:10455000012807D0022810D0032810D0002070476F
:104560004888704791ED030ADFED070A20EE200A24
:10457000BCEEC00A10EE100A704708787047487801
:1045800070470000300000200000C8420E49052896
:104590009FED0E0A16D2DFE800F0030508111300A4
:1045A00008787047D1ED040A01E0D1ED050A20EE4C
:1045B000800ABCEEC00A10EE100A704748787047B7
:1045C0008878704700207047400000200000C842F3
:1045D0000B499FED0C0A28B1012806D002280DD006
:1045E00000207047D1ED020A01E0D1ED030A20EE70
:1045F000800ABCEEC00A10EE100A704708787047B7
:10460000580000200000C8420E49052817D2DFE8F4
:1046100000F00305101214000878704791ED070AA6
:10462000DFED090A20EE200ABCEEC00A10EE100AE7
:1046300070474878704788787047C878704700207E
:1046400070470000680000200000C8420D4938B1E2
:10465000012807D0022810D0032810D0002070476E
:104660000878704791ED030ADFED070A20EE200A73
:10467000BCEEC00A10EE100A704748787047887880
:1046800070470000880000200000C8420148007800
:104690007047000000000020F0B50126044600200D
:1046A0001E2301E05B1E05D303F01F0706FA07F582
:1046B0000D42F7D072B1082A0AD0102A05D0182A64
:1046C00001D1072B06D30120F0BD082BFBD201E05E
:1046D000102BF8D22368596121688B6823F01803E6
:1046E00013438B60F0BD000010B5040010D0607F54
:1046F00020B900202077204600F032F821790220EE
:10470000607739B1D4E902122046FFF7C5FF48B1FE
:10471000012010BD2168114848612068816821F09E
:10472000180181606079A0B12168206908610122C7
:1047300020686369816821F0600119438160206805
:10474000A369816821F080011943816062770020AC
:1047500010BD21684FF0FF30E8E70000B71DC1042D
:1047600008B500680649884208D10648016841F446
:1047700080510160006800F48050009008BD000086
:10478000003002403038024070B590F83820012ADD
:1047900023D0244C012680F83860022300EB01125C
:1047A00080F83930158CD36918320A2B43EA054555
:1047B00015D0092B13D0137B45EA0363056899B123
:1047C000E969A1431943E961016813680B61516804
:1047D0000A291BD0092919D01DE0022070BDD36819
:1047E00003F07F432B43E9E7696AA14319436962F8
:1047F000016813688B6151680A2901D009290AD11F
:10480000D168026821F07F41916204E0D1680268BA
:1048100021F07F411162002180F8396080F8381062
:10482000084670BD0F0003FF70B5040004D094F873
:104830003900002510B106E0012070BD204684F843
:10484000385000F01FF8022084F83900D4E9000342
:104850000121026822F440321A4302602068A368F2
:10486000426B22F007021A4342632068E368026C3D
:104870006FF30D021A430264E56384F839100020D7
:1048800070BD000008B500680649884208D1064896
:10489000016841F400010160006800F4000000902C
:1048A00008BD000000B00240303802402DE9F84356
:1048B0000026044604270D4600964FF003080068C2
:1048C0000068C00726D000F059FB81461EE0406812
:1048D000009010F0210F10D00098800603D5E06BF7
:1048E00040F00200E0630098C00703D0E06B40F0A6
:1048F0000100E0632168212035E0681C06D000F04B
:104900003DFBA0EB0900A8424DD8A5B32068416843
:104910008907DCD52068C169406A01F0200100F0F8
:104920002000084335D000F029FB81462DE0406887
:10493000009010F0290F1FD00098000703D5E06BFE
:1049400040F00400E0630098800603D5E06B40F07F
:104950000200E0630098C00703D0E06B40F0010064
:10496000E06321682920886084F83970012084F888
:104970003860BDE8F88316E0681C06D000F0FEFA47
:10498000A0EB0900A8420ED86DB120684168C906A5
:10499000CDD5226812210120916084F839000020D1
:1049A00084F83860E5E7E16B84F8386041F0200175
:1049B000E16384F839800320DBE7F8B50446069804
:1049C00094F83850012D10D0012684F83860022563
:1049D00084F8395000902046FDF7C8F92068016836
:1049E00041F0010101600020F8BD0220F8BD70B562
:1049F00004002BD094F83500022826D0206800252A
:104A00002122016821F00101016020680560206811
:104A10004560206885602068C56020680561206861
:104A200042612046FDF7FEF994F85C203F21914059
:104A30008160E56325646564A564E5642565656555
:104A400084F83550002084F8345070BD012070BDCA
:104A50002DE9F84304464FF00009644B0820CDF8D7
:104A600000904FF41652A56D94F85C101B682E68E8
:104A7000B3FBF2F700FA01F131420FD021680A6866
:104A800052070BD50A6822F004020A6094F85C1001
:104A90008840A860606D40F00100606594F85C108B
:104AA0004FF0010808FA01F0304208D02168496946
:104AB000090604D5A860606D40F00200606594F8B6
:104AC0005C1004208840304208D0216809688907BA
:104AD00004D5A860606D40F00400606594F85C1037
:104AE00010208840304218D021680968090714D581
:104AF000A86020680168490304D50068000308D550
:104B0000A16C07E00168C90503D4016821F0080120
:104B10000160216C09B12046884794F85C10202080
:104B20008840304231D021680968C9062DD5A86077
:104B300094F8350005282068016806D0490347D558
:104B4000006800031DD4616C1CE021F016010160B7
:104B50002068416921F080014161206C08B9A06C96
:104B600020B12068016821F00801016094F85C30F0
:104B70003F229A40AA6084F8349084F83580216DF1
:104B80001FE0E16B09B120468847606D00282BD0FB
:104B9000606DC00714D0052084F8350020680168D6
:104BA00021F0010101600098401C0090B84203D838
:104BB00020680068C007F6D184F8349084F8358006
:104BC000E16C002910D001B02046BDE8F043084751
:104BD0000168C905D5D4036823F01003036084F885
:104BE000349084F83580CCE7BDE8F88328010020B4
:104BF0002DE9F047044600F0C1F9054664B14FF0D5
:104C0000000984F83490022184F835102068016886
:104C100021F0010101600EE00120BDE8F08700BF36
:104C200000F0ACF9401B052805D92021616503205F
:104C300084F83500F1E720680068C007F0D1D4E9B6
:104C40000020D4E90251D4E9043C284304F11805BA
:104C500019430843116895E8E00140EA0C001C4B39
:104C60002843194040EA060040EA0700B8F1040F63
:104C700040EA010003D1D4E90B1319430843106043
:104C800020680126656A4069042D20F0070045EA86
:104C900000050CD1D4E90A01054341B12046FDF7D6
:104CA000D5F820B14020606584F83560B4E720680D
:104CB00045612046FDF7B6F894F85C303F229A40F3
:104CC0008260C4F8549084F835600020A5E70000A5
:104CD0003F8010F02DE9F041044690F834000025A3
:104CE0000128A66D0ED094F835C00127002084F865
:104CF0003470BCF1010F07D0022584F83400284637
:104D0000BDE8F0810220FBE7022784F8357060657A
:104D10002046FDF7C5F894F85C103F208840B0604D
:104D20002068016841F0160101602068416941F086
:104D300080014161206C20B12068016841F00801C8
:104D400001602068016841F001010160D7E70000BF
:104D500070B5044600F012F90546601C02D0044804
:104D60000078044400F00AF9401BA042FAD370BD59
:104D70001C01002070470000044910B50A68024277
:104D800002D00860FFF7F6FF10BD0000143C0140A0
:104D90002DE9F84FDFF89CE100224FF001084FF0B9
:104DA000030B4FF00F0A00BF0B6808FA02F4234010
:104DB000A34271D14D68022D01D0122D0FD1D5081B
:104DC0000E69570700EB8505A9462D6AFF0E0AFA02
:104DD00007FCBE4025EA0C052E43C9F820600F7978
:104DE000550006680BFA05FC07F0030726EA0C06D7
:104DF000AF40374307604E68012E05D0022E03D026
:104E0000112E01D0122E0ED18668CF6826EA0C062C
:104E1000AF403743876046680F79A643C7F3001752
:104E2000974037434760C4688E6824EA0C04AE405C
:104E30002643C6604C68E40075D53F4C256845F4B0
:104E400080452560246822F00306950704F4804419
:104E500000943A4C2D0F2644D6F80848DFF8E0C0FD
:104E60000AFA05F7604524EA070401D100272EE07D
:104E7000344FB84201D1012729E0334FB84201D164
:104E8000022724E0314FB84201D103271FE0304F01
:104E9000B84202D104271AE045E02E4FB84201D1B2
:104EA000052714E02C4FB84201D106270FE02B4F05
:104EB000B84201D107270AE0294FB84201D108279B
:104EC00005E0284FB84201D1092700E00A27AF408A
:104ED00027437546C6F808784E68DEF80040F603AA
:104EE00024EA030400D51C43124E2C60361D4D6885
:104EF0003468AD0324EA030400D51C430D4F34602D
:104F000008374D683C68ED0224EA030400D51C43D1
:104F1000084D3C600C354E682C68B60224EA030448
:104F200000D51C432C60521C102AFFF43DAFBDE895
:104F3000F88F0000003C014044380240003001403E
:104F4000000002400004024000080240000C024041
:104F5000001002400014024000180240001C0240F1
:104F600000200240002402400069084000D00120D7
:104F700070470AB1816170470904FBE70148806806
:104F8000704700001C01002010B5040014D024203C
:104F900084F841002068016821F001010160204689
:104FA00000F0CAF90020606484F84100206384F8AE
:104FB000420084F8400010BD012010BD90F841006F
:104FC0007047000070B5040004D094F8410000253B
:104FD00010B106E0012070BD204684F8405000F07A
:104FE000ACF9242084F841002068016821F0010117
:104FF0000160D4E9001020F07060086120688168C9
:1050000021F400418160E06821680128A06806D091
:1050100040F404408860E068022803D006E040F4D1
:105020000040F7E721684FF40060486020212068C5
:10503000114A4368134343602068C26822F4004267
:10504000C26054F8106B0DCC104340EA0320F060AE
:1050500054F81C3CD4E900021043186054F81C0DAD
:10506000026842F001020260656484F84110256321
:1050700084F84250002070BD008000022DE9FF4FEF
:1050800083B0044690F841009A469346DDE91087C4
:10509000DDF84890202874D15FEA080014D09FB151
:1050A00094F8400001286CD0012084F84000FFF7FC
:1050B00065FF0122064619230090D103204602F025
:1050C000F9F8002871D103E04FF4007060646CE0DF
:1050D0000025C4F82480222184F84110402084F85F
:1050E000420065646785534665635A4604992046C5
:1050F000CDE9009602F064F810B184F8405054E015
:10510000618DFF2734484FF08078FF294FF0007AF7
:1051100004D927853A464346009005E0618D534601
:105120002185009094F828202046049902F0ACF8DC
:1051300000224B4604212046009602F0BBF8A0BB9B
:105140002068616A406A0870606A401C6062208D55
:10515000401E81B22185608D401E6085608DD8B172
:10516000D1B900224B4680212046009602F0A2F8D9
:10517000D8B9608DFF2805D927853A464346009562
:1051800006E026E0608D53462085009594F828209F
:105190002046049902F078F8608D0028C8D1324684
:1051A0004946204602F0B3F818B1012007B0BDE827
:1051B000F08F21682020094AC86121684B6813409C
:1051C0004B6084F8410084F84250002084F840503D
:1051D000ECE70220EAE700000024008000E800FE7F
:1051E0002DE9FF4F83B0044690F841009A4693465C
:1051F000DDE91087DDF84890202871D15FEA0800CA
:1052000014D09FB194F84000012869D0012084F89F
:105210004000FFF7B3FE0122064619230090D10398
:10522000204602F047F800286ED103E04FF40070EA
:10523000606469E00025C4F82480212184F84110CD
:10524000402084F8420065646785534665635A468A
:1052500004992046CDE9009601F0E4FF10B184F8EE
:10526000405051E0608DFF274FF08078FF284FF0CD
:10527000007A04D927853A464346009505E0608DBB
:1052800053462085009594F828202046049901F083
:10529000FBFF32464946204602F060F8A0BB606A38
:1052A000216800788862606A401C6062608D401EE0
:1052B0006085208D401E80B22085618DD9B1D0B926
:1052C00000224B4680212046009601F0F3FFD8B91A
:1052D000608DFF2805D927853A464346009506E0AC
:1052E00026E0608D53462085009594F828202046BE
:1052F000049901F0C9FF608D0028CAD132464946A1
:10530000204602F004F818B1012007B0BDE8F08F84
:1053100020682021074AC161206843681340436028
:1053200084F8411084F84250002084F84050ECE7A3
:105330000220EAE700E800FE7047704702488168F3
:1053400002781144816070471C010020032010B5D1
:1053500000F0A2F9002000F005F800F035F9002077
:1053600010BD000070B50D4D04464FF47A700C4A24
:1053700029781268B0FBF1F0B2FBF0F001F061FDAA
:1053800048B9102C07D200222146501E00F064F9C3
:1053900000206C6070BD012070BD00001C01002069
:1053A000280100202DE9F041044690F8A00016469F
:1053B0000F4601281DD0012584F8A050022084F852
:1053C000A10006EB860000EBC600342204EB80004F
:1053D0003830FAF746FF32463946204602F03CF9AB
:1053E000216800204D6284F8A15084F8A000BDE837
:1053F000F0810220FBE7704790F8A10070472DE98B
:10540000F0410446006800274FF00408856B466BA6
:10541000690715D5710713D5426B22F00402426368
:105420002068C0F83C80D4F8A40040F00100C4F823
:10543000A40084F8A180204684F8A070FFF7DBFF69
:10544000A80716D5B00714D520680222436B23F0B5
:10545000020343632068C263D4F8A40040F0020052
:10546000C4F8A40084F8A180204684F8A070FFF757
:10547000C2FF05EA06004FF00108C0070ED0216800
:105480004A6B22F001024A632168C1F83C8084F82B
:10549000A180204684F8A07000F092F8280710D56B
:1054A00030070ED520680822436B23F008034363BE
:1054B0002068C26384F8A180204684F8A07000F0C0
:1054C00081F8BDE8F08100002DE9F041040004D02E
:1054D00094F8A100002518B107E00120BDE8F08193
:1054E000204684F8A05000F06CF83448022184F87B
:1054F000A110012202CC8B6923F070438B6194E8E8
:105500004A001943E3681E4354F8043D31439E6941
:105510003143996121688B6803408B602168A68ABA
:10552000A7698B683B4343EA06438B602168CB68DD
:105530000340CB602168A38B276ACE683E4346EACE
:105540000346CE6021680B6903400B612368A68C7B
:10555000A76A1969394341EA0641196121684B6913
:1055600003404B612068A38D266B4169314341EABA
:1055700003414161236894F8351094F83600DE6ADF
:10558000000406F07F46DE62236840EA012094F8BA
:105590003460D96A31430143D9622068416B41F0DC
:1055A000060141632068816941F001018161C4F80D
:1055B000A45084F8A120002090E7000000F800F03B
:1055C00070477047704700001B4808B5016841F0FC
:1055D00080510160006800F0805000901648001D66
:1055E000016841F48041016000680022032100F459
:1055F000804000906FF00B0000F02EF80022032195
:105600006FF00A0000F028F8002203216FF0090073
:1056100000F022F800220321501F00F01DF80321A2
:105620000022C81F00F018F800220321BDE808403E
:10563000481F00F011B8000040380240002809DB84
:10564000410900F01F028900012001F1E021904092
:10565000C1F80001704700000E4BF0B41B680D4606
:10566000C3F30223C3F10706042E00D90426191D33
:10567000072901D2002300E0DB1E012404FA06F111
:105680009C40491E2940641E994014402143F0BCAF
:1056900004F060B90CED00E0064900F0070210B517
:1056A0004FF6FF040868044B204040EA02201843EC
:1056B000086010BD0CED00E00000FA051848F8B5D0
:1056C000016841F0805101600068164C00F0805084
:1056D0000090206840F480302060FFF74FFC4FF4CA
:1056E0007A76054605E000BFFFF748FC401BB04254
:1056F0000FD86068C003F7D5206840F40030206000
:10570000FFF73CFC054606E0FFF738FC401BB042C3
:1057100001D90320F8BD60688003F5D50020F8BDED
:1057200040380240007000404B4B30B549490160A1
:10573000191D1C680A1DC4F3881444601C68C4F356
:10574000014404611C68C4F30364C4601B68C3F3B0
:10575000027383600B68C3F3881343610B68C3F360
:10576000014303623C4B0C687C3BC4F303648461DB
:105770000968C1F30271C1611468111D04F01F04AE
:1057800044621468C4F3042484621468C4F30144BA
:10579000C462146804F44014C463146804F440043C
:1057A00004641C6804F4000444630C6804F440348A
:1057B00044660C6804F4402484660C6804F44014C5
:1057C000C4660C6804F4400404670C6804F0030425
:1057D00044640C6804F00C0484640C6804F0300425
:1057E000C4640C6804F0C00404650C6804F44074DC
:1057F00044650C6804F4406484650C68164D04F438
:105800004054C4650C68143D04F4404404660C68BC
:1058100004F0407444670C6804F0806484670C688A
:1058200004F00064C467096801F08051C0F880107A
:1058300019682B6801F4F81103F440730B430363F8
:105840001168C90101D4002101E04FF0807181632A
:1058500030BD0000F1FFFF0084380240F0B5444B3A
:10586000B0F5002F404D4FF4801E404EA3F10404CC
:10587000404F03F10402404984464FF000000DD030
:10588000F44516D1D2F800C01CF4400C3CD0BCF555
:10589000800F4ED0BCF5000F0BD109E0D2F800C04C
:1058A0001CF4401C06D0F44519D0BCF5001F00D1F3
:1058B0003846F0BD08684002086800F03F0002D496
:1058C000B5FBF0F001E0B6FBF0F019681B68146856
:1058D000C1F30362C3F38813C4F304213DE00868F5
:1058E0004002086800F03F0002D4B5FBF0F001E090
:1058F000B6FBF0F0216823681468C1F3036204F07A
:105900001F01C3F3881328E008684002086800F00C
:105910003F0002D4B5FBF0F001E0B6FBF0F01C68EC
:105920001B681168C4F30362C3F38813C1F3042135
:1059300013E008684002086800F03F0002D4B5FB9D
:10594000F0F001E0B6FBF0F0256823681168C5F3BC
:10595000036201F01F01C3F388134343491CB3FBE7
:10596000F2F0B0FBF1F0F0BD0024F40040787D01CE
:10597000883802400080BB00043802402DE9F84F0F
:1059800004460078DFF824944FF000063746C0073D
:105990000ED0D9F8001021F40001C9F80010D9F890
:1059A0000010626B1143C9F80010606B00B901264A
:1059B000FE4D2068843500030ED5E16B286820F485
:1059C000401008432860E06BB0F5801F01D010B193
:1059D00002E0012600E0012720684FF4800BC0029E
:1059E0000CD5216C286820F4400008432860206C06
:1059F000584501D1012601E000B901272068C10105
:105A000000D50126800666D5E8483830016841F0A7
:105A1000805101600068DFF898A300F0805000908A
:105A2000DAF8001041F48071CAF80010FFF7A6FA06
:105A3000804605E0FFF7A2FAA0EB080064287DD8B5
:105A4000DAF80000C005F5D5DFF8608308F16808D2
:105A5000D8F8000010F440702AD0218E01F4407173
:105A6000814225D0D8F80010D8F8002021F44071E8
:105A700042F48032C8F80020D8F8002022F48032A6
:105A8000C8F80020C8F80010D8F80000C0070FD0F0
:105A9000FFF774FA824607E0FFF770FAA0EB0A01FD
:105AA00041F288308142CAD8D8F800008007F3D587
:105AB000206BC0F3012103297ED0D9F8001021F416
:105AC000F811C9F80010228ED8F80010C2F30B02AA
:105AD0001143C8F800102078C00607D5286820F0C8
