:020000040800F2
:1000000070100020DD0100086D6A00087F600008A4
:1000100009690008051800081575000800000000AF
:1000200000000000000000000000000091710008C6
:100030001D1C000800000000896B00089371000877
:10004000F7010008F7010008F7010008F7010008B0
:10005000F7010008F7010008CD390008F701000892
:10006000F1390008F7010008F7010008F70100085E
:10007000F7010008F7010008F7010008F701000880
:10008000F7010008F7010008F7010008F701000870
:10009000F7010008F7010008F7010008F701000860
:1000A000F701000875720008F7010008F701000861
:1000B000F7010008F7010008F7010008F701000840
:1000C000F7010008F7010008F7010008F701000830
:1000D000F7010008F7010008F7010008F701000820
:1000E000D5390008F7010008F7010008F7010008FA
:1000F000F7010008F7010008F7010008F701000800
:10010000F7010008F7010008F7010008F7010008EF
:10011000F7010008F7010008F7010008F7010008DF
:10012000551B0008F7010008F7010008F701000857
:10013000611B0008F7010008F7010008F70100083B
:10014000F7010008F7010008F7010008F7010008AF
:10015000F7010008F70100086D1B0008F70100080F
:10016000F7010008F7010008F7010008F70100088F
:10017000F7010008F7010008F7010008000000007F
:10018000F7010008F7010008F7010008F70100086F
:10019000F7010008F7010008F7010008F70100085F
:1001A000A5650008F7010008F7010008F70100083D
:1001B000F7010008F7010008F7010008F70100083F
:1001C000F7010008F7010008DFF80CD000F0FCFA96
:1001D00000480047D1810008701000200648804781
:1001E00006480047FEE7FEE7FEE7FEE7FEE7FEE71C
:1001F000FEE7FEE7FEE7FEE721720008C9010008FE
:100200002DE9F05F0546002092469B46884606464B
:10021000814640241BE0284641464746224600F0DE
:10022000CCF953465A46C01A914110D3114618468C
:10023000224600F0B3F92D1A67EB01084F4622461B
:100240000120002100F0AAF917EB00094E41201E01
:10025000A4F10104DFDC484631462A464346BDE8A6
:10026000F09F40EA01039B0703D009E008C9121F71
:1002700008C0042AFAD203E011F8013B00F8013B60
:10028000521EF9D27047D2B201E000F8012B491E8C
:10029000FBD270470022F6E710B513460A46044623
:1002A0001946FFF7F0FF204610BD2DE9FE4F8046AE
:1002B00081EA0300C00F0C46009021F0004123F0BA
:1002C0000045B8EB0200A94105D2404621469046C0
:1002D0001C460B46024623F00040104347D0270D32
:1002E000C7F30A00C3F30A510290401A0190402854
:1002F0006BDAC3F3130040F4801B0098924620B1E0
:100300000023D2EB030A63EB0B0B01985946C0F1B3
:100310004002504600F042F906460D465046594606
:10032000019A00F05AF910EB08006141002487EAB5
:10033000115284EAE7731A4340D0009A62B3019ADB
:10034000012A4FEA075215DC001B61EB02014FF056
:10035000004202EA0752CDE90042001C41F580113B
:1003600032462B4600F05AF903B0BDE8F08F404604
:100370002146F9E7001B61EB0201001C41F58013E7
:1003800000185B412018A2F5001747EB030140EA73
:10039000D570B6196D4111E06D084FEA360645EA91
:1003A000C0754FEA0752001B61EB0201001C41F5CA
:1003B000801149084FEA30000019514132462B465E
:1003C00003B0BDE8F04F00F01AB9009801224000D8
:1003D0000023D0EB020263EBE073009821464FEA62
:1003E000E074B8EB000061EB0401E9E783F000433F
:1003F0005BE781F0004158E72DE9FE4F81EA0304F5
:1004000004F0004421F0004100944FF0000B23F071
:10041000004350EA01045ED052EA03045BD0C3F308
:100420000A54C1F30A552C44A4F2F3340194A0FBFE
:100430000254C1F3130141F48011C3F3130343F4D5
:10044000801301FB024400FB034E840A970A44EA2E
:10045000815447EA8357A4FB076802958D0A05FB80
:1004600007854FEA932C04FB0C542705029D4FEAA5
:10047000065847EA1637B5EB08056EEB070C870EF2
:10048000920E47EA811742EA8312A7FB0201B6EBFC
:100490000B0164EB00042B0D43EA0C335E1844EBB4
:1004A0001C50DA465146E7FB0201C5F313044FEA3C
:1004B0000B3343EA14534FEA0432019C43EA060328
:1004C000A4F10C040294009CCDE900B400F0A6F85D
:1004D00003B0BDE8F08F00200146F9E7C1F30A52EE
:1004E00010B5C1F3130140F2FF3341F480119A4279
:1004F00001DA002010BD40F233439A42A2F23342A7
:1005000003DC524200F059F810BD904010BD0000CD
:1005100030B5041E71F1000404DB4FF0004440428A
:1005200064EB0101141E73F1000405DB1C464FF05F
:100530000043524263EB04038B4208BF824230BD4A
:1005400030B5041E71F1000404DB4FF0004440425A
:1005500064EB0101141E73F1000405DB1C464FF02F
:100560000043524263EB0403994208BF904230BDFE
:1005700030B50B46014600202022012409E021FA73
:1005800002F59D4205D303FA02F5491B04FA02F570
:100590002844151EA2F10102F1DC30BD202A04DB43
:1005A000203A00FA02F1002070479140C2F1200386
:1005B00020FA03F3194390407047202A04DB203AC5
:1005C00021FA02F00021704721FA02F3D040C2F173
:1005D00020029140084319467047202A06DBCB17BA
:1005E000203A41FA02F043EAE07306E041FA02F3EE
:1005F000D040C2F12002914008431946704710B51F
:10060000141E73F1000408DA401C41F10001921835
:100610005B411A4301D120F0010010BD2DE9F04DDE
:1006200092469B4611B1B1FA81F202E0B0FA80F233
:1006300020329046FFF7B2FF04460F4640EA0A0018
:1006400041EA0B0153465A46084313D0114653EA78
:10065000010019D0C8F140025046FFF7AEFF054631
:100660000E46504659464246FFF798FF084305D0CC
:10067000012004E020463946BDE8F08D0020054306
:1006800046EAE0762C4337430A986305E40AA0EB78
:1006900008000022FD0A44EA47540A3002D500202F
:1006A0000146E9E7010510196941DDE9084500192E
:1006B0006941BDE8F04DA2E72DE9F04D81EA030460
:1006C00004F0004B21F0004514464FF0000A23F0DF
:1006D000004150EA050220D054EA01021DD0C5F3C2
:1006E0000A570246C5F31303C1F31300C1F30A56B8
:1006F00040F4801543F48013A7EB0608101BD64680
:1007000008F2FD3873EB050002D308F1010801E09F
:1007100092185B41B8F1000F03DA00200146BDE8F2
:10072000F08D00204FF48011064684460EE0171B22
:1007300073EB050705D3121B63EB050306434CEA75
:10074000010C49084FEA300092185B4150EA01075A
:10075000EDD152EA030012D082EA040083EA0501D7
:10076000084305D0101BAB4106D20122002306E04E
:1007700000224FF0004302E06FF0010253101AEB29
:1007800006004CEB085110EB0A0041EB0B01BDE8F1
:10079000F04DFFF734BFC1F30A52C1F3130140F229
:1007A000FF3341F480119A4202DA0020014670477B
:1007B00040F233439A42A2F2334202DC5242FFF744
:1007C000FCBEFFF7EBBE0000064C074D06E0E068FC
:1007D00040F0010394E8070098471034AC42F6D388
:1007E000FFF7F6FC90B70008B0B7000870B58C189A
:1007F00010F8015B15F0070301D110F8013B2A1135
:1008000006D110F8012B03E010F8016B01F8016B21
:100810005B1EF9D12B0705D40023521E0DD401F81D
:10082000013BFAE710F8013BCB1A921C03E013F8E6
:10083000015B01F8015B521EF9D5A142D8D300201B
:1008400070BD704703F094BD014805F06FBD000016
:10085000E40600203EB50224002202ABADF80820D9
:10086000CDE900340A4623460146064805F018FE45
:10087000BDF808000102000AC1F3072140EA012087
:100880003EBD0000E406002037B582B00A460224CF
:1008900004ABBDF81010CDE9003423460D02090A5F
:1008A0002D0A41EA0521ADF810100146024805F075
:1008B0000CFE05B030BD0000E40600200B4810B56A
:1008C00000F0C4FC00F064FBC1884FF6FF70012308
:1008D00007A2C1EBC10100EA4101002000F074FA57
:1008E000BDE81040022000F001BD00000000FFFF45
:1008F00020202020202020444D4120204552524FCE
:1009000052202020202000000149012088607047EB
:10091000D00000202DE9F0410646384886B0016835
:1009200041F4000101600068344D00F400000590BE
:10093000143D286840F04000286028680024022701
:1009400000F040004FF48068CDF80080CDE90174DC
:100950000A210397CDE904102948694603F028FDD0
:10096000286840F08000286028686946CDE9024781
:1009700000F080000590B803CDE90004214803F0A1
:1009800017FD286840F480002860286800F4800083
:1009900005901D48316881421DD11C49C2144FF099
:1009A000030C970143144C6085158C60C1E9034822
:1009B000C1E90874C1E90AC415480C6341F8140B75
:1009C000124881E82C00143931678E6303F01FFB55
:1009D0000E4803F01DFC00220F21462004F04CF9C4
:1009E000462004F03BF900220F21282004F044F9AE
:1009F000282004F033F906B0BDE8F0814438024005
:100A000000180240001C0240245C0140B00B002092
:100A1000B86402402DE9F041B0F5407F17460E461C
:100A20004FF001053BD106F02BFB06F0A3FB1D4860
:100A30000022394600F04EF81A491B480860084663
:100A400004F0CAFF18B917480021FFF763FF1549E2
:100A50001548843920380860084604F0BDFF20B9E5
:100A600010480021843800F061F801213A46002046
:100A700006F014FB0D4C3420A1688847A0F509410D
:100A800094390CD1E16A3420884709480025322284
:100A90003B4646F44071446034202468A047284611
:100AA000BDE8F081CC0A0020245C0140D801002080
:100AB000A00100208AB20146024810B505F086F870
:100AC000002010BDCC0A0020014902208860704738
:100AD000D000002010B5A2B00C46684604F034F9EE
:100AE000A4F52C5111394FF480104FF4800115D02A
:100AF000A4F5AC42223A11D0A4F52C42443A0DD0D0
:100B0000072301244FF4AC72109109940393CDE9AB
:100B10000002684604F042FA22B010BD022340F2FF
:100B2000AD121324F0E77047704700002DE9F04F35
:100B30000646474887B0016841F40001016000683B
:100B4000434F00F400000590143F386840F4807073
:100B50003860386800F480700590386840F4807020
:100B60003860386800F480700590386840F4807010
:100B7000386038684FF002080325DFF8D8B000F479
:100B800080704FF00A098021CDE9001800246946E1
:100B9000CDE90490CDE90245584603F009FC202137
:100BA000584602AACDE90018694682E8300203F0EF
:100BB000FFFB02AA4FF0400A6946584682E830021D
:100BC000CDE900A803F0F4FB10226946CDE9002826
:100BD00002AA584682E8300203F0EAFB386840F483
:100BE00080003860386800F4800005901A48316849
:100BF000814221D1194903156A06C7144FF4807840
:100C00004A600420C1F808A0DA01C1E90343C1F831
:100C10001C804FF4005CC1E90A54114B0C630B605B
:100C2000C1E90820C1E9057CF16608468E6303F03E
:100C3000EEF90A4803F0ECFA00220E213C2004F001
:100C40001BF83C2004F00AF807B0BDE8F08F000064
:100C50004438024000200240045C0140500B002058
:100C60007064024070B505460C488AB20C462946AD
:100C70004068C3683420984708B1012070BDB4F5BE
:100C8000003F01D2600801E04FF6FF70294682B2B2
:100C9000034804F0F9FF002070BD0000A00100200F
:100CA000480A002010B5084C21680A6822F48032F6
:100CB0000A602066204604F093FE2068016841F433
:100CC0008031016010BD0000480A0020054910B5C0
:100CD00049684A6A014634209047002800D0012024
:100CE00010BD0000A0010020054910B549680A6A3E
:100CF000014634209047002800D0012010BD00009C
:100D0000A0010020704700001CB5044600F05EF909
:100D1000034600F04BF902460020CDE900040648E6
:100D2000064C006800EB800101EBC00104EB81017F
:100D3000C96D05F0F7FB1CBD740100200008002000
:100D40000648C02330B408240522046061034361CF
:100D5000C261C16230BC04F021B900007C070020F0
:100D600030B40A4C0A4B246804EB440403EB8403BC
:100D70009B689C881D68E41DDB88E408203A14FB0E
:100D800002F203FB025230BC02F0C8BD7401002025
:100D9000E8080020094810B50068816941F00101A8
:100DA000816101220648110303F0F3FB012205488B
:100DB000BDE81040082103F0ECBB00000008002053
:100DC00000200240002802402DE9F0470027044699
:100DD0001546894610463A4600E0521C10F8011BA1
:100DE0000029FAD100F0E2F8DFF89CC0012B274E71
:100DF000DCF8001001EB410106EB8101896889886C
:100E0000B0FBF1F002D0022B09D104E0801A484374
:100E100004EB500002E0801A4843001B84B247F6FE
:100E2000FF71601E884200D30124E04600F0BEF846
:100E30000146D8F8000000EB400006EB8000806817
:100E4000808807FB101189B2814213D3012012E080
:100E500049462046FFF784FFD8F800007F1CBFB248
:100E60006D1C00EB400006EB800080688088204409
:100E700084B2DBE700202A780AB1012100E00021DA
:100E80000842E5D1BDE8F08774010020E8080020A1
:100E9000164B70B506460D461868154C00EB8001E0
:100EA00001EBC00004EB8000806C02280ED000F043
:100EB0007DF8196805FB006001EB810303EBC101BC
:100EC00004EB8101C96D41F8202070BD00F06EF87F
:100ED000196805FB006001EB810303EBC10104EB22
:100EE0008101C96D21F8102070BD0000740100203F
:100EF000000800202DE9FC419846234B0746234E6D
:100F000015460C46186800EB400056F8200000F02B
:100F1000B9F91868A6F1E80200EB800101EBC00006
:100F200002EB8000806C02281FD000F03FF81968A7
:100F300000FB047001EB810404EBC10102EB8101B1
:100F4000C96D01EB800400BF00F030F8411B186848
:100F5000434600EB400256F82220CDE900122A4613
:100F6000214605F0DFFABDE8FC8100F01FF81968A2
:100F700000FB047001EB810404EBC10102EB810171
:100F8000C96D01EB4004DFE774010020E808002090
:100F900004480549006800EB400001EB80008068D0
:100FA0007047000074010020E80800200548006830
:100FB00000EB800101EBC000034901EB8000006EF3
:100FC00070470000740100200008002005480068F8
:100FD00000EB800101EBC000034901EB8000406E93
:100FE0007047000074010020000800202DE9F04146
:100FF000224C2820092140F21B1604F1140840F26B
:101000001525352240F21D1C0B2340F2352788E8B8
:10101000EF1000212046FFF793FE4FF4F072226696
:101020004FF488716166002084F8340084F835003C
:1010300084F836006060A060114AE06022602061A0
:10104000204603F0E9FC18B90021204600F05CF8C6
:101050000A4803F049FD01220A48110303F099FAF6
:1010600009480122082103F094FA00F095F9074895
:1010700000F0FAF80020BDE8F08100000008002030
:101080000068014000200240002802407801002052
:1010900030B58DB00A46002304460093FFF786FF63
:1010A000CDE90103FFF792FFFF21039007208DF8A0
:1010B000303009924FF4C0658DF83130CDE90431FC
:1010C00006938DF83230CDE90750FFF76FFF0A9095
:1010D000FFF77CFF0B9022460948694603F072FC3B
:1010E000074904EB44004FF0FF34E83101EB800284
:1010F00023065460034C946041F820300DB030BD9D
:1011000000080020780100204748F0B5016887B04A
:1011100041F080610160006800F080600590424805
:101120001438016841F400010160016801F4000114
:101130000591016841F010010160016801F01001A2
:101140000591016841F040010160016801F0400132
:101150000591016841F480710160016801F48071BA
:101160000591016841F400710160016801F40071AA
:101170000591016841F480610160016801F48061BA
:101180000591016841F480710160016801F480718A
:101190000591016841F480610160006802240E2518
:1011A00000F4806005901020CDE9000402A8002121
:1011B00080E832001D48694603F0FAF8E602694605
:1011C000092004901A48CDE9006403F0F1F8194FA2
:1011D0004FF46640CDE9000469463846049503F0B3
:1011E000E7F84EF6FF706946CDE900041248049511
:1011F00003F0DEF80495F720104D6946CDE90004B0
:10120000284603F0D5F8012469463846CDE9006444
:1012100003F0CEF808206946CDE90004284603F023
:10122000C7F807B0F0BD000044380240001002408B
:101230000018024000200240002402400028024022
:101240000149086070470000740100200449054A04
:10125000096801EB410102EB810148607047000021
:1012600074010020E80800200449054A096801EBE0
:10127000410102EB81018860704700007401002089
:10128000E80800200349044A096801EB410142F8DB
:101290002100704774010020E808002030B50028C4
:1012A00087B01BD10F490E4D086840F4807008606C
:1012B000086803220C4C00F480700590012021681E
:1012C000CDE90010CDE902026946284603F070F826
:1012D0002088002281B2284603F05BF907B030BDB8
:1012E0000020024030380240748C00080349044A50
:1012F00031F8101052F8200003F046B9788C00083D
:101300006801002030B504001E4887B0026842F42E
:101310008072026000684FF002031B4D1B4A00F40C
:10132000807005904FF0000049B1012912D135F8C5
:101330001410CDE90203009174B115480DE035F8A1
:101340001410CDE90010CDE9020352F824006946DB
:1013500003F02EF807B030BD0E486946019052F8F0
:10136000240003F025F8084D00220F21AD1D15F8CB
:10137000140040B203F080FC15F8140040B203F0F2
:101380006DFCE7E730380240788C000868010020E7
:1013900000002110000011101B4802222DE9F0412D
:1013A00000F13401174E07230660042581E82C0064
:1013B000CB6000240A61D7014A6110238A6191023F
:1013C00044604026C0E902454A00C0E90741C0E93F
:1013D00009241030002180E8C800103800F05AF8C5
:1013E00009490948343104F0ADFC084D10B1012021
:1013F000287000E02C7040F2036000F009F82878B3
:10140000BDE8F081400100A0C0090020900100204B
:101410002DE9F8431E4C102700254FF6FF780126D2
:10142000009521468146C4E90067C4E90265A1F13F
:101430005000424604F0BAFC02202146C4E90007ED
:10144000C4E90265A1F15000424604F0AFFC03215B
:101450004246C4E9001708202146C4E90205A1F16B
:10146000500004F0A3FC4FF40870009004214246A1
:10147000C4E90260C4E900172146A1F1500004F05C
:1014800095FCA4F150004946BDE8F84304F07CBC4B
:10149000100A0020F0B504464F4887B0016841F0BB
:1014A0000101016000684C4900F001000590083915
:1014B000086840F480000860086800F48000059027
:1014C000086840F004000860086800F00400059017
:1014D000086840F008000860086800F008000590FF
:1014E000086840F010000860086800F010000590DF
:1014F000086840F020000860086800F020000590AF
:10150000086840F040000860086800F0400005905E
:10151000086840F080000860086801210C2200F093
:10152000800005900220CDE9010108230093CDE958
:1015300003022A48694602F03BFF4CF20370009018
:101540002748694602F034FF4FF683700090254823
:10155000694602F02DFF4FF63F0000902248694691
:1015600002F026FF48F2331000902048694602F04E
:101570001FFF282000901E48694602F019FF1D49F0
:101580004FF4007500224FF0800CEE006F004A60AF
:101590006801C1E902C5C1E904761831164EC300DD
:1015A000032581E80D00C1E903254A618A6141F8FC
:1015B000186D21630F488C6302F029FD0D4802F07D
:1015C00027FE00220F21382003F056FB382003F0BD
:1015D00045FB07B0F0BD000038380240000802406B
:1015E000000C0240001002400014024000180240AB
:1015F000001C024000090020106402402DE9F04F59
:1016000095B0584D4FF0000B06465C46CDF844B0FF
:10161000CDF848B0CDF84CB0A86801696878884723
:10162000002830707ED000240DF1100A0DF1380929
:1016300008AF8BE0A8680DF12C080AEB440208EB18
:1016400044014369687898472878012807D138F819
:10165000142029F814203AF8141027F814108107E0
:1016600005D538F81410C1F5805129F81410410738
:1016700005D53AF81410C1F5805127F81410000769
:1016800007D538F8140027F814003AF8141029F890
:101690001410DFF8D48039F8140058F82410884268
:1016A00001D9421A00E00A1A2F491FFA82FC37F8C2
:1016B0001420143151F824309A4201D9D31A00E091
:1016C0009B1A9BB26344052B03D948F8240041F8C8
:1016D000242095F801C0BCF1700F26D058F82420C2
:1016E00006EB44006B885A43120B428051F82410D9
:1016F000AA885143090B818113A8214612AB00909F
:1017000011AA604606F06AFC301911998175129988
:1017100080F82010139979B101290FD0022910D037
:10172000032900E01AE010D10DE006EB44014880E7
:1017300037F814008881DFE7012100E00221C1763B
:1017400003E00321FBE780F81BB0641C3078A04263
:101750003FF670AF304600F009F8044615B0204659
:10176000BDE8F08F94010020200A0020F8B504465F
:1017700014480026694600963546407806F01EFC5F
:101780000098182816D005DC68B110280DD0142850
:1017900006D10CE01C280FD040280FD049280FD0CC
:1017A00001252846F8BDA662FBE7012000E00220E3
:1017B000A062F6E70320FBE70420F9E70520F7E73E
:1017C0000620F5E79401002070B50C4C00260C4D66
:1017D00060807020A18029688847696870208847E8
:1017E000512802D00326304670BDA560702060707D
:1017F00008212170E9688847F5E70000940100207E
:10180000A8010020FEE710B5FFF73EF8002010BD4C
:101810002DE9F041A1F160021D2A2DED028BA0F10E
:10182000AB06A0F11F05A0F27313A0F1E7029FED34
:10183000878B884C53D220469FED871B90ED060B7B
:10184000222E0FD253EC112B51EC100BFEF760FE41
:1018500074D294ED060B53EC182B51EC100BFEF7E1
:1018600024FD10E0222D11D253EC182B51EC100B5B
:10187000FEF766FE62D294ED060B53EC182B51EC8A
:10188000100BFEF7B3FDC4E90601BDE07148222B41
:1018900090ED080B0FD253EC112B51EC100BFEF70F
:1018A00037FE4BD294ED080B53EC182B51EC100B78
:1018B000FEF7FBFC10E0222A40D253EC182B51EC2F
:1018C000100BFEF73DFE39D294ED080B53EC182BAC
:1018D00051EC100BFEF78AFDC4E9080194E0A1F178
:1018E000A1071D2F54D2222E9FED5D1B594890ED6C
:1018F0000A0B0FD253EC112B51EC100BFEF708FE24
:1019000068D294ED0A0B53EC182B51EC100BFEF738
:10191000CCFC10E0222D12D253EC182B51EC100B02
:10192000FEF70EFE56D294ED0A0B53EC182B51EC39
:10193000100BFEF75BFDC4E90A0165E04AE045488B
:10194000222B90ED0C0B0FD253EC112B51EC100B02
:10195000FEF7DEFD3ED294ED0C0B53EC182B51EC50
:10196000100BFEF7A2FC10E0222A33D253EC182B06
:1019700051EC100BFEF7E4FD2CD294ED0C0B53EC64
:10198000182B51EC100BFEF731FDC4E90C013BE0C4
:10199000A1F1DD051D2D3DD25B38362826D2324817
:1019A0000078012816D13148FFF75EFC4FF0FF3078
:1019B000FFF74CFC4FF07F40FFF764FC607868B1A4
:1019C000012807D10323E521642029A2FFF7FCF9B0
:1019D00000206070BDEC028BBDE8F0810323E5219F
:1019E000642024A2FFF7F0F90120F2E71948222B26
:1019F000017803D20A29EDD2491C04E0222AE9D257
:101A00000029E7D0491E2170BDEC028BBDE8F041F2
:101A100000F028BB8A1F272A09D20A2807D9502894
:101A200005D2BDEC028BBDE8F04100F075BF103966
:101A30001D29CFD2B0F5D27FCCD9B0F5E17FC9D284
:101A4000BDEC028BBDE8F04100F0C6BF7B14AE4791
:101A5000E17A843F080000209A9999999999D93F91
:101A6000000000000000F03FD000002080010020B6
:101A7000534F49004E4F4900104908464A78818823
:101A80004088092A18D2DFE802F00507090B0D0F7C
:101A90001113150004F074BE05F03EBD05F0A8B9A1
:101AA00005F00CB800F0BCB802F030B8FFF7B0BEDB
:101AB00005F078BC05F06AB870470000D00000203F
:101AC000F0B5059C44EA034503685C6C04F04044AF
:101AD0002C435C640368DA634268B2F5403F02D08D
:101AE0000068C160F0BD01F47F42856801F47F04A5
:101AF000224301F07F4301F47F0701F47F46CCB21B
:101B0000BDB1012D16D001F47F02C1F3C401D20C86
:101B1000022D11D0032D14D0320B390D15011A0FDF
:101B200045EA0123210943EA02320A43006882633D
:101B3000F0BD1A432243F9E7B30A5B0143EAC2222C
:101B4000F3E7F40ADB0F640144EA822242EAC3327B
:101B5000EBE700000148006B02F08ABAC0090020E0
:101B60000148C06E02F084BA480A00200148006FA4
:101B700002F07EBACC0A002001681823CAB2103ADB
:101B8000B2FBF3F2054B6FF30901032A9B5CC365BB
:101B900000D9091D8165084670470000548C000873
:101BA00010B583694FF0C074826A0146002053B1BA
:101BB000B3F5005F15D072B1012A0CD0022A0AD009
:101BC000032A09D104E01AB1012A06D0022A03D15E
:101BD000C96AC90100D5012010BDC96AA142FAD065
:101BE00010BD002AF7D0012AF2D0022AF3D0032A2E
:101BF000F3D010BD30B50468256825F48025256034
:101C0000046863608368402B036803D099600068B0
:101C1000C26030BD9A600068C16030BD704700008E
:101C200010B54D4CA1F16F021D2A2DED028B49D24A
:101C30002146A0F1AB02222A498805D240F2E730C2
:101C4000814261D2491C06E0A0F11F02222A04D27F
:101C5000002959D0491E61802EE03F4AA0F273113D
:101C60009FED3E8B222992ED040B11D251EC100B0B
:101C70009FED3C1B53EC112BFEF74AFC44D294ED34
:101C8000040B53EC182B51EC100BFEF70EFB11E07C
:101C9000E738222838D253EC182B51EC100BFEF702
:101CA0004FFC31D294ED040B53EC182B51EC100B7C
:101CB000FEF79CFBC4E90401BDEC028BBDE81040BB
:101CC00000F040BAA1F1BF021D2A28D25B383628A5
:101CD0001AD226480078012816D12548FFF7C4FA01
:101CE0004FF0FF30FFF7B2FA4FF07F40FFF7CAFA2C
:101CF000207860B1012807D10323C72164201DA2E9
:101D0000FFF762F800202070BDEC028B10BD0323AA
:101D1000C721642018A2FFF757F80120F3E78A1FB4
:101D2000272A09D20A2807D9502805D2BDEC028BF0
:101D3000BDE8104000F0F0BD10391D29E4D2B0F527
:101D4000D27FE1D9B0F5E17FDED2BDEC028BBDE8F8
:101D5000104000F0A5BE0000400000207B14AE47FC
:101D6000E17A843F000000000000F03FD000002036
:101D700080010020534F49004E4F49002DE9F041AA
:101D8000934D2846FEF7C0FFAC152046FFF77AFAC0
:101D90001E2323225F21AA20FFF7ACF81E23232253
:101DA00018465F21FFF7A6F84FF4B9761E23304698
:101DB00023225F21FFF79EF81E2323225F21E620C6
:101DC000FFF798F81E232322A021AA20FFF792F8FC
:101DD0001E2323221846A021FFF78CF81E2330462D
:101DE0002322A021FFF786F81E232322A021E6202C
:101DF000FFF780F81E233722DC215A20FFF77AF8FC
:101E00001E2330462322DC21FFF774F81E232322F1
:101E1000DC21E620FFF76EF82823462205210A2060
:101E2000FFF768F82846FFF711FA2046FFF72AFA6D
:101E30006848FFF719FA03230F21782066A2FEF7FE
:101E4000C3FF6748FFF710FA03234B21492065A21F
:101E5000FEF7BAFF40F21116032330464B2164A26D
:101E6000FEF7B2FF03238C21492064A2FEF7ACFFEA
:101E7000032330468C2164A2FEF7A6FF0323C8216A
:101E8000502064A2FEF7A0FF0323C821701F63A2A5
:101E9000FEF79AFF2046FFF7D9F926063046FFF7EE
:101EA000F1F903236821B6205FA2FEF78DFF03231B
:101EB00068212A205DA2FEF787FF4FF4BF74032339
:101EC0002046682158A2FEF77FFF03236821F220F5
:101ED00056A2FEF779FF0323A921B62052A2FEF7EE
:101EE00073FF0323A9212A2050A2FEF76DFF0323CD
:101EF0002046A9214CA2FEF767FF0323A921F22067
:101F00004AA2FEF761FF03232046E52146A2FEF721
:101F10005BFF0323E521F22044A2FEF755FF444C6A
:101F2000607810B1012803D008E0032341A201E04A
:101F3000032341A2E5216420FEF746FF3F48FFF757
:101F400093F91621032308463DA2FEF73DFF00F05A
:101F500089F83A48FFF788F92846FFF777F9A0781B
:101F60004FF4D2774FF4AA7401281FD000282CD147
:101F70004FF0FF20FFF786F91E2338460F211A463F
:101F8000FEF7B8FF2846FFF77DF9142320464622C6
:101F90001921FEF7AFFF3046FFF774F903232AA299
:101FA0002046BDE8F0411921FEF70EBF2948FFF792
:101FB00069F91E2338460F211A46FEF79BFF30466B
:101FC000FFF760F9032324A2EAE7BDE8F0810000EF
:101FD000D3D3D3FF7801002043484F52555300001C
:101FE000800100205241544520315B487A5D3A001F
:101FF0005241544520325B487A5D3A004445505482
:102000004820313A00000000444550544820323AFC
:1020100000000000574552534A413A0044454C41A4
:10202000595B6D735D3A00002B0000002D0000002D
:1020300008000020534F49004E4F490088010020FE
:10204000504F57524F540000574C41435A4F4E592E
:10205000000000000000FFFF57594C41435A4F4E0B
:102060005900000070B5314C2046FFF70BF91E23D4
:102070004FF491703722DC21FEF73CFFA015FFF7EB
:1020800001F92046FFF7E2F82948FFF7EDF8294C5F
:1020900029A1A01D94ED060B53EC102B05F0AEFA10
:1020A0000323A21D66215520FEF78EFE94ED080B3A
:1020B00021A153EC102B04F1090005F09FFA40F226
:1020C0001D1503232846662104F10902FEF77CFE54
:1020D00094ED0A0B18A153EC102B04F10C0005F041
:1020E0008DFA0323A721552004F10C02FEF76CFEA4
:1020F00094ED0C0B10A153EC102B04F10F0005F024
:102100007DFA03232846A72104F10F02FEF75CFEA7
:102110002278E01C0AA105F071FAE21CBDE87040CB
:102120000323E3214FF49670FEF74EBED3D3D3FFC3
:102130007801002008000020252E326600000000F3
:102140002564000010B5184C2046FFF79BF81E23AD
:1021500037226E215A20FEF7CDFEA015FFF792F828
:102160002046FFF773F81148FFF77EF8104C11A1D5
:10217000201D628805F042FA0323221D75215F208D
:10218000FEF722FE94ED040BE01D53EC102B0AA188
:1021900005F034FAE21D4FF491700323BDE81040BE
:1021A0007521FEF711BE0000D3D3D3FF78010020C4
:1021B0004000002025640000252E3266000000004B
:1021C00070B5204C2046FFF75DF81E2337226E21A4
:1021D0005A20FEF78FFEA015FFF754F82046FFF7B0
:1021E00035F81948FFF740F8184C19A1E01C22787F
:1021F00005F004FA0323E21C75215F20FEF7E4FDDD
:1022000094ED060B13A153EC102B04F1090005F01B
:10221000F5F94FF4917503232846752104F109025D
:10222000FEF7D2FD94ED040BA01D53EC102B09A179
:1022300005F0E4F9A21D2846BDE870400323C5213E
:10224000FEF7C2BDD3D3D3FF780100205800002091
:1022500025640000252E32660000000010B54FF006
:10226000FF30FFF70FF80C48FEF7F0FF0B48FEF7C2
:10227000FBFF0B480BA190ED020B401C53EC102B05
:1022800005F0BCF9064A03236621521CBDE8104044
:102290005520FEF799BD0000D3D3D3FF780100206D
:1022A00078000020252E32660000000010B51B4C7F
:1022B0002046FEF7E7FF1E2337226E215A20FEF745
:1022C00019FEA015FEF7DEFF2046FEF7BFFF1448FB
:1022D000FEF7CAFF134C14A1A01C94ED020B53ECA3
:1022E000102B05F08BF90323A21C75215520FEF756
:1022F0006BFD2078002810D194ED040B601D53EC89
:10230000102B0BA105F07AF9621D4FF49170032395
:10231000BDE810407521FEF757BD10BDD3D3D3FFE4
:102320007801002088000020252E31660000000082
:10233000252E32660000000070B52B4C2046FEF7BB
:10234000A1FF1E2337226E215A20FEF7D3FD1E2344
:102350003722BE215A20FEF7CDFD4FF491751E2382
:1023600028463722BE21FEF7C5FDA015FEF78AFFDD
:102370002046FEF76BFF1D48FEF776FF1C4C1DA1A3
:10238000201D227805F03AF90323221D75215F20D4
:10239000FEF71AFD94ED040BE01D53EC102B16A173
:1023A00005F02CF903232846E21D7521FEF70CFDEC
:1023B000627810A104F10A0005F020F90323C52179
:1023C0005F2004F10A02FEF7FFFCA27809A104F1E4
:1023D0000D0005F013F90323C521681D04F10D025A
:1023E000BDE87040FEF7F0BCD3D3D3FF78010020E6
:1023F000A000002025640000252E326600000000A9
:1024000010B5184C2046FEF73DFF1E2337226E21E3
:102410005A20FEF76FFDA015FEF734FF2046FEF7A9
:1024200015FF1148FEF720FF104C11A1E01C227887
:1024300005F0E4F80323E21C75215F20FEF7C4FCDD
:1024400094ED040BA01D53EC102B0AA105F0D6F857
:10245000A21D4FF491700323BDE810407521FEF7D3
:10246000B3BC0000D3D3D3FF78010020B800002014
:1024700025640000252E32660000000010B54FF0E4
:10248000FF30FEF7FFFE0A48FEF7E0FE0948FEF7C0
:10249000EBFE094809A14278801C05F0AFF8064A16
:1024A00003238B21921CBDE81040EB20FEF78CBC6F
:1024B000D3D3D3FF78010020000000202564000062
:1024C0002DE9F041644D2846FEF71EFCAC15204670
:1024D000FEF7D8FE1E2323226E21AA20FEF70AFD56
:1024E0001E23232218466E21FEF704FD1E234FF4FF
:1024F000B97023226E21FEF7FDFC1E2323226E21DC
:10250000E620FEF7F7FC1E233722BE215A20FEF7F5
:10251000F1FC2823462205210A20FEF7EBFC284681
:10252000FEF794FE2046FEF7ADFE4C48FEF79CFEFB
:1025300003230F2178204AA2FEF746FC4A48FEF703
:1025400093FE03235A21442048A2FEF73DFC0323B7
:102550004FF491705A2148A2FEF736FC0323AA21BA
:102560004B2047A2FEF730FC2046FEF76FFE260602
:102570003046FEF787FE03237721B62042A2FEF7FE
:1025800023FC032377212A2040A2FEF71DFC03230E
:102590004FF4BF7077213CA2FEF716FC032377218E
:1025A000F2203AA2FEF710FC394C207810B1012835
:1025B00003D008E0032337A201E0032336A2C7219A
:1025C0006420FEF701FC3548FEF74EFE162103237A
:1025D000084633A2FEF7F8FBFFF7B4FD2F48FEF7DD
:1025E00043FE2846FEF732FE60784FF4D2774FF470
:1025F000AA7401281FD000282CD14FF0FF20FEF72D
:1026000041FE1E2338460F211A46FEF773FC28466A
:10261000FEF738FE1423204646221921FEF76AFCF5
:102620003046FEF72FFE03231FA22046BDE8F041EF
:102630001921FEF7C9BB1F48FEF724FE1E233846AA
:102640000F211A46FEF756FC3046FEF71BFE032309
:1026500019A2EAE7BDE8F081D3D3D3FF78010020C7
:1026600044454C41590000008001002044454C4144
:10267000595B6D735D3A00004741494E3A000000D6
:10268000574552534A413A002B0000002D000000EC
:1026900040000020534F49004E4F49008801002060
:1026A000504F57524F540000574C41435A4F4E59C8
:1026B000000000000000FFFF57594C41435A4F4EA5
:1026C000590000002DE9F041754D2846FEF71CFB2E
:1026D000AC152046FEF7D6FD1E2323226E21AA202C
:1026E000FEF708FC1E23232218466E21FEF702FC8B
:1026F0004FF4B9761E23304623226E21FEF7FAFBF3
:102700001E2323226E21E620FEF7F4FB1E23304613
:102710002322BE21FEF7EEFB1E232322BE21E6204C
:10272000FEF7E8FB1E233722BE215A20FEF7E2FB0C
:102730002823462205210A20FEF7DCFB2846FEF767
:1027400085FD2046FEF79EFD5648FEF78DFD0323CE
:102750000F21782054A2FEF737FB5548FEF784FD81
:1027600003235A21442053A2FEF72EFB03234FF4E8
:1027700091705A2152A2FEF727FB032340F2111059
:10278000AA2151A2FEF720FB0323AA214B2051A22C
:10279000FEF71AFB2046FEF759FD26063046FEF7E7
:1027A00071FD03237721B6204CA2FEF70DFB032316
:1027B00077212A204AA2FEF707FB4FF4BF740323B8
:1027C0002046772145A2FEF7FFFA03237721F22066
:1027D00043A2FEF7F9FA03232046C7213FA2FEF7E2
:1027E000F3FA0323C721F2203DA2FEF7EDFA3D4C98
:1027F000607810B1012803D008E003233AA201E079
:1028000003233AA2C7216420FEF7DEFA3848FEF718
:102810002BFD16210323084636A2FEF7D5FAFFF753
:10282000CFFC3348FEF720FD2846FEF70FFDA078C9
:102830004FF4D2774FF4AA7401281FD000282CD16E
:102840004FF0FF20FEF71EFD1E2338460F211A46CB
:10285000FEF750FB2846FEF715FD142320464622BE
:102860001921FEF747FB3046FEF70CFD032323A298
:102870002046BDE8F0411921FEF7A6BA2248FEF72E
:1028800001FD1E2338460F211A46FEF733FB304662
:10289000FEF7F8FC03231DA2EAE7BDE8F081000083
:1028A000D3D3D3FF78010020464C414E4745520018
:1028B0008001002044454C41595B6D735D3A000036
:1028C0004741494E3A000000524154455B487A5D09
:1028D0003A000000574552534A413A002B0000008D
:1028E0002D00000058000020534F49004E4F490072
:1028F00088010020504F57524F540000574C41431D
:102900005A4F4E59000000000000FFFF57594C413C
:10291000435A4F4E590000002DE9F05F2B48FEF757
:10292000A3FC2B48FEF7F0F94FF0FF342046FEF7EA
:102930008DFCDFF8A090A24601244FF00C080A2677
:102940004FF07F4B5046FEF79DFC052C03DAFEF757
:102950003DFBE63802E0FEF739FB783885B2FEF73A
:1029600025FBE117462304EB917121F00301671A5F
:1029700029466422784306EB900080B2FEF7BAFA4B
:102980005846FEF77FFC052C03DAFEF71FFBE638FE
:1029900002E0FEF71BFB7838203085B2FEF706FB1D
:1029A0007843C4EBC4022946032308EB900009EBEB
:1029B000420280B20E3AFEF707FA641C092CC1DB12
:1029C000044900200C394870BDE8F09F88010020C0
:1029D000D3D3D3FFDC00002026482DE9F041007856
:1029E000012830D12448FEF73FFCDFF890804046B4
:1029F000FEF72CFC224C4FF4D2764FF07F474FF479
:102A0000AA75A07808B301281DD14FF0FF20FEF76A
:102A100039FC1E2330460F211A46FEF76BFA40465A
:102A2000FEF730FC1423284646221921FEF762FAED
:102A30003846FEF727FC03232846192111A2FEF78A
:102A4000C3F90020A070BDE8F0811148FEF71AFC20
:102A50001E2330460F211A46FEF74CFA3846FEF781
:102A600011FC0323284619210AA2FEF7ADF9012023
:102A7000E8E70000D000002088010020D3D3D3FF76
:102A800008000020574C41435A4F4E5900000000A7
:102A90000000FFFF57594C41435A4F4E5900000068
:102AA00026482DE9F0410078012830D12448FEF76E
:102AB000DBFBDFF890804046FEF7C8FB224C4FF46A
:102AC000D2764FF07F474FF4AA75607808B301289B
:102AD0001DD14FF0FF20FEF7D5FB1E2330460F21FE
:102AE0001A46FEF707FA4046FEF7CCFB14232846A9
:102AF00046221921FEF7FEF93846FEF7C3FB0323F1
:102B00002846192111A2FEF75FF900206070BDE888
:102B1000F0811148FEF7B6FB1E2330460F211A46FE
:102B2000FEF7E8F93846FEF7ADFB032328461921E6
:102B30000AA2FEF749F90120E8E70000D0000020D2
:102B400088010020D3D3D3FF40000020574C4143DD
:102B50005A4F4E59000000000000FFFF57594C41EA
:102B6000435A4F4E5900000026482DE9F0410078A5
:102B7000012830D12448FEF777FBDFF890804046EB
:102B8000FEF764FB224C4FF4D2764FF07F474FF4B0
:102B9000AA75A07808B301281DD14FF0FF20FEF7D9
:102BA00071FB1E2330460F211A46FEF7A3F940465B
:102BB000FEF768FB1423284646221921FEF79AF9EE
:102BC0003846FEF75FFB03232846192111A2FEF7C2
:102BD000FBF80020A070BDE8F0811148FEF752FB21
:102BE0001E2330460F211A46FEF784F93846FEF7B9
:102BF00049FB0323284619210AA2FEF7E5F8012024
:102C0000E8E70000D000002088010020D3D3D3FFE4
:102C100058000020574C41435A4F4E5900000000C5
:102C20000000FFFF57594C41435A4F4E59000000D6
:102C300026482DE9F0410078012830D12448FEF7DC
:102C400013FBDFF890804046FEF700FB224C4FF468
:102C5000D2764FF07F474FF4AA75207808B3012849
:102C60001DD14FF0FF20FEF70DFB1E2330460F2134
:102C70001A46FEF73FF94046FEF704FB14232846A8
:102C800046221921FEF736F93846FEF7FBFA0323F0
:102C90002846192111A2FEF797F800202070BDE800
:102CA000F0811148FEF7EEFA1E2330460F211A4636
:102CB000FEF720F93846FEF7E5FA032328461921E6
:102CC0000AA2FEF781F80120E8E70000D00000200A
:102CD00088010020D3D3D3FF78000020574C414314
:102CE0005A4F4E59000000000000FFFF57594C4159
:102CF000435A4F4E5900000026482DE9F041007814
:102D0000012830D12448FEF7AFFADFF89080404622
:102D1000FEF79CFA224C4FF4D2764FF07F474FF4E7
:102D2000AA75607808B301281DD14FF0FF20FEF787
:102D3000A9FA1E2330460F211A46FEF7DBF840465B
:102D4000FEF7A0FA1423284646221921FEF7D2F8EE
:102D50003846FEF797FA03232846192111A2FEF7F9
:102D600033F800206070BDE8F0811148FEF78AFA60
:102D70001E2330460F211A46FEF7BCF83846FEF7F0
:102D800081FA0323284619210AA2FEF71DF8012023
:102D9000E8E70000D000002088010020D3D3D3FF53
:102DA00088000020574C41435A4F4E590000000004
:102DB0000000FFFF57594C41435A4F4E5900000045
:102DC00026482DE9F0410078012830D12448FEF74B
:102DD0004BFADFF890804046FEF738FA224C4FF469
:102DE000D2764FF07F474FF4AA75E07808B30128F8
:102DF0001DD14FF0FF20FEF745FA1E2330460F216C
:102E00001A46FEF777F84046FEF73CFA14232846A8
:102E100046221921FEF76EF83846FEF733FA0323EF
:102E20002846192111A2FDF7CFFF0020E070BDE870
:102E3000F0811148FEF726FA1E2330460F211A466C
:102E4000FEF758F83846FEF71DFA032328461921E5
:102E50000AA2FDF7B9FF0120E8E70000D00000203A
:102E600088010020D3D3D3FFA0000020574C41435A
:102E70005A4F4E59000000000000FFFF57594C41C7
:102E8000435A4F4E5900000026482DE9F041007882
:102E9000012830D12448FEF7E7F9DFF8908040465A
:102EA000FEF7D4F9224C4FF4D2764FF07F474FF41F
:102EB000AA75A07808B301281DD14FF0FF20FEF7B6
:102EC000E1F91E2330460F211A46FEF713F840465B
:102ED000FEF7D8F91423284646221921FEF70AF8EE
:102EE0003846FEF7CFF903232846192111A2FDF732
:102EF0006BFF0020A070BDE8F0811148FEF7C2F919
:102F00001E2330460F211A46FDF7F4FF3846FEF720
:102F1000B9F90323284619210AA2FDF755FF01201C
:102F2000E8E70000D000002088010020D3D3D3FFC1
:102F3000B8000020574C41435A4F4E590000000042
:102F40000000FFFF57594C41435A4F4E59000000B3
:102F50002DE9F041474D2846FDF7D6FEAC15204639
:102F6000FEF790F91E2323225F21AA20FDF7C2FF5E
:102F70001E23232218465F21FDF7BCFF282346228B
:102F800005210A20FDF7B6FF2846FEF75FF9204627
:102F9000FEF778F93848FEF767F903230F21782008
:102FA00036A2FDF711FF3848FEF75EF903234B21E7
:102FB000412036A2FDF708FF2046FEF747F9260616
:102FC0003046FEF75FF903236821B62032A2FDF7F1
:102FD000FBFE032368212A2030A2FDF7F5FE3048CE
:102FE000FEF742F91621032308462EA2FDF7ECFE58
:102FF000FFF734F92A48FEF737F92846FEF726F995
:103000002A484FF4D2774FF4AA74007801281FD0D1
:1030100000282CD14FF0FF20FEF734F91E2338464C
:103020000F211A46FDF766FF2846FEF72BF91423F9
:10303000204646221921FDF75DFF3046FEF722F9B2
:1030400003231BA22046BDE8F0411921FDF7BCBEB9
:103050001A48FEF717F91E2338460F211A46FDF7C6
:1030600049FF3046FEF70EF9032315A2EAE7BDE853
:10307000F0810000D3D3D3FF780100204F56455292
:10308000445249564500000080010020434C4950FD
:103090002056414C55453A002B0000002D00000001
:1030A00088010020504F57524F54000078000020F4
:1030B000574C41435A4F4E59000000000000FFFF9B
:1030C00057594C41435A4F4E590000002DE9F041E9
:1030D000674D2846FDF718FEAE153046FEF7D2F8CC
:1030E0001E2323226E21AA20FDF704FF1E23232284
:1030F00018466E21FDF7FEFE5E4C207860B91E2357
:103100004FF4B97023226E21FDF7F4FE1E23232213
:103110006E21E620FDF7EEFE1E235F22BE213C203D
:10312000FDF7E8FE2823462205210A20FDF7E2FEEE
:103130002846FEF78BF83046FEF7A4F84E48FEF717
:1031400093F803230F2178204CA2FDF73DFE4D4854
:10315000FEF78AF803235A2144204BA2FDF734FEE0
:10316000207830B903234FF491705A2149A2FDF71A
:103170002BFE0323AA214B2048A2FDF725FE304653
:10318000FEF764F84FF07F463046FEF77BF80323E6
:103190007721B62043A2FDF717FE032377212A20CB
:1031A00041A2FDF711FE207810B1012810D015E0E2
:1031B00003234FF4BF7077213AA2FDF705FE0323E6
:1031C0007721F22038A2FDF7FFFD032337A201E0AB
:1031D000032337A2C7214620FDF7F6FD3648FEF748
:1031E00043F816210323084634A2FDF7EDFDFFF74F
:1031F0005DF83148FEF738F82846FEF727F8607882
:103200004FF4D2774FF4AA7401281FD000282CD194
:103210004FF0FF20FEF736F81E2338460F211A46DE
:10322000FDF768FE2846FEF72DF8142320464622B7
:103230001921FDF75FFE3046FEF724F8032321A293
:103240002046BDE8F0411921FDF7BEBD2048FEF73C
:1032500019F81E2338460F211A46FDF74BFE30465B
:10326000FEF710F803231BA2EAE7BDE8F081000097
:10327000D3D3D3FF880000207801002044454C417F
:10328000590000008001002044454C41595B6D739A
:103290005D3A00004741494E3A00000057455253FD
:1032A0004A413A002B0000002D0000004144440038
:1032B0005245504C4143450088010020504F575221
:1032C0004F540000574C41435A4F4E5900000000E4
:1032D0000000FFFF57594C41435A4F4E5900000020
:1032E0002DE9F041764D2846FDF70EFDAC15204640
:1032F000FDF7C8FF1E2323226E21AA20FDF7FAFD49
:103300001E23232218466E21FDF7F4FD4FF4B976F3
:103310001E23304623226E21FDF7ECFD1E232322BF
:103320006E21E620FDF7E6FD1E232322BE21AA2002
:10333000FDF7E0FD1E2323221846BE21FDF7DAFD2E
:103340001E2330462322BE21FDF7D4FD1E23232257
:10335000BE21E620FDF7CEFD2823462205210A20C6
:10336000FDF7C8FD2846FDF771FF2046FDF78AFFEF
:103370005448FDF779FF03230F21782052A2FDF76F
:1033800023FD5348FDF770FF03235A213C2051A22F
:10339000FDF71AFD03234FF491705A2151A2FDF756
:1033A00013FD0323AA21232050A2FDF70DFD0323C3
:1033B000AA21EB2052A2FDF707FD2046FDF746FFAC
:1033C00026063046FDF75EFF03237721B62051A283
:1033D000FDF7FAFC032377212A204FA2FDF7F4FC26
:1033E0004FF4BF740323204677214AA2FDF7ECFC7B
:1033F00003237721F22048A2FDF7E6FC0323C7212F
:10340000B62044A2FDF7E0FC0323C7212A2042A2F4
:10341000FDF7DAFC03232046C7213EA2FDF7D4FCCA
:103420000323C721F2203CA2FDF7CEFC3B48FDF769
:103430001BFF16210323084639A2FDF7C5FCFEF742
:103440007BFF3648FDF710FF2846FDF7FFFE3648A4
:103450004FF4D2774FF4AA74C07801281FD0002807
:103460002CD14FF0FF20FDF70DFF1E2338460F2112
:103470001A46FDF73FFD2846FDF704FF14232046BA
:1034800046221921FDF736FD3046FDF7FBFE0323EA
:1034900026A22046BDE8F0411921FDF795BC26483B
:1034A000FDF7F0FE1E2338460F211A46FDF722FDD8
:1034B0003046FDF7E7FE032320A2EAE7BDE8F081EE
:1034C000D3D3D3FF78010020524556455242000025
:1034D00080010020524F4F4D2053495A455B255DD6
:1034E0003A00000044455054483A000050524520EC
:1034F00044454C415920315B6D735D3A000000003A
:103500005052452044454C415920325B6D735D3A21
:10351000000000002B0000002D00000088010020AA
:10352000504F57524F540000A0000020574C4143C9
:103530005A4F4E59000000000000FFFF57594C4100
:10354000435A4F4E590000002DE9F041674C204688
:10355000FDF7DAFBA5152846FDF794FE1E2323226E
:103560006E21AA20FDF7C6FC1E23232218466E21D9
:10357000FDF7C0FC1E234FF4B97023226E21FDF726
:10358000B9FC1E2323226E21E620FDF7B3FC1E2387
:103590003722BE215A20FDF7ADFC28234622052103
:1035A0000A20FDF7A7FC2046FDF750FE2846FDF750
:1035B00069FE4F48FDF758FE03230F2178204DA2E6
:1035C000FDF702FC4D48FDF74FFE03235A2144202E
:1035D0004BA2FDF7F9FB03234FF491705A214BA244
:1035E000FDF7F2FB0323AA214B204AA2FDF7ECFBD7
:1035F0002846FDF72BFE2E063046FDF743FE03233B
:103600007721B62046A2FDF7DFFB032377212A208E
:1036100044A2FDF7D9FB03234FF4BF70772140A2EA
:10362000FDF7D2FB03237721F2203EA2FDF7CCFB6E
:103630003D4D687820B1012805D0022806D00BE066
:1036400003233AA204E0032339A201E0032339A2B1
:10365000C7216420FDF7B8FB3748FDF705FE1621AA
:103660000323084635A2FDF7AFFBFEF7C9FE32483B
:10367000FDF7FAFD2046FDF7E9FDA8784FF4D27773
:103680004FF4AA7501281FD000282CD14FF0FF203D
:10369000FDF7F8FD1E2338460F211A46FDF72AFCD8
:1036A0002046FDF7EFFD1423284646221921FDF799
:1036B00021FC3046FDF7E6FD032322A22846BDE8A3
:1036C000F0411921FDF780BB2148FDF7DBFD1E23EA
:1036D00038460F211A46FDF70DFC3046FDF7D2FDA6
:1036E00003231CA2EAE7BDE8F0810000D3D3D3FF97
:1036F000780100205452454D4F4C4F00800100206E
:10370000524154455B487A5D3A00000044455054AC
:10371000483A00004B535A54414C543A00000000C0
:103720002B0000002D000000B800002053494E007F
:10373000545249005351550088010020504F5752B0
:103740004F540000574C41435A4F4E59000000005F
:103750000000FFFF57594C41435A4F4E590000009B
:1037600070B53D4C2046FDF7CFFAA5152846FDF76C
:1037700089FD2846FDF786FD2323322282214FF45E
:103780009670FDF7B7FB2323322282219620FDF7A6
:10379000B1FBFDF71BFC323881B223236422C82021
:1037A000FDF7A8FB2823462205210A20FDF7A2FBEE
:1037B0002046FDF74BFD2846FDF764FD2748FDF741
:1037C00053FD03230F21782025A2FDF7FDFA27489A
:1037D000FDF74AFD03233221642025A2FDF7F4FA08
:1037E0000323412164202FA2FDF7EEFA0323502189
:1037F000A52039A2FDF7E8FA2806FDF743FD284683
:10380000FDF724FD1621032308463BA2FDF7DCFA51
:103810001248FDF729FD03238A2139A24FF49E7037
:10382000FDF7D2FA03238A21A62036A2FDF7CCFAAF
:103830003548FDF719FDFDF7C9FB273881B2032391
:10384000CF2032A2FDF7C0FA334801784170BDE8BD
:103850007040FEF713BE0000D3D3D3FF78010020E1
:10386000474C4F534E4F5343000000008801002047
:103870005A6D69616E6120676C6F736E6F736369F7
:103880002077796A7363696F77656A2077207A6138
:103890006B7265736965203025202D20313030250D
:1038A000000000007A6163686F647A692070727A40
:1038B0007920757A796369752070727A7963697392
:1038C0006B6F7720272B27206920272D27206F72E9
:1038D000617A20706F200000776369736E69656399
:1038E00069752070727A796369736B7520275A4104
:1038F00053544F53554A2700504F57524F540000CE
:103900002B0000002D000000800100205A4153547C
:103910004F53554A00000000000000202DE9F74FEA
:1039200029480026DFF89CA0006800EB40000AEB65
:10393000800080688588C788E81D834620F00700DE
:10394000401B00F0FF0939E04FEADB010298012932
:1039500001FB060009D0022909D00178427883785A
:10396000080440EA0220184303E0007801E00088E0
:1039700040BA002480461AE02A1B02EB090101200C
:10398000491E884010EA080F009800EB04020E4818
:10399000016890B201EB410202D05AF8222002E005
:1039A0000AEB82014A680199FDF772FA641CAC4285
:1039B000E2D30198401C80B20190761CBE42C3D372
:1039C000BDE8FE8FE8080020740100204FF400607D
:1039D00000F0E2BC05480068800402D54FF42040A6
:1039E00001E04FF4006000F0D7BC0000143C01403F
:1039F000042000F0D1BCF0B5D1E90125D1E90343A1
:103A0000D1E905762A43D1F800C044EA0304D1E99C
:103A1000073542EA0402496A42EA0702BCF1010F93
:103A200042EA060208D004681A432A430A43E30B19
:103A3000DB031A4302600BE0066844682B4326F45C
:103A4000F84529430B4303606FF30E0422434260A1
:103A50000020F0BD426942EA410141610020704707
:103A600038B591E81C00C9686FF01F051A4305EBD3
:103A7000441444EA41210A4300920261002038BD07
:103A80002DE9F043914691E81C006FF00F05521E9E
:103A90002E0105EB03131A430B7E06EB04268C8ADA
:103AA0002F034FEA054C0D8A32434FF07F4808EB55
:103AB0000366CB68B9F1010F07EB05450CEB045425
:103AC0000CD081683F1107EB03331A432A4322438A
:103AD000324301F070410A43826011E08168DFF8EF
:103AE00028C0C7681B03A3F5805323432A4301EA78
:103AF0000C0132430B43836007F070442243C260E1
:103B00000020BDE8F0830000FF0F0FFF70B5A1F1AA
:103B10006F041D2C2DED028BA0F27312A0F1E703B0
:103B20009FED5C0B5D4C9FED5E8B3BD22146A0F17F
:103B3000AB05222D097803D2142955D2491C05E082
:103B40001F38222804D200294ED0491E21707FE060
:103B5000222A11D253EC102B94ED060B51EC100BD2
:103B6000FCF7D6FC40D294ED060B53EC182B51EC2D
:103B7000100BFCF79AFB12E0222B35D294ED060BCA
:103B800053EC182B51EC100BFCF7DAFC2CD294ED13
:103B9000060B53EC182B51EC100BFCF727FCC4E977
:103BA000060155E0A1F1BF051D2D57D25B3836281F
:103BB00025D23D480078012816D13C48FDF754FB3A
:103BC0004FF0FF30FDF742FB4FF07F40FDF75AFB0F
:103BD000607860B1012807D10323C721642034A293
:103BE000FDF7F2F800206070BDEC028B70BD03237E
:103BF000C72164202FA2FDF7E7F80120F3E7222A6E
:103C000011D253EC102B94ED040B51EC100BFCF77C
:103C10007FFCE9D294ED040B53EC182B51EC100B04
:103C2000FCF743FB12E0222BDED294ED040B53ECA5
:103C3000182B51EC100BFCF783FCD5D294ED040B40
:103C400053EC182B51EC100BFCF7D0FBC4E904012A
:103C5000BDEC028BBDE87040FEF7B2BA8A1F272A7E
:103C600009D20A2807D9502805D2BDEC028BBDE83D
:103C70007040FEF751BE10391D29B5D2B0F5D27F84
:103C8000B2D9B0F5E17FAFD2BDEC028BBDE8704098
:103C9000FEF76ABF000000000000F03F580000205F
:103CA0007B14AE47E17A843FD000002080010020E1
:103CB000534F49004E4F4900F0B5012604460020FD
:103CC0001E2301E05B1E05D303F01F0706FA07F56C
:103CD0000D42F7D072B1082A0AD0102A05D0182A4E
:103CE00001D1072B06D30120F0BD082BFBD201E048
:103CF000102BF8D22368596121688B6823F01803D0
:103D000013438B60F0BD000010B5040010D0607F3D
:103D100020B900202077204600F032F821790220D7
:103D2000607739B1D4E902122046FFF7C5FF48B1E8
:103D3000012010BD2168114848612068816821F088
:103D4000180181606079A0B12168206908610122B1
:103D500020686369816821F06001194381602068EF
:103D6000A369816821F08001194381606277002096
:103D700010BD21684FF0FF30E8E70000B71DC10417
:103D800008B500680649884208D10648016841F430
:103D900080510160006800F48050009008BD000070
:103DA000003002403038024070B590F83820012AC7
:103DB00023D0244C012680F83860022300EB011246
:103DC00080F83930158CD36918320A2B43EA05453F
:103DD00015D0092B13D0137B45EA0363056899B10D
:103DE000E969A1431943E961016813680B615168EE
:103DF0000A291BD0092919D01DE0022070BDD36803
:103E000003F07F432B43E9E7696AA14319436962E1
:103E1000016813688B6151680A2901D009290AD108
:103E2000D168026821F07F41916204E0D1680268A4
:103E300021F07F411162002180F8396080F838104C
:103E4000084670BD0F0003FF70B5040004D094F85D
:103E50003900002510B106E0012070BD204684F82D
:103E6000385000F01FF8022084F83900D4E900032C
:103E70000121026822F440321A4302602068A368DC
:103E8000426B22F007021A4342632068E368026C27
:103E90006FF30D021A430264E56384F839100020C1
:103EA00070BD000008B500680649884208D1064880
:103EB000016841F400010160006800F40000009016
:103EC00008BD000000B00240303802402DE9F84340
:103ED0000026044604270D4600964FF003080068AC
:103EE0000068C00726D000F059FB81461EE04068FC
:103EF000009010F0210F10D00098800603D5E06BE1
:103F000040F00200E0630098C00703D0E06B40F08F
:103F10000100E0632168212035E0681C06D000F034
:103F20003DFBA0EB0900A8424DD8A5B3206841682D
:103F30008907DCD52068C169406A01F0200100F0E2
:103F40002000084335D000F029FB81462DE0406871
:103F5000009010F0290F1FD00098000703D5E06BE8
:103F600040F00400E0630098800603D5E06B40F069
:103F70000200E0630098C00703D0E06B40F001004E
:103F8000E06321682920886084F83970012084F872
:103F90003860BDE8F88316E0681C06D000F0FEFA31
:103FA000A0EB0900A8420ED86DB120684168C9068F
:103FB000CDD5226812210120916084F839000020BB
:103FC00084F83860E5E7E16B84F8386041F020015F
:103FD000E16384F839800320DBE7F8B504460698EE
:103FE00094F83850012D10D0012684F8386002254D
:103FF00084F8395000902046FDF762FD2068016882
:1040000041F0010101600020F8BD0220F8BD70B54B
:1040100004002BD094F83500022826D02068002513
:104020002122016821F001010160206805602068FB
:104030004560206885602068C5602068056120684B
:1040400042612046FDF798FD94F85C203F219140A5
:104050008160E56325646564A564E564256565653F
:1040600084F83550002084F8345070BD012070BDB4
:104070002DE9F84304464FF00009644B0820CDF8C1
:1040800000904FF41652A56D94F85C101B682E68D2
:10409000B3FBF2F700FA01F131420FD021680A6850
:1040A00052070BD50A6822F004020A6094F85C10EB
:1040B0008840A860606D40F00100606594F85C1075
:1040C0004FF0010808FA01F0304208D02168496930
:1040D000090604D5A860606D40F00200606594F8A0
:1040E0005C1004208840304208D0216809688907A4
:1040F00004D5A860606D40F00400606594F85C1021
:1041000010208840304218D021680968090714D56A
:10411000A86020680168490304D50068000308D539
:10412000A16C07E00168C90503D4016821F008010A
:104130000160216C09B12046884794F85C1020206A
:104140008840304231D021680968C9062DD5A86061
:1041500094F8350005282068016806D0490347D542
:10416000006800031DD4616C1CE021F016010160A1
:104170002068416921F080014161206C08B9A06C80
:1041800020B12068016821F00801016094F85C30DA
:104190003F229A40AA6084F8349084F83580216DDB
:1041A0001FE0E16B09B120468847606D00282BD0E5
:1041B000606DC00714D0052084F8350020680168C0
:1041C00021F0010101600098401C0090B84203D822
:1041D00020680068C007F6D184F8349084F83580F0
:1041E000E16C002910D001B02046BDE8F04308473B
:1041F0000168C905D5D4036823F01003036084F86F
:10420000349084F83580CCE7BDE8F883580100206D
:104210002DE9F047044600F0C1F9054664B14FF0BE
:10422000000984F83490022184F835102068016870
:1042300021F0010101600EE00120BDE8F08700BF20
:1042400000F0ACF9401B052805D920216165032049
:1042500084F83500F1E720680068C007F0D1D4E9A0
:104260000020D4E90251D4E9043C284304F11805A4
:1042700019430843116895E8E00140EA0C001C4B23
:104280002843194040EA060040EA0700B8F1040F4D
:1042900040EA010003D1D4E90B131943084310602D
:1042A00020680126656A4069042D20F0070045EA70
:1042B00000050CD1D4E90A01054341B12046FDF7C0
:1042C0006FFC20B14020606584F83560B4E7206859
:1042D00045612046FDF750FC94F85C303F229A403F
:1042E0008260C4F8549084F835600020A5E700008F
:1042F0003F8010F02DE9F041044690F8340000258D
:104300000128A66D0ED094F835C00127002084F84E
:104310003470BCF1010F07D0022584F83400284620
:10432000BDE8F0810220FBE7022784F83570606564
:104330002046FDF75FFC94F85C103F208840B06099
:104340002068016841F0160101602068416941F070
:1043500080014161206C20B12068016841F00801B2
:1043600001602068016841F001010160D7E70000A9
:1043700070B5044600F012F90546601C02D00448EE
:104380000078044400F00AF9401BA042FAD370BD43
:104390004C01002070470000044910B50A68024231
:1043A00002D00860FFF7F6FF10BD0000143C01408A
:1043B0002DE9F84FDFF89CE100224FF001084FF0A3
:1043C000030B4FF00F0A00BF0B6808FA02F42340FA
:1043D000A34271D14D68022D01D0122D0FD1D50805
:1043E0000E69570700EB8505A9462D6AFF0E0AFAEC
:1043F00007FCBE4025EA0C052E43C9F820600F7962
:10440000550006680BFA05FC07F0030726EA0C06C0
:10441000AF40374307604E68012E05D0022E03D00F
:10442000112E01D0122E0ED18668CF6826EA0C0616
:10443000AF403743876046680F79A643C7F300173C
:10444000974037434760C4688E6824EA0C04AE4046
:104450002643C6604C68E40075D53F4C256845F49A
:1044600080452560246822F00306950704F4804403
:1044700000943A4C2D0F2644D6F80848DFF8E0C0E7
:104480000AFA05F7604524EA070401D100272EE067
:10449000344FB84201D1012729E0334FB84201D14E
:1044A000022724E0314FB84201D103271FE0304FEB
:1044B000B84202D104271AE045E02E4FB84201D19C
:1044C000052714E02C4FB84201D106270FE02B4FEF
:1044D000B84201D107270AE0294FB84201D1082785
:1044E00005E0284FB84201D1092700E00A27AF4074
:1044F00027437546C6F808784E68DEF80040F60394
:1045000024EA030400D51C43124E2C60361D4D686E
:104510003468AD0324EA030400D51C430D4F346016
:1045200008374D683C68ED0224EA030400D51C43BB
:10453000084D3C600C354E682C68B60224EA030432
:1045400000D51C432C60521C102AFFF43DAFBDE87F
:10455000F88F0000003C0140443802400030014028
:10456000000002400004024000080240000C02402B
:10457000001002400014024000180240001C0240DB
:1045800000200240002402400069084000D00120C1
:1045900070470AB1816170470904FBE701488068F0
:1045A000704700004C01002010B5040014D02420F6
:1045B00084F841002068016821F001010160204673
:1045C00000F0CAF90020606484F84100206384F898
:1045D000420084F8400010BD012010BD90F8410059
:1045E0007047000070B5040004D094F84100002525
:1045F00010B106E0012070BD204684F8405000F064
:10460000ACF9242084F841002068016821F0010100
:104610000160D4E9001020F07060086120688168B2
:1046200021F400418160E06821680128A06806D07B
:1046300040F404408860E068022803D006E040F4BB
:104640000040F7E721684FF40060486020212068AF
:10465000114A4368134343602068C26822F4004251
:10466000C26054F8106B0DCC104340EA0320F06098
:1046700054F81C3CD4E900021043186054F81C0D97
:10468000026842F001020260656484F8411025630B
:1046900084F84250002070BD008000022DE9FF4FD9
:1046A00083B0044690F841009A469346DDE91087AE
:1046B000DDF84890202874D15FEA080014D09FB13B
:1046C00094F8400001286CD0012084F84000FFF7E6
:1046D00065FF0122064619230090D103204601F010
:1046E0009FFD002871D103E04FF4007060646CE01E
:1046F0000025C4F82480222184F84110402084F849
:10470000420065646785534665635A4604992046AE
:10471000CDE9009601F00AFD10B184F8405054E054
:10472000618DFF2734484FF08078FF294FF0007AE1
:1047300004D927853A464346009005E0618D5346EB
:104740002185009094F828202046049901F052FD1C
:1047500000224B4604212046009601F061FDA0BBDB
:104760002068616A406A0870606A401C6062208D3F
:10477000401E81B22185608D401E6085608DD8B15C
:10478000D1B900224B4680212046009601F048FD19
:10479000D8B9608DFF2805D927853A46434600954C
:1047A00006E026E0608D53462085009594F8282089
:1047B0002046049901F01EFD608D0028C8D13246C4
:1047C0004946204601F059FD18B1012007B0BDE867
:1047D000F08F21682020094AC86121684B68134086
:1047E0004B6084F8410084F84250002084F8405027
:1047F000ECE70220EAE700000024008000E800FE69
:104800002DE9FF4F83B0044690F841009A46934645
:10481000DDE91087DDF84890202871D15FEA0800B3
:1048200014D09FB194F84000012869D0012084F889
:104830004000FFF7B3FE0122064619230090D10382
:10484000204601F0EDFC00286ED103E04FF400702B
:10485000606469E00025C4F82480212184F84110B7
:10486000402084F8420065646785534665635A4674
:1048700004992046CDE9009601F08AFC10B184F835
:10488000405051E0608DFF274FF08078FF284FF0B7
:10489000007A04D927853A464346009505E0608DA5
:1048A00053462085009594F828202046049901F06D
:1048B000A1FC32464946204601F006FDA0BB606AD5
:1048C000216800788862606A401C6062608D401ECA
:1048D0006085208D401E80B22085618DD9B1D0B910
:1048E00000224B4680212046009601F099FCD8B961
:1048F000608DFF2805D927853A464346009506E096
:1049000026E0608D53462085009594F828202046A7
:10491000049901F06FFC608D0028CAD132464946E7
:10492000204601F0AAFC18B1012007B0BDE8F08FC5
:1049300020682021074AC161206843681340436012
:1049400084F8411084F84250002084F84050ECE78D
:104950000220EAE700E800FE7047704702488168DD
:1049600002781144816070474C010020032010B58B
:1049700000F0A2F9002000F005F800F035F9002061
:1049800010BD000070B50D4D04464FF47A700C4A0E
:1049900029781268B0FBF1F0B2FBF0F001F01EFADA
:1049A00048B9102C07D200222146501E00F064F9AD
:1049B00000206C6070BD012070BD00004C01002023
:1049C000580100202DE9F041044690F8A000164659
:1049D0000F4601281DD0012584F8A050022084F83C
:1049E000A10006EB860000EBC600342204EB800039
:1049F0003830FBF736FC32463946204601F0D8FD08
:104A0000216800204D6284F8A15084F8A000BDE820
:104A1000F0810220FBE7704790F8A10070472DE974
:104A2000F0410446006800274FF00408856B466B90
:104A3000690715D5710713D5426B22F00402426352
:104A40002068C0F83C80D4F8A40040F00100C4F80D
:104A5000A40084F8A180204684F8A070FFF7DBFF53
:104A6000A80716D5B00714D520680222436B23F09F
:104A7000020343632068C263D4F8A40040F002003C
:104A8000C4F8A40084F8A180204684F8A070FFF741
:104A9000C2FF05EA06004FF00108C0070ED02168EA
:104AA0004A6B22F001024A632168C1F83C8084F815
:104AB000A180204684F8A07000F092F8280710D555
:104AC00030070ED520680822436B23F008034363A8
:104AD0002068C26384F8A180204684F8A07000F0AA
:104AE00081F8BDE8F08100002DE9F041040004D018
:104AF00094F8A100002518B107E00120BDE8F0817D
:104B0000204684F8A05000F06CF83448022184F864
:104B1000A110012202CC8B6923F070438B6194E8D1
:104B20004A001943E3681E4354F8043D31439E692B
:104B30003143996121688B6803408B602168A68AA4
:104B4000A7698B683B4343EA06438B602168CB68C7
:104B50000340CB602168A38B276ACE683E4346EAB8
:104B60000346CE6021680B6903400B612368A68C65
:104B7000A76A1969394341EA0641196121684B69FD
:104B800003404B612068A38D266B4169314341EAA4
:104B900003414161236894F8351094F83600DE6AC9
:104BA000000406F07F46DE62236840EA012094F8A4
:104BB0003460D96A31430143D9622068416B41F0C6
:104BC000060141632068816941F001018161C4F8F7
:104BD000A45084F8A120002090E7000000F800F025
:104BE00070477047704700001B4808B5016841F0E6
:104BF00080510160006800F0805000901648001D50
:104C0000016841F48041016000680022032100F442
:104C1000804000906FF00B0000F02EF8002203217E
:104C20006FF00A0000F028F8002203216FF009005D
:104C300000F022F800220321501F00F01DF803218C
:104C40000022C81F00F018F800220321BDE8084028
:104C5000481F00F011B8000040380240002809DB6E
:104C6000410900F01F028900012001F1E02190407C
:104C7000C1F80001704700000E4BF0B41B680D46F0
:104C8000C3F30223C3F10706042E00D90426191D1D
:104C9000072901D2002300E0DB1E012404FA06F1FB
:104CA0009C40491E2940641E994014402143F0BC99
:104CB00002F0B8BC0CED00E0064900F0070210B5A8
:104CC0004FF6FF040868044B204040EA02201843D6
:104CD000086010BD0CED00E00000FA051848F8B5BA
:104CE000016841F0805101600068164C00F080506E
:104CF0000090206840F480302060FFF74FFC4FF4B4
:104D00007A76054605E000BFFFF748FC401BB0423D
:104D10000FD86068C003F7D5206840F400302060E9
:104D2000FFF73CFC054606E0FFF738FC401BB042AD
:104D300001D90320F8BD60688003F5D50020F8BDD7
:104D400040380240007000404B4B30B5494901608B
:104D5000191D1C680A1DC4F3881444601C68C4F340
:104D6000014404611C68C4F30364C4601B68C3F39A
:104D7000027383600B68C3F3881343610B68C3F34A
:104D8000014303623C4B0C687C3BC4F303648461C5
:104D90000968C1F30271C1611468111D04F01F0498
:104DA00044621468C4F3042484621468C4F30144A4
:104DB000C462146804F44014C463146804F4400426
:104DC00004641C6804F4000444630C6804F4403474
:104DD00044660C6804F4402484660C6804F44014AF
:104DE000C4660C6804F4400404670C6804F003040F
:104DF00044640C6804F00C0484640C6804F030040F
:104E0000C4640C6804F0C00404650C6804F44074C5
:104E100044650C6804F4406484650C68164D04F421
:104E20004054C4650C68143D04F4404404660C68A6
:104E300004F0407444670C6804F0806484670C6874
:104E400004F00064C467096801F08051C0F8801064
:104E500019682B6801F4F81103F440730B430363E2
:104E60001168C90101D4002101E04FF08071816314
:104E700030BD0000F1FFFF0084380240F0B5444B24
:104E8000B0F5002F404D4FF4801E404EA3F10404B6
:104E9000404F03F10402404984464FF000000DD01A
:104EA000F44516D1D2F800C01CF4400C3CD0BCF53F
:104EB000800F4ED0BCF5000F0BD109E0D2F800C036
:104EC0001CF4401C06D0F44519D0BCF5001F00D1DD
:104ED0003846F0BD08684002086800F03F0002D480
:104EE000B5FBF0F001E0B6FBF0F019681B68146840
:104EF000C1F30362C3F38813C4F304213DE00868DF
:104F00004002086800F03F0002D4B5FBF0F001E079
:104F1000B6FBF0F0216823681468C1F3036204F063
:104F20001F01C3F3881328E008684002086800F0F6
:104F30003F0002D4B5FBF0F001E0B6FBF0F01C68D6
:104F40001B681168C4F30362C3F38813C1F304211F
:104F500013E008684002086800F03F0002D4B5FB87
:104F6000F0F001E0B6FBF0F0256823681168C5F3A6
:104F7000036201F01F01C3F388134343491CB3FBD1
:104F8000F2F0B0FBF1F0F0BD0024F40040787D01B8
:104F9000883802400080BB00043802402DE9F84FF9
:104FA00004460078DFF824944FF000063746C00727
:104FB0000ED0D9F8001021F40001C9F80010D9F87A
:104FC0000010626B1143C9F80010606B00B9012634
:104FD000FE4D2068843500030ED5E16B286820F46F
:104FE000401008432860E06BB0F5801F01D010B17D
:104FF00002E0012600E0012720684FF4800BC00288
:105000000CD5216C286820F4400008432860206CEF
:10501000584501D1012601E000B901272068C101EE
:1050200000D50126800666D5E8483830016841F091
:10503000805101600068DFF898A300F08050009074
:10504000DAF8001041F48071CAF80010FFF7A6FAF0
:10505000804605E0FFF7A2FAA0EB080064287DD89F
:10506000DAF80000C005F5D5DFF8608308F16808BC
:10507000D8F8000010F440702AD0218E01F440715D
:10508000814225D0D8F80010D8F8002021F44071D2
:1050900042F48032C8F80020D8F8002022F4803290
:1050A000C8F80020C8F80010D8F80000C0070FD0DA
:1050B000FFF774FA824607E0FFF770FAA0EB0A01E7
:1050C00041F288308142CAD8D8F800008007F3D571
:1050D000206BC0F3012103297ED0D9F8001021F400
:1050E000F811C9F80010228ED8F80010C2F30B0294
:1050F0001143C8F800102078C00607D5286820F0B2
:10510000807028602868A16B084328602188AF4818
:105110008830490405D5626E016821F4403111439D
:1051200001602188090405D5A26E016821F440219F
:10513000114301602168C90305D5E26E016821F4BD
:105140004011114301602168890305D5226F016870
:1051500021F4400111430160217800E018E1490683
:1051600005D5626C016821F00301114301602178CB
:10517000090605D5A26C016821F00C0111430160FC
:105180002188C90505D5E26C016821F03001114381
:1051900001602188890505D5226D016821F0C001D3
:1051A000114301602188490505D5626D016821F42C
:1051B0004071114301602188090505D5A26D016880
:1051C00021F44061114301602188C90407D5E26DD3
:1051D000016821F4405100E041E011430160218861
:1051E000890405D5226E016821F440411143016014
:1051F0002168490205D5A26F016821F08061114341
:10520000016021684FF0006A890209D5E26F0168E8
:1052100021F0006111430160E16F514500D1012788
:1052200021680A0700D50127490305D5626F016887
:1052300021F04071114301602168090206D5D4F8BC
:105240008020016821F0805111430160DFF88491D2
:10525000012E0ED02068B0F1007F0AD08FE05E4AA8
:10526000D9F80030104023F4F8120243C9F80020A6
:1052700039E7D9F800004E4620F08060C9F80000F8
:10528000FFF78CF9804605E0FFF788F9A0EB0800EE
:1052900064287DD830680001F6D421784B487C30F2
:1052A000C90712D0616B81B9237A62680168D0F8AE
:1052B00000C09201C1F3014142EA0142CCF3036113
:1052C00042EA016141EA0371016021680A0303D5E2
:1052D000E26BB2F5801F04D0C9021AD5216C594582
:1052E00017D16368016894F80CC002689B01C1F390
:1052F000014143EA0141C2F3027241EA0C6141EA11
:10530000027101602968626A21F01F01521E114377
:1053100029602168C90110D5238A62680168D0F824
:1053200000C09201C1F3036142EA034242EA016212
:10533000CCF3027142EA01710160216889010CD548
:105340006168228A237B94F808C0890141EA0241FE
:1053500041EA036141EA0C7101603168B04641F0F5
:1053600080613160FFF71AF9064604E0FFF716F98D
:10537000801B64280CD8D8F800000001F6D56FB364
:10538000D9F800004E4620F08050C9F8000000E037
:1053900079E0FFF703F9074605E000BFFFF7FEF8E5
:1053A000C01B64286FD83068C0438000F6D507481A
:1053B000216880300A0301D5E26B1AB1C90225D5F4
:1053C000216C19BB63690168277E08E00838024038
:1053D0000070004000380240FFFCFF0F5AE00268F6
:1053E000C1F301419B0143EA0143C2F3027143EA65
:1053F000076242EA0171016029686FF0FF03A26A47
:1054000021F4F85103EB022211432960216889023B
:1054100012D5E16F51450FD1238C6269016807688D
:105420009201C1F3036142EA034242EA0162C7F317
:10543000027142EA017101602178090716D561699C
:105440000268D0F800C08B01277FC2F30362CCF35F
:10545000014143EA014141EA026141EA0771016009
:105460002868E16A20F4403008432860306840F042
:1054700080503060FFF792F8044607E0FFF78EF89F
:10548000001B642802D90320BDE8F88F3068C043B0
:105490008000F3D40020F7E72DE9F04705000F4620
:1054A00063D0444E306800F00F00B84209D2306833
:1054B00020F00F0038433060306800F00F00B84231
:1054C00053D128683C4C810712D5400703D520688A
:1054D00040F4E05020602878000703D5206840F4AD
:1054E00060402060A968206820F0F0000843206038
:1054F0002878C0072AD0304968680839012810D0B8
:105500000968022810D0890700292EDA216821F0C5
:10551000030101432160FFF741F8804641F28839D9
:105520000DE009688903EFE78901EDE7FFF736F839
:10553000A0EB0801494502D90320BDE8F08768685F
:10554000216801F00C01B1EB800FEFD1306800F061
:105550000F00B8420BD9306820F00F00384330609C
:10556000306800F00F00B84201D00120E5E728784C
:10557000400705D5E968206820F4E0500843206022
:105580002878000706D52869216821F4604141EA9E
:10559000C000206000F016F82168084AC1F303112A
:1055A000515CC840064908600020FFF7EBF9002075
:1055B000C3E70000003C0240083802405C8C000851
:1055C00058010020154910B51548096811F00C0262
:1055D00013D01449042A0FD0082A0ED10F4C241FCF
:1055E0002268236802F03F025B0207D52068C0F3FF
:1055F0008810A0FB010106E0084610BD2168C1F338
:105600008811A1FB00010023FAF7FAFD2168C1F31C
:105610000141491C4900B0FBF1F010BD08380240BF
:105620000024F40040787D012DE9F84F05004FF08B
:1056300000076ED02878DFF81C93A9F1040AC00790
:10564000AAF104044CD0D9F800104846C1F38101F6
:10565000012908D00068C0F3810002280AD1DAF8D5
:105660000000400206D52068800339D5686800280C
:10567000DFD035E06868B0F5803F0BD010B1B0F5F1
:10568000A02F11D0206820F480302060206820F402
:10569000802002E0206840F480302060686890B18B
:1056A000FEF77CFF06460AE0206840F48020206078
:1056B000F0E700BFFEF772FF801B642872D82068F5
:1056C0008003F7D50CE0FEF769FF064605E000BF52
:1056D000FEF764FF801B6428F0D820688003F7D4AD
:1056E0002878800742D5D9F80010484611F00C0FF1
:1056F00008D00068C0F3810002280BD1DAF800005E
:10570000400207D42068800718D5E868012800D136
:1057100014E01CE1E8680028206817D040F0010080
:105720002060FEF73BFF064605E000BFFEF736FFB0
:10573000801B0228C2D820688007F7D52869216815
:1057400021F0F80141EAC00020600FE020F00100E4
:105750002060FEF723FF064605E000BFFEF71EFFB0
:10576000801B02281ED820688007F7D428780007FD
:1057700029D5784869696C3000298046016812D0C3
:1057800041F001010160FEF709FF064605E000BF98
:10579000FEF704FF801B022804D8D8F80000800719
:1057A000F6D510E089E021F001010160FEF7F6FE78
:1057B000064604E0FEF7F2FE801B02287DD8D8F8EA
:1057C00000008007F6D4287840076BD5DFF8848185
:1057D00008F13808D8F80000C0000BD4D8F8001041
:1057E00041F08051C8F80010D8F80000012700F0FF
:1057F0008050009058480168C90512D4016883465A
:1058000041F480710160FEF7C9FE064605E000BF65
:10581000FEF7C4FE801B64284FD8DBF80000C005EB
:10582000F6D54C4EA868683601280AD008B105287C
:1058300011D0306820F001003060306820F00400A2
:1058400002E0306840F001003060A868A0B1FEF7C7
:10585000A5FE83460CE0306840F004003060F0E7BD
:10586000FEF79CFEA0EB0B0141F28830814266D826
:1058700030688007F4D50EE0FEF790FE834607E01F
:10588000FEF78CFEA0EB0B0141F28830814256D826
:1058900030688007F4D42FB1D8F8001021F080517F
:1058A000C8F80010A869C8B3D9F80010C1F3810185
:1058B00002294CD00228206800E040E020F08070EF
:1058C000206003D0FEF76AFE05463BE0FEF766FE69
:1058D000064604E0FEF762FE801B02282FD82068EF
:1058E0008001F7D4D5E90962D5E907011B4B5708B8
:1058F00095F82C20084303EB074343EA861108433D
:1059000040EA026040F00050CAF80000206840F011
:1059100080702060FEF742FE054606E015E000BFFD
:10592000FEF73CFE401B022809D820688001F7D50D
:105930000BE000BFFEF732FE401B022802D9032015
:10594000BDE8F88F20688001F4D40020F8E701203A
:10595000F6E7000008380240007000400000FFFF3A
:1059600070B504001BD0022084F87D00002521685A
:10597000C01E0D6121688861204601F047FB206848
:10598000416841F008014160204600F01DF9C4F86B
:10599000805084F87D50002084F87C5070BD012038
:1059A00070BD000070B50B4800F016F805460948B8
:1059B000843000F011F8022D044601D0122D01D1DF
:1059C000FBF7B1F8022C01D0222C01D1FAF776FFB7
:1059D00070BD0000480A002090F87D00704700006C
:1059E0002DE9F0474FF000060400354604D094F846
:1059F0007D00B14618B107E00120BDE8F0872046E0
:105A000084F87C9000F0E1F8022084F87D002046C4
:105A100001F0FCFAE06838B1012802D0022803D175
:105A200001E0102600E02026A16861B1012906D01E
:105A300002294FF4006005D0032904D10EE04FF491
:105A4000806500E005465C495B4A20682031904251
:105A500001D0884205D15848001F03E046F00106F6
:105A6000F0E756480660E06948B323680020934297
:105A700001D08B4203D14FF40020FFF7FFF94F4ACA
:105A80002168121D914203D04C4A2432914203D125
:105A90004FF48010FFF7F2F9E16900EB80000A2271
:105AA00040004902B0FBF1F0B0FBF2F3B0FBF2F1C1
:105AB000216202FB1300082801D9491C2162606899
:105AC0004FF40078E8B3022871D0E06B012801D0D0
:105AD0004FF000082068DFF8E8C06FF0FF01394E92
