:020000040800F2
:10000000680B0020DD01000835440008B73A0008FD
:10001000E942000835130008C94700080000000045
:100020000000000000000000000000008D460008F5
:10003000BD14000800000000374400088F46000887
:10004000F7010008F7010008F7010008F7010008B0
:10005000F7010008F70100082D180008F701000853
:1000600051180008F7010008F7010008F70100081F
:10007000F7010008F7010008F7010008F701000880
:10008000F7010008F7010008F7010008F701000870
:10009000F7010008F7010008F7010008F701000860
:1000A000F7010008F7010008F7010008F701000850
:1000B000F7010008F7010008F7010008F701000840
:1000C000F7010008F7010008F7010008F701000830
:1000D000F7010008F7010008F7010008F701000820
:1000E00035180008F7010008F7010008F7010008BB
:1000F000F7010008F7010008F7010008F701000800
:10010000F7010008F7010008F7010008F7010008EF
:10011000F7010008F7010008F7010008F7010008DF
:10012000F5130008F7010008F7010008F7010008BF
:1001300001140008F7010008F7010008F7010008A2
:10014000F7010008F7010008F7010008F7010008AF
:10015000F7010008F70100080D140008F701000876
:10016000F7010008F7010008F7010008F70100088F
:10017000F7010008F7010008F7010008000000007F
:10018000F7010008F7010008F7010008F70100086F
:10019000F7010008F7010008F7010008F70100085F
:1001A000DD3F0008F7010008F7010008F70100082B
:1001B000F7010008F7010008F7010008F70100083F
:1001C000F7010008F7010008DFF80CD000F0A2F8F2
:1001D00000480047254D0008680B0020064880476E
:1001E00006480047FEE7FEE7FEE7FEE7FEE7FEE71C
:1001F000FEE7FEE7FEE7FEE71D470008C90100082D
:100200002DE9F05F0546002092469B46884606464B
:10021000814640241BE0284641464746224600F0DE
:1002200069F853465A46C01A914110D311461846F0
:10023000224600F050F82D1A67EB01084F4622467F
:100240000120002100F047F817EB00094E41201E65
:10025000A4F10104DFDC484631462A464346BDE8A6
:10026000F09F40EA01039B0703D009E008C9121F71
:1002700008C0042AFAD203E011F8013B00F8013B60
:10028000521EF9D27047D2B201E000F8012B491E8C
:10029000FBD270470022F6E710B513460A46044623
:1002A0001946FFF7F0FF204610BD30B50B4601465A
:1002B00000202022012409E021FA02F59D4205D305
:1002C00003FA02F5491B04FA02F52844151EA2F1AF
:1002D0000102F1DC30BD202A04DB203A00FA02F1F1
:1002E000002070479140C2F1200320FA03F3194324
:1002F00090407047202A04DB203A21FA02F00021C6
:10030000704721FA02F3D040C2F120029140084325
:1003100019467047064C074D06E0E06840F00103BF
:1003200094E8070098471034AC42F6D3FFF750FF2B
:10033000C4820008E482000870B58C1810F8015BD4
:1003400015F0070301D110F8013B2A1106D110F86E
:10035000012B03E010F8016B01F8016B5B1EF9D172
:100360002B0705D40023521E0DD401F8013BFAE7F8
:1003700010F8013BCB1A921C03E013F8015B01F863
:10038000015B521EF9D5A142D8D3002070BD704741
:1003900001F048BE014803F0E5BC0000DC0100208C
:1003A0003EB50224002202ABADF80820CDE90034AE
:1003B0000A4623460146064803F08EFDBDF80800B4
:1003C0000102000AC1F3072140EA01203EBD0000FE
:1003D000DC01002037B582B00A46022404ABBDF828
:1003E0001010CDE9003423460D02090A2D0A41EA16
:1003F0000521ADF810100146024803F082FD05B05A
:1004000030BD0000DC0100200B4810B500F0B6FC48
:1004100000F056FBC1884FF6FF70012307A2C1EB25
:10042000C10100EA4101002000F066FABDE8104079
:10043000022000F0F3BC00000000FFFF202020207D
:10044000202020444D4120204552524F5220202050
:100450002020000001490120886070470000002032
:100460002DE9F0410646384886B0016841F40001A4
:1004700001600068344D00F400000590143D2868C8
:1004800040F04000286028680024022700F0400067
:100490004FF48068CDF80080CDE901740A210397FC
:1004A000CDE904102948694601F0DCFD286840F0D8
:1004B0008000286028686946CDE9024700F0800086
:1004C0000590B803CDE90004214801F0CBFD286870
:1004D00040F480002860286800F4800005901D48E2
:1004E000316881421DD11C49C2144FF0030C9701A1
:1004F00043144C6085158C60C1E90348C1E9087458
:10050000C1E90AC415480C6341F8140B124881E88C
:100510002C00143931678E6301F0D3FB0E4801F0D3
:10052000D1FC00220F21462002F000FA462002F002
:10053000EFF900220F21282002F0F8F9282002F01C
:10054000E7F906B0BDE8F0814438024000180240E7
:10055000001C0240245C0140A8060020B864024050
:100560002DE9F041B0F5407F17460E464FF00105EA
:100570003BD104F003F804F07BF81D480022394613
:1005800000F04EF81A491B480860084603F07EF850
:1005900018B917480021FFF763FF1549154884393A
:1005A00020380860084603F071F820B9104800218F
:1005B000843800F061F801213A46002003F0ECFF96
:1005C0000D4C3420A1688847A0F5094194390CD11D
:1005D000E16A342088470948002532223B4646F428
:1005E0004071446034202468A0472846BDE8F0816B
:1005F000C4050020245C014010010020D800002028
:100600008AB20146024810B503F03AF9002010BD45
:10061000C4050020014902208860704700000020C6
:1006200010B5A2B00C46684602F0E8F9A4F52C51CA
:1006300011394FF480104FF4800115D0A4F5AC426D
:10064000223A11D0A4F52C42443A0DD007230124BC
:100650004FF4AC72109109940393CDE900026846FF
:1006600002F0F6FA22B010BD022340F2AD121324BC
:10067000F0E77047704700002DE9F04F0646474805
:1006800087B0016841F4000101600068434F00F445
:1006900000000590143F386840F480703860386876
:1006A00000F480700590386840F4807038603868D5
:1006B00000F480700590386840F4807038603868C5
:1006C0004FF002080325DFF8D8B000F480704FF037
:1006D0000A098021CDE9001800246946CDE904907B
:1006E000CDE90245584601F0BDFC2021584602AA3A
:1006F000CDE90018694682E8300201F0B3FC02AA95
:100700004FF0400A6946584682E83002CDE900A819
:1007100001F0A8FC10226946CDE9002802AA58463B
:1007200082E8300201F09EFC386840F480003860B6
:10073000386800F4800005901A483168814221D160
:10074000194903156A06C7144FF480784A600420DB
:10075000C1F808A0DA01C1E90343C1F81C804FF4D5
:10076000005CC1E90A54114B0C630B60C1E908201D
:10077000C1E9057CF16608468E6301F0A2FA0A48D9
:1007800001F0A0FB00220E213C2002F0CFF83C201B
:1007900002F0BEF807B0BDE8F08F00004438024018
:1007A00000200240045C01404806002070640240C2
:1007B00070B505460C488AB20C4629464068C368A5
:1007C0003420984708B1012070BDB4F5003F01D234
:1007D000600801E04FF6FF70294682B2034803F03B
:1007E000ADF8002070BD0000D800002040050020BA
:1007F00010B5084C21680A6822F480320A6020662D
:10080000204602F047FF2068016841F48031016012
:1008100010BD000040050020054910B549680A6A6E
:10082000014634209047002800D0012010BD000070
:10083000D8000020704700001CB5044600F05EF9A7
:10084000034600F04BF902460020CDE900040648BB
:10085000064C006800EB800101EBC00104EB810154
:10086000C96D03F07BFB1CBDAC000020F80200202A
:100870000648C02330B408240522046061034361A4
:10088000C261C16230BC02F0E3B900007402002012
:1008900030B40A4C0A4B246804EB440403EB840391
:1008A0009B689C881D68E41DDB88E408203A14FBE3
:1008B00002F203FB025230BC00F060BFAC0000202B
:1008C000E0030020094810B50068816941F001018A
:1008D000816101220648110301F0B5FC012205489F
:1008E000BDE81040082101F0AEBC0000F802002075
:1008F00000200240002802402DE9F047002704466E
:100900001546894610463A4600E0521C10F8011B75
:100910000029FAD100F0E2F8DFF89CC0012B274E45
:10092000DCF8001001EB410106EB81018968898840
:10093000B0FBF1F002D0022B09D104E0801A484349
:1009400004EB500002E0801A4843001B84B247F6D3
:10095000FF71601E884200D30124E04600F0BEF81B
:100960000146D8F8000000EB400006EB80008068EC
:10097000808807FB101189B2814213D3012012E055
:1009800049462046FFF784FFD8F800007F1CBFB21D
:100990006D1C00EB400006EB8000806880882044DE
:1009A00084B2DBE700202A780AB1012100E00021AF
:1009B0000842E5D1BDE8F087AC000020E00300204C
:1009C000164B70B506460D461868154C00EB8001B5
:1009D00001EBC00004EB8000806C02280ED000F018
:1009E0007DF8196805FB006001EB810303EBC10191
:1009F00004EB8101C96D41F8202070BD00F06EF854
:100A0000196805FB006001EB810303EBC10104EBF6
:100A10008101C96D21F8102070BD0000AC000020DC
:100A2000F80200202DE9FC419846234B0746234E4F
:100A300015460C46186800EB400056F8200000F000
:100A4000B9F91868A6F1E80200EB800101EBC000DB
:100A500002EB8000806C02281FD000F03FF819687C
:100A600000FB047001EB810404EBC10102EB810186
:100A7000C96D01EB800400BF00F030F8411B18681D
:100A8000434600EB400256F82220CDE900122A46E8
:100A9000214603F063FABDE8FC8100F01FF81968F5
:100AA00000FB047001EB810404EBC10102EB810146
:100AB000C96D01EB4004DFE7AC000020E00300203B
:100AC00004480549006800EB400001EB80008068A5
:100AD00070470000AC000020E003002005480068DB
:100AE00000EB800101EBC000034901EB8000006EC8
:100AF00070470000AC000020F802002005480068A4
:100B000000EB800101EBC000034901EB8000406E67
:100B100070470000AC000020F80200202DE9F041F1
:100B2000224C2820092140F21B1604F1140840F23F
:100B30001525352240F21D1C0B2340F2352788E88D
:100B4000EF1000212046FFF793FE4FF4F07222666B
:100B50004FF488716166002084F8340084F8350011
:100B600084F836006060A060114AE0602260206175
:100B7000204601F0ABFD18B90021204600F05CF8DA
:100B80000A4801F00BFE01220A48110301F05BFB49
:100B900009480122082101F056FB00F095F90748A9
:100BA00000F0FAF80020BDE8F0810000F802002013
:100BB000006801400020024000280240B0000020F0
:100BC00030B58DB00A46002304460093FFF786FF38
:100BD000CDE90103FFF792FFFF21039007208DF875
:100BE000303009924FF4C0658DF83130CDE90431D1
:100BF00006938DF83230CDE90750FFF76FFF0A906A
:100C0000FFF77CFF0B9022460948694601F034FD4E
:100C1000074904EB44004FF0FF34E83101EB800258
:100C200023065460034C946041F820300DB030BD71
:100C3000F8020020B00000204748F0B5016887B0F6
:100C400041F080610160006800F0806005904248DA
:100C50001438016841F400010160016801F40001E9
:100C60000591016841F010010160016801F0100177
:100C70000591016841F040010160016801F0400107
:100C80000591016841F480710160016801F480718F
:100C90000591016841F400710160016801F400717F
:100CA0000591016841F480610160016801F480618F
:100CB0000591016841F480710160016801F480715F
:100CC0000591016841F480610160006802240E25ED
:100CD00000F4806005901020CDE9000402A80021F6
:100CE00080E832001D48694601F0BCF9E602694619
:100CF000092004901A48CDE9006401F0B3F9194FB6
:100D00004FF46640CDE9000469463846049501F089
:100D1000A9F94EF6FF706946CDE900041248049522
:100D200001F0A0F90495F720104D6946CDE90004C3
:100D3000284601F097F9012469463846CDE9006458
:100D400001F090F908206946CDE90004284601F039
:100D500089F907B0F0BD000044380240001002409D
:100D600000180240002002400024024000280240F7
:100D70000149086070470000AC0000200449054AA2
:100D8000096801EB410102EB8101486070470000F6
:100D9000AC000020E00300200449054A096801EB8B
:100DA000410102EB8101886070470000AC00002027
:100DB000E00300200349044A096801EB410142F8BD
:100DC00021007047AC000020E003002030B500286F
:100DD00087B01BD10F490E4D086840F48070086041
:100DE000086803220C4C00F48070059001202168F3
:100DF000CDE90010CDE902026946284601F032F93A
:100E00002088002281B2284601F01DFA07B030BDCB
:100E10000020024030380240A85700080349044A25
:100E200031F8101052F8200001F008BAAC57000851
:100E3000A000002030B504001E4887B0026842F4CC
:100E40008072026000684FF002031B4D1B4A00F4E1
:100E5000807005904FF0000049B1012912D135F89A
:100E60001410CDE90203009174B115480DE035F876
:100E70001410CDE90010CDE9020352F824006946B0
:100E800001F0F0F807B030BD0E486946019052F805
:100E9000240001F0E7F8084D00220F21AD1D15F8E0
:100EA000140040B201F042FD15F8140040B201F008
:100EB0002FFDE7E730380240AC570008A0000020C3
:100EC00000002110000011101B4802222DE9F04102
:100ED00000F13401174E07230660042581E82C0039
:100EE000CB6000240A61D7014A6110238A61910214
:100EF00044604026C0E902454A00C0E90741C0E914
:100F000009241030002180E8C800103800F05AF899
:100F100009490948343102F06FFD084D10B1012034
:100F2000287000E02C7040F2036000F009F8287887
:100F3000BDE8F081400100A0B8040020C8000020F6
:100F40002DE9F8431E4C102700254FF6FF780126A7
:100F5000009521468146C4E90067C4E90265A1F114
:100F60005000424602F07CFD02202146C4E9000701
:100F7000C4E90265A1F15000424602F071FD03216F
:100F80004246C4E9001708202146C4E90205A1F140
:100F9000500002F065FD4FF40870009004214246B5
:100FA000C4E90260C4E900172146A1F1500002F033
:100FB00057FDA4F150004946BDE8F84302F03EBD9C
:100FC00008050020F0B504464F4887B0016841F09D
:100FD0000101016000684C4900F0010005900839EA
:100FE000086840F480000860086800F480000590FC
:100FF000086840F004000860086800F004000590EC
:10100000086840F008000860086800F008000590D3
:10101000086840F010000860086800F010000590B3
:10102000086840F020000860086800F02000059083
:10103000086840F040000860086800F04000059033
:10104000086840F080000860086801210C2200F068
:10105000800005900220CDE9010108230093CDE92D
:1010600003022A48694600F0FDFF4CF2037000902D
:101070002748694600F0F6FF4FF683700090254838
:10108000694600F0EFFF4FF63F00009022486946A6
:1010900000F0E8FF48F2331000902048694600F065
:1010A000E1FF282000901E48694600F0DBFF1D4943
:1010B0004FF4007500224FF0800CEE006F004A6084
:1010C0006801C1E902C5C1E904761831164EC300B2
:1010D000032581E80D00C1E903254A618A6141F8D1
:1010E000186D21630F488C6300F0EBFD0D4800F094
:1010F000E9FE00220F21382001F018FC382001F011
:1011000007FC07B0F0BD000038380240000802407C
:10111000000C02400010024000140240001802407F
:10112000001C0240F8030020106402402DE9F04F3B
:1011300095B0584D4FF0000B06465C46CDF844B0D4
:10114000CDF848B0CDF84CB0A868016968788847F8
:10115000002830707ED000240DF1100A0DF13809FE
:1011600008AF8BE0A8680DF12C080AEB440208EBED
:1011700044014369687898472878012807D138F8EE
:10118000142029F814203AF8141027F814108107B5
:1011900005D538F81410C1F5805129F8141041070D
:1011A00005D53AF81410C1F5805127F8141000073E
:1011B00007D538F8140027F814003AF8141029F865
:1011C0001410DFF8D48039F8140058F8241088423D
:1011D00001D9421A00E00A1A2F491FFA82FC37F897
:1011E0001420143151F824309A4201D9D31A00E066
:1011F0009B1A9BB26344052B03D948F8240041F89D
:10120000242095F801C0BCF1700F26D058F8242096
:1012100006EB44006B885A43120B428051F82410AD
:10122000AA885143090B818113A8214612AB009073
:1012300011AA604603F07CFC30191199817512994E
:1012400080F82010139979B101290FD0022910D00C
:10125000032900E01AE010D10DE006EB44014880BC
:1012600037F814008881DFE7012100E00221C17610
:1012700003E00321FBE780F81BB0641C3078A04238
:101280003FF670AF304600F009F8044615B020462E
:10129000BDE8F08FCC00002018050020F8B504460A
:1012A00014480026694600963546407803F030FC25
:1012B0000098182816D005DC68B110280DD0142825
:1012C00006D10CE01C280FD040280FD049280FD0A1
:1012D00001252846F8BDA662FBE7012000E00220B8
:1012E000A062F6E70320FBE70420F9E70520F7E713
:1012F0000620F5E7CC00002070B50C4C00260C4D04
:1013000060807020A18029688847696870208847BC
:10131000512802D00326304670BDA5607020607051
:1013200008212170E9688847F5E70000CC0000201B
:10133000E0000020FEE710B5FFF74CF8002010BDDC
:1013400006480178022908D2DFE801F0010302F023
:1013500033BF8188408803F039BA7047000000200D
:10136000F0B5059C44EA034503685C6C04F0404416
:101370002C435C640368DA634268B2F5403F02D0F4
:101380000068C160F0BD01F47F42856801F47F040C
:10139000224301F07F4301F47F0701F47F46CCB282
:1013A000BDB1012D16D001F47F02C1F3C401D20CEE
:1013B000022D11D0032D14D0320B390D15011A0F47
:1013C00045EA0123210943EA02320A4300688263A5
:1013D000F0BD1A432243F9E7B30A5B0143EAC22294
:1013E000F3E7F40ADB0F640144EA822242EAC332E3
:1013F000EBE700000148006B00F094BCB80400204B
:101400000148C06E00F08EBC400500200148006F0E
:1014100000F088BCC405002001681823CAB2103A45
:10142000B2FBF3F2054B6FF30901032A9B5CC36522
:1014300000D9091D816508467047000088570008DB
:1014400010B583694FF0C074826A0146002053B121
:10145000B3F5005F15D072B1012A0CD0022A0AD070
:10146000032A09D104E01AB1012A06D0022A03D1C5
:10147000C96AC90100D5012010BDC96AA142FAD0CC
:1014800010BD002AF7D0012AF2D0022AF3D0032A95
:10149000F3D010BD30B50468256825F4802525609B
:1014A000046863608368402B036803D09960006818
:1014B000C26030BD9A600068C16030BD70470000F6
:1014C00010B54FF0FF30FFF775FC0A48FFF756FCE8
:1014D0000948FFF761FC094809A14278801C03F024
:1014E000D5F9064A03236D21921CBDE81040EB207C
:1014F000FFF702BAD3D3D3FFB00000207C00002056
:10150000256400002DE9F05F2B48FFF745FC2B48D0
:10151000FFF792F94FF0FF342046FFF72FFCDFF87A
:10152000A090A24601244FF00C080A264FF07F4BF2
:101530005046FFF73FFC052C03DAFFF7DFFAE638E9
:1015400002E0FFF7DBFA783885B2FFF7C7FAE11758
:10155000462304EB917121F00301671A29466422A6
:10156000784306EB900080B2FFF75CFA5846FFF72D
:1015700021FC052C03DAFFF7C1FAE63802E0FFF799
:10158000BDFA7838203085B2FFF7A8FA7843C4EB6B
:10159000C4022946032308EB900009EB420280B203
:1015A0000E3AFFF7A9F9641C092CC1DB044900209D
:1015B0000C390870BDE8F09FC0000020D3D3D3FFE2
:1015C0000C00002070B53F4C2046FFF735F920464F
:1015D000FFF7D4FB3C48FFF7DFFBA4152046FFF7DD
:1015E000E9FB03231E216E2038A2FFF785F90323B0
:1015F0002D216E2042A2FFF77FF903233C21AF206B
:101600004CA2FFF779F95348FFF7C6FB2046FFF7D6
:10161000B5FB2046FFF7CEFB2323322264214FF493
:101620009670FFF7FFF925062846FFF7C3FB032353
:101630006C2149A24FF49E70FFF75EF92046FFF738
:10164000B9FB2323322264219620FFF7EBF92846C9
:10165000FFF7B0FB03236C21A62040A2FFF74CF953
:101660003F48FFF799FB2046FFF7A4FB23236422A2
:10167000AA21CD20FFF7D6F92846FFF79BFB0323CD
:10168000B521D52037A2FFF737F90F48FFF784FBC4
:101690002046FFF78FFB2823462205210A20FFF76B
:1016A000C1F92846FFF786FB16210323084630A21E
:1016B000FFF722F9304801784170BDE87040FFF72C
:1016C000FFBE0000D3D3D3FFC00000205A6D696174
:1016D0006E6120676C6F736E6F7363692077796AD0
:1016E0007363696F77656A2077207A616B726573BF
:1016F0006965203025202D20313030250000000084
:101700007A6163686F647A692070727A7920757A79
:10171000796369752070727A796369736B6F77206A
:10172000272B27206920272D27206F72617A2070B0
:101730006F200000776369736E6965636975207057
:10174000727A796369736B7520275A4153544F53EA
:10175000554A2700B00000202B0000002D0000009B
:10176000B80000205A4153544F53554A000000001E
:10177000504F57524F5400007C0000202DE9F74F86
:1017800029480026DFF89CA0006800EB40000AEB27
:10179000800080688588C788E81D834620F00700A0
:1017A000401B00F0FF0939E04FEADB0102980129F4
:1017B00001FB060009D0022909D00178427883781C
:1017C000080440EA0220184303E0007801E00088A2
:1017D00040BA002480461AE02A1B02EB09010120CE
:1017E000491E884010EA080F009800EB04020E48DA
:1017F000016890B201EB410202D05AF8222002E0C7
:101800000AEB82014A680199FFF7DAF8641CAC42DE
:10181000E2D30198401C80B20190761CBE42C3D333
:10182000BDE8FE8FE0030020AC0000204FF4006014
:1018300000F00CBC05480068800402D54FF420403D
:1018400001E04FF4006000F001BC0000143C0140D6
:10185000042000F0FBBBF0B5D1E90125D1E9034339
:10186000D1E905762A43D1F800C044EA0304D1E95E
:10187000073542EA0402496A42EA0702BCF1010F55
:1018800042EA060208D004681A432A430A43E30BDB
:10189000DB031A4302600BE0066844682B4326F41E
:1018A000F84529430B4303606FF30E042243426063
:1018B0000020F0BD426942EA4101416100207047C9
:1018C00038B591E81C00C9686FF01F051A4305EB95
:1018D000441444EA41210A4300920261002038BDC9
:1018E0002DE9F043914691E81C006FF00F05521E60
:1018F0002E0105EB03131A430B7E06EB04268C8A9C
:101900002F034FEA054C0D8A32434FF07F4808EB16
:101910000366CB68B9F1010F07EB05450CEB0454E6
:101920000CD081683F1107EB03331A432A4322434B
:10193000324301F070410A43826011E08168DFF8B0
:1019400028C0C7681B03A3F5805323432A4301EA39
:101950000C0132430B43836007F070442243C260A2
:101960000020BDE8F0830000FF0F0FFFF0B5012657
:10197000044600201E2301E05B1E05D303F01F0771
:1019800006FA07F50D42F7D072B1082A0AD0102ADC
:1019900005D0182A01D1072B06D30120F0BD082B52
:1019A000FBD201E0102BF8D22368596121688B68C3
:1019B00023F0180313438B60F0BD000010B5040042
:1019C00010D0607F20B900202077204600F032F848
:1019D00021790220607739B1D4E902122046FFF75D
:1019E000C5FF48B1012010BD216811484861206839
:1019F000816821F0180181606079A0B121682069B7
:101A00000861012220686369816821F0600119433F
:101A100081602068A369816821F080011943816099
:101A20006277002010BD21684FF0FF30E8E700002A
:101A3000B71DC10408B500680649884208D10648A8
:101A4000016841F480510160006800F4805000900A
:101A500008BD0000003002403038024070B590F8F8
:101A60003820012A23D0244C012680F83860022334
:101A700000EB011280F83930158CD36918320A2B2B
:101A800043EA054515D0092B13D0137B45EA0363C0
:101A9000056899B1E969A1431943E96101681368CF
:101AA0000B6151680A291BD0092919D01DE00220B9
:101AB00070BDD36803F07F432B43E9E7696AA14314
:101AC00019436962016813688B6151680A2901D062
:101AD00009290AD1D168026821F07F41916204E0AE
:101AE000D168026821F07F411162002180F83960DD
:101AF00080F83810084670BD0F0003FF70B5040071
:101B000004D094F83900002510B106E0012070BD22
:101B1000204684F8385000F01FF8022084F839007D
:101B2000D4E900030121026822F440321A43026022
:101B30002068A368426B22F007021A4342632068C0
:101B4000E368026C6FF30D021A430264E56384F8E4
:101B50003910002070BD000008B5006806498842B1
:101B600008D10648016841F400010160006800F4F2
:101B70000000009008BD000000B002403038024074
:101B80002DE9F8430026044604270D4600964FF041
:101B9000030800680068C00726D000F059FB8146A2
:101BA0001EE04068009010F0210F10D000988006D1
:101BB00003D5E06B40F00200E0630098C00703D05B
:101BC000E06B40F00100E0632168212035E0681CF3
:101BD00006D000F03DFBA0EB0900A8424DD8A5B30C
:101BE000206841688907DCD52068C169406A01F036
:101BF000200100F02000084335D000F029FB814689
:101C00002DE04068009010F0290F1FD000980007C9
:101C100003D5E06B40F00400E0630098800603D534
:101C2000E06B40F00200E0630098C00703D0E06B77
:101C300040F00100E06321682920886084F8397051
:101C4000012084F83860BDE8F88316E0681C06D0EF
:101C500000F0FEFAA0EB0900A8420ED86DB1206892
:101C60004168C906CDD5226812210120916084F80F
:101C70003900002084F83860E5E7E16B84F83860CB
:101C800041F02001E16384F839800320DBE7F8B5F7
:101C90000446069894F83850012D10D0012684F897
:101CA0003860022584F8395000902046FFF758FB31
:101CB0002068016841F0010101600020F8BD0220A8
:101CC000F8BD70B504002BD094F83500022826D05A
:101CD000206800252122016821F0010101602068AF
:101CE000056020684560206885602068C5602068C0
:101CF0000561206842612046FFF78EFB94F85C2066
:101D00003F2191408160E56325646564A564E564D5
:101D10002565656584F83550002084F8345070BD21
:101D2000012070BD2DE9F84304464FF00009644BD3
:101D30000820CDF800904FF41652A56D94F85C1071
:101D40001B682E68B3FBF2F700FA01F131420FD0A5
:101D500021680A6852070BD50A6822F004020A605B
:101D600094F85C108840A860606D40F001006065E8
:101D700094F85C104FF0010808FA01F0304208D0E6
:101D800021684969090604D5A860606D40F0020029
:101D9000606594F85C1004208840304208D02168C7
:101DA0000968890704D5A860606D40F0040060658B
:101DB00094F85C1010208840304218D021680968DF
:101DC000090714D5A86020680168490304D5006894
:101DD000000308D5A16C07E00168C90503D40168B8
:101DE00021F008010160216C09B12046884794F870
:101DF0005C1020208840304231D021680968C90633
:101E00002DD5A86094F8350005282068016806D013
:101E1000490347D5006800031DD4616C1CE021F024
:101E2000160101602068416921F080014161206C48
:101E300008B9A06C20B12068016821F00801016098
:101E400094F85C303F229A40AA6084F8349084F879
:101E50003580216D1FE0E16B09B120468847606D38
:101E600000282BD0606DC00714D0052084F8350001
:101E70002068016821F0010101600098401C009079
:101E8000B84203D820680068C007F6D184F83490BF
:101E900084F83580E16C002910D001B02046BDE8FF
:101EA000F04308470168C905D5D4036823F010033F
:101EB000036084F8349084F83580CCE7BDE8F8837B
:101EC000900000202DE9F047044600F0C1F90546D6
:101ED00064B14FF0000984F83490022184F8351081
:101EE0002068016821F0010101600EE00120BDE8D9
:101EF000F08700BF00F0ACF9401B052805D9202170
:101F00006165032084F83500F1E720680068C007A8
:101F1000F0D1D4E90020D4E90251D4E9043C2843AB
:101F200004F1180519430843116895E8E00140EAF7
:101F30000C001C4B2843194040EA060040EA070009
:101F4000B8F1040F40EA010003D1D4E90B1319439F
:101F50000843106020680126656A4069042D20F05E
:101F6000070045EA00050CD1D4E90A01054341B157
:101F70002046FFF765FA20B14020606584F835609F
:101F8000B4E7206845612046FFF746FA94F85C30D4
:101F90003F229A408260C4F8549084F83560002053
:101FA000A5E700003F8010F02DE9F041044690F8CD
:101FB000340000250128A66D0ED094F835C0012705
:101FC000002084F83470BCF1010F07D0022584F89A
:101FD00034002846BDE8F0810220FBE7022784F8A0
:101FE000357060652046FFF755FA94F85C103F2085
:101FF0008840B0602068016841F0160101602068E7
:10200000416941F080014161206C20B12068016884
:1020100041F0080101602068016841F001010160A0
:10202000D7E7000070B5044600F012F90546601CC1
:1020300002D004480078044400F00AF9401BA04292
:10204000FAD370BD8400002070470000044910B529
:102050000A68024202D00860FFF7F6FF10BD0000D8
:10206000143C01402DE9F84FDFF89CE100224FF0CD
:1020700001084FF0030B4FF00F0A00BF0B6808FA7E
:1020800002F42340A34271D14D68022D01D0122DDC
:102090000FD1D5080E69570700EB8505A9462D6AB3
:1020A000FF0E0AFA07FCBE4025EA0C052E43C9F8CC
:1020B00020600F79550006680BFA05FC07F003074E
:1020C00026EA0C06AF40374307604E68012E05D064
:1020D000022E03D0112E01D0122E0ED18668CF68A9
:1020E00026EA0C06AF403743876046680F79A6435F
:1020F000C7F30017974037434760C4688E6824EAE7
:102100000C04AE402643C6604C68E40075D53F4CD5
:10211000256845F480452560246822F0030695076C
:1021200004F4804400943A4C2D0F2644D6F8084815
:10213000DFF8E0C00AFA05F7604524EA070401D198
:1021400000272EE0344FB84201D1012729E0334F58
:10215000B84201D1022724E0314FB84201D1032710
:102160001FE0304FB84202D104271AE045E02E4F5D
:10217000B84201D1052714E02C4FB84201D10627FF
:102180000FE02B4FB84201D107270AE0294FB84290
:1021900001D1082705E0284FB84201D1092700E006
:1021A0000A27AF4027437546C6F808784E68DEF820
:1021B0000040F60324EA030400D51C43124E2C60B1
:1021C000361D4D683468AD0324EA030400D51C4372
:1021D0000D4F346008374D683C68ED0224EA030473
:1021E00000D51C43084D3C600C354E682C68B60287
:1021F00024EA030400D51C432C60521C102AFFF46F
:102200003DAFBDE8F88F0000003C0140443802407B
:10221000003001400000024000040240000802407B
:10222000000C02400010024000140240001802405E
:10223000001C0240002002400024024000690840C7
:1022400000D0012070470AB1816170470904FBE7A3
:1022500001488068704700008400002010B5040029
:1022600014D0242084F841002068016821F0010185
:102270000160204600F0CAF90020606484F8410043
:10228000206384F8420084F8400010BD012010BD96
:1022900090F841007047000070B5040004D094F835
:1022A0004100002510B106E0012070BD204684F8F1
:1022B000405000F0ACF9242084F841002068016807
:1022C00021F001010160D4E9001020F07060086184
:1022D0002068816821F400418160E068216801285C
:1022E000A06806D040F404408860E068022803D06B
:1022F00006E040F40040F7E721684FF400604860D2
:1023000020212068114A4368134343602068C26853
:1023100022F40042C26054F8106B0DCC104340EA26
:102320000320F06054F81C3CD4E90002104318600C
:1023300054F81C0D026842F001020260656484F8E2
:102340004110256384F84250002070BD00800002D7
:102350002DE9FF4F83B0044690F841009A4693461A
:10236000DDE91087DDF84890202874D15FEA080085
:1023700014D09FB194F8400001286CD0012084F85B
:102380004000FFF765FF0122064619230090D103A4
:10239000204601F061FC002871D103E04FF4007089
:1023A00060646CE00025C4F82480222184F8411088
:1023B000402084F8420065646785534665635A4649
:1023C00004992046CDE9009601F0CCFB10B184F8C9
:1023D000405054E0618DFF2734484FF08078FF294A
:1023E0004FF0007A04D927853A464346009005E02D
:1023F000618D53462185009094F828202046049949
:1024000001F014FC00224B4604212046009601F006
:1024100023FCA0BB2068616A406A0870606A401CA7
:102420006062208D401E81B22185608D401E6085D6
:10243000608DD8B1D1B900224B468021204600964C
:1024400001F00AFCD8B9608DFF2805D927853A46E6
:102450004346009506E026E0608D534620850095B2
:1024600094F828202046049901F0E0FB608D0028B4
:10247000C8D132464946204601F01BFC18B1012064
:1024800007B0BDE8F08F21682020094AC8612168A3
:102490004B6813404B6084F8410084F842500020A0
:1024A00084F84050ECE70220EAE7000000240080B6
:1024B00000E800FE2DE9FF4F83B0044690F841008C
:1024C0009A469346DDE91087DDF84890202871D1BF
:1024D0005FEA080014D09FB194F84000012869D049
:1024E000012084F84000FFF7B3FE012206461923BD
:1024F0000090D103204601F0AFFB00286ED103E02D
:102500004FF40070606469E00025C4F82480212144
:1025100084F84110402084F8420065646785534682
:1025200065635A4604992046CDE9009601F04CFBBC
:1025300010B184F8405051E0608DFF274FF0807853
:10254000FF284FF0007A04D927853A464346009584
:1025500005E0608D53462085009594F8282020469C
:10256000049901F063FB32464946204601F0C8FB5E
:10257000A0BB606A216800788862606A401C606263
:10258000608D401E6085208D401E80B22085618D4B
:10259000D9B1D0B900224B4680212046009601F0E7
:1025A0005BFBD8B9608DFF2805D927853A4643469D
:1025B000009506E026E0608D53462085009594F84E
:1025C00028202046049901F031FB608D0028CAD1F3
:1025D00032464946204601F06CFB18B1012007B095
:1025E000BDE8F08F20682021074AC1612068436858
:1025F0001340436084F8411084F84250002084F86E
:102600004050ECE70220EAE700E800FE7047704720
:10261000024881680278114481607047840000207C
:10262000032010B500F0A2F9002000F005F800F03A
:1026300035F9002010BD000070B50D4D04464FF473
:102640007A700C4A29781268B0FBF1F0B2FBF0F016
:1026500001F01EFA48B9102C07D200222146501E64
:1026600000F064F900206C6070BD012070BD0000B6
:1026700084000020900000202DE9F041044690F8ED
:10268000A00016460F4601281DD0012584F8A05051
:10269000022084F8A10006EB860000EBC60034227D
:1026A00004EB80003830FDF7DCFD32463946204629
:1026B00001F09AFC216800204D6284F8A15084F852
:1026C000A000BDE8F0810220FBE7704790F8A10070
:1026D00070472DE9F0410446006800274FF00408D8
:1026E000856B466B690715D5710713D5426B22F0D0
:1026F000040242632068C0F83C80D4F8A40040F093
:102700000100C4F8A40084F8A180204684F8A070D9
:10271000FFF7DBFFA80716D5B00714D52068022203
:10272000436B23F0020343632068C263D4F8A40020
:1027300040F00200C4F8A40084F8A180204684F888
:10274000A070FFF7C2FF05EA06004FF00108C007BE
:102750000ED021684A6B22F001024A632168C1F859
:102760003C8084F8A180204684F8A07000F092F8A4
:10277000280710D530070ED520680822436B23F0B8
:10278000080343632068C26384F8A180204684F86C
:10279000A07000F081F8BDE8F08100002DE9F04163
:1027A000040004D094F8A100002518B107E001202E
:1027B000BDE8F081204684F8A05000F06CF8344861
:1027C000022184F8A110012202CC8B6923F070430E
:1027D0008B6194E84A001943E3681E4354F8043DB2
:1027E00031439E693143996121688B6803408B6056
:1027F0002168A68AA7698B683B4343EA06438B603E
:102800002168CB680340CB602168A38B276ACE6820
:102810003E4346EA0346CE6021680B6903400B61E4
:102820002368A68CA76A1969394341EA06411961F0
:1028300021684B6903404B612068A38D266B416979
:10284000314341EA03414161236894F8351094F81B
:102850003600DE6A000406F07F46DE62236840EA46
:10286000012094F83460D96A31430143D962206869
:10287000416B41F0060141632068816941F001012B
:102880008161C4F8A45084F8A120002090E70000E2
:1028900000F800F070477047704700001B4808B50B
:1028A000016841F080510160006800F080500090A4
:1028B0001648001D016841F4804101600068002253
:1028C000032100F4804000906FF00B0000F02EF820
:1028D000002203216FF00A0000F028F800220321F3
:1028E0006FF0090000F022F800220321501F00F0D1
:1028F0001DF803210022C81F00F018F80022032150
:10290000BDE80840481F00F011B800004038024000
:10291000002809DB410900F01F028900012001F1B4
:10292000E0219040C1F80001704700000E4BF0B468
:102930001B680D46C3F30223C3F10706042E00D91A
:102940000426191D072901D2002300E0DB1E012403
:1029500004FA06F19C40491E2940641E9940144027
:102960002143F0BC01F0A6BF0CED00E0064900F0E9
:10297000070210B54FF6FF040868044B204040EAF8
:1029800002201843086010BD0CED00E00000FA05BD
:102990001848F8B5016841F0805101600068164C94
:1029A00000F080500090206840F480302060FFF7F5
:1029B0004FFC4FF47A76054605E000BFFFF748FC70
:1029C000401BB0420FD86068C003F7D5206840F4C0
:1029D00000302060FFF73CFC054606E0FFF738FCBE
:1029E000401BB04201D90320F8BD60688003F5D5D3
:1029F0000020F8BD40380240007000404B4B30B51D
:102A000049490160191D1C680A1DC4F388144460FB
:102A10001C68C4F3014404611C68C4F30364C4600B
:102A20001B68C3F3027383600B68C3F388134361AD
:102A30000B68C3F3014303623C4B0C687C3BC4F35B
:102A4000036484610968C1F30271C1611468111DD6
:102A500004F01F0444621468C4F3042484621468FC
:102A6000C4F30144C462146804F44014C4631468D9
:102A700004F4400404641C6804F4000444630C6817
:102A800004F4403444660C6804F4402484660C6802
:102A900004F44014C4660C6804F4400404670C6831
:102AA00004F0030444640C6804F00C0484640C68AF
:102AB00004F03004C4640C6804F0C00404650C68BD
:102AC00004F4407444650C6804F4406484650C6844
:102AD000164D04F44054C4650C68143D04F440449D
:102AE00004660C6804F0407444670C6804F0806469
:102AF00084670C6804F00064C467096801F08051C1
:102B0000C0F8801019682B6801F4F81103F44073C1
:102B10000B4303631168C90101D4002101E04FF0A8
:102B20008071816330BD0000F1FFFF0084380240F6
:102B3000F0B5444BB0F5002F404D4FF4801E404E91
:102B4000A3F10404404F03F10402404984464FF0CE
:102B500000000DD0F44516D1D2F800C01CF4400C92
:102B60003CD0BCF5800F4ED0BCF5000F0BD109E076
:102B7000D2F800C01CF4401C06D0F44519D0BCF5B6
:102B8000001F00D13846F0BD08684002086800F018
:102B90003F0002D4B5FBF0F001E0B6FBF0F019689D
:102BA0001B681468C1F30362C3F38813C4F30421E0
:102BB0003DE008684002086800F03F0002D4B5FB21
:102BC000F0F001E0B6FBF0F0216823681468C1F36F
:102BD000036204F01F01C3F3881328E00868400271
:102BE000086800F03F0002D4B5FBF0F001E0B6FB4E
:102BF000F0F01C681B681168C4F30362C3F3881308
:102C0000C1F3042113E008684002086800F03F00A7
:102C100002D4B5FBF0F001E0B6FBF0F025682368C4
:102C20001168C5F3036201F01F01C3F38813434326
:102C3000491CB3FBF2F0B0FBF1F0F0BD0024F4004E
:102C400040787D01883802400080BB000438024093
:102C50002DE9F84F04460078DFF824944FF0000681
:102C60003746C0070ED0D9F8001021F40001C9F88A
:102C70000010D9F80010626B1143C9F80010606BA6
:102C800000B90126FE4D2068843500030ED5E16BA6
:102C9000286820F4401008432860E06BB0F5801FDE
:102CA00001D010B102E0012600E0012720684FF4B6
:102CB000800BC0020CD5216C286820F4400008432A
:102CC0002860206C584501D1012601E000B9012798
:102CD0002068C10100D50126800666D5E848383055
:102CE000016841F0805101600068DFF898A300F0AE
:102CF00080500090DAF8001041F48071CAF800109A
:102D0000FFF7A6FA804605E0FFF7A2FAA0EB08005D
:102D100064287DD8DAF80000C005F5D5DFF86083B7
:102D200008F16808D8F8000010F440702AD0218E0D
:102D300001F44071814225D0D8F80010D8F8002065
:102D400021F4407142F48032C8F80020D8F8002005
:102D500022F48032C8F80020C8F80010D8F800002B
:102D6000C0070FD0FFF774FA824607E0FFF770FA4A
:102D7000A0EB0A0141F288308142CAD8D8F800009D
:102D80008007F3D5206BC0F3012103297ED0D9F849
:102D9000001021F4F811C9F80010228ED8F80010A4
:102DA000C2F30B021143C8F800102078C00607D503
:102DB000286820F0807028602868A16B084328608C
:102DC0002188AF488830490405D5626E016821F436
:102DD0004031114301602188090405D5A26E0168C4
:102DE00021F44021114301602168C90305D5E26E39
:102DF000016821F44011114301602168890305D560
:102E0000226F016821F4400111430160217800E044
:102E100018E1490605D5626C016821F003011143F0
:102E200001602178090605D5A26C016821F00C012A
:102E3000114301602188C90505D5E26C016821F0C4
:102E40003001114301602188890505D5226D016893
:102E500021F0C001114301602188490505D5626D4B
:102E6000016821F44071114301602188090505D5ED
:102E7000A26D016821F44061114301602188C904F9
:102E800007D5E26D016821F4405100E041E01143B3
:102E900001602188890405D5226E016821F4404132
:102EA000114301602168490205D5A26F016821F034
:102EB00080611143016021684FF0006A890209D5E1
:102EC000E26F016821F0006111430160E16F51453B
:102ED00000D1012721680A0700D50127490305D53C
:102EE000626F016821F0407111430160216809029D
:102EF00006D5D4F88020016821F08051114301608B
:102F0000DFF88491012E0ED02068B0F1007F0AD046
:102F10008FE05E4AD9F80030104023F4F8120243E3
:102F2000C9F8002039E7D9F800004E4620F080604B
:102F3000C9F80000FFF78CF9804605E0FFF788F933
:102F4000A0EB080064287DD830680001F6D4217811
:102F50004B487C30C90712D0616B81B9237A626813
:102F60000168D0F800C09201C1F3014142EA014278
:102F7000CCF3036142EA016141EA03710160216817
:102F80000A0303D5E26BB2F5801F04D0C9021AD53B
:102F9000216C594517D16368016894F80CC0026828
:102FA0009B01C1F3014143EA0141C2F3027241EACC
:102FB0000C6141EA027101602968626A21F01F0117
:102FC000521E114329602168C90110D5238A626805
:102FD0000168D0F800C09201C1F3036142EA0342E4
:102FE00042EA0162CCF3027142EA01710160216898
:102FF00089010CD56168228A237B94F808C0890175
:1030000041EA024141EA036141EA0C710160316821
:10301000B04641F080613160FFF71AF9064604E0DE
:10302000FFF716F9801B64280CD8D8F800000001BF
:10303000F6D56FB3D9F800004E4620F08050C9F89D
:10304000000000E079E0FFF703F9074605E000BF64
:10305000FFF7FEF8C01B64286FD83068C0438000BB
:10306000F6D50748216880300A0301D5E26B1AB112
:10307000C90225D5216C19BB63690168277E08E068
:10308000083802400070004000380240FFFCFF0F8B
:103090005AE00268C1F301419B0143EA0143C2F3D4
:1030A000027143EA076242EA0171016029686FF028
:1030B000FF03A26A21F4F85103EB022211432960B5
:1030C0002168890212D5E16F51450FD1238C6269C5
:1030D000016807689201C1F3036142EA034242EAD0
:1030E0000162C7F3027142EA0171016021780907A8
:1030F00016D561690268D0F800C08B01277FC2F342
:103100000362CCF3014143EA014141EA026141EA31
:10311000077101602868E16A20F4403008432860A4
:10312000306840F080503060FFF792F8044607E0C6
:10313000FFF78EF8001B642802D90320BDE8F88F42
:103140003068C0438000F3D40020F7E72DE9F04752
:1031500005000F4663D0444E306800F00F00B842BF
:1031600009D2306820F00F0038433060306800F03A
:103170000F00B84253D128683C4C810712D5400754
:1031800003D5206840F4E05020602878000703D57C
:10319000206840F460402060A968206820F0F000BA
:1031A000084320602878C0072AD030496868083969
:1031B000012810D00968022810D0890700292EDACA
:1031C000216821F0030101432160FFF741F88046A7
:1031D00041F288390DE009688903EFE78901EDE7DD
:1031E000FFF736F8A0EB0801494502D90320BDE8F6
:1031F000F0876868216801F00C01B1EB800FEFD116
:10320000306800F00F00B8420BD9306820F00F0092
:1032100038433060306800F00F00B84201D0012020
:10322000E5E72878400705D5E968206820F4E050F4
:10323000084320602878000706D52869216821F412
:10324000604141EAC000206000F016F82168084A99
:10325000C1F30311515CC840064908600020FFF724
:10326000EBF90020C3E70000003C024008380240B0
:103270009057000890000020154910B515480968BE
:1032800011F00C0213D01449042A0FD0082A0ED1D1
:103290000F4C241F2268236802F03F025B0207D50F
:1032A0002068C0F38810A0FB010106E0084610BDAD
:1032B0002168C1F38811A1FB00010023FCF7A0FFE6
:1032C0002168C1F30141491C4900B0FBF1F010BD78
:1032D000083802400024F40040787D012DE9F84FC1
:1032E00005004FF000076ED02878DFF81C93A9F195
:1032F000040AC007AAF104044CD0D9F800104846CB
:10330000C1F38101012908D00068C0F381000228BF
:103310000AD1DAF80000400206D52068800339D5CA
:1033200068680028DFD035E06868B0F5803F0BD0D2
:1033300010B1B0F5A02F11D0206820F480302060AB
:10334000206820F4802002E0206840F48030206073
:10335000686890B1FEF77CFF06460AE0206840F4FA
:1033600080202060F0E700BFFEF772FF801B64281A
:1033700072D820688003F7D50CE0FEF769FF064697
:1033800005E000BFFEF764FF801B6428F0D82068CA
:103390008003F7D42878800742D5D9F80010484632
:1033A00011F00C0F08D00068C0F3810002280BD187
:1033B000DAF80000400207D42068800718D5E868D2
:1033C000012800D114E01CE1E8680028206817D02B
:1033D00040F001002060FEF73BFF064605E000BF1D
:1033E000FEF736FF801B0228C2D820688007F7D579
:1033F0002869216821F0F80141EAC00020600FE04F
:1034000020F001002060FEF723FF064605E000BF24
:10341000FEF71EFF801B02281ED820688007F7D405
:103420002878000729D5784869696C3000298046DA
:10343000016812D041F001010160FEF709FF064664
:1034400005E000BFFEF704FF801B022804D8D8F86F
:1034500000008007F6D510E089E021F0010101604D
:10346000FEF7F6FE064604E0FEF7F2FE801B022899
:103470007DD8D8F800008007F6D4287840076BD5AF
:10348000DFF8848108F13808D8F80000C0000BD4B8
:10349000D8F8001041F08051C8F80010D8F80000AA
:1034A000012700F08050009058480168C90512D4E7
:1034B0000168834641F480710160FEF7C9FE06464B
:1034C00005E000BFFEF7C4FE801B64284FD8DBF880
:1034D0000000C005F6D54C4EA868683601280AD011
:1034E00008B1052811D0306820F001003060306844
:1034F00020F0040002E0306840F001003060A8686D
:10350000A0B1FEF7A5FE83460CE0306840F0040051
:103510003060F0E7FEF79CFEA0EB0B0141F2883033
:10352000814266D830688007F4D50EE0FEF790FE41
:10353000834607E0FEF78CFEA0EB0B0141F28830DA
:10354000814256D830688007F4D42FB1D8F80010E3
:1035500021F08051C8F80010A869C8B3D9F800104C
:10356000C1F3810102294CD00228206800E040E02C
:1035700020F08070206003D0FEF76AFE05463BE035
:10358000FEF766FE064604E0FEF762FE801B022898
:103590002FD820688001F7D4D5E90962D5E9070161
:1035A0001B4B570895F82C20084303EB074343EACD
:1035B0008611084340EA026040F00050CAF800005B
:1035C000206840F080702060FEF742FE054606E06D
:1035D00015E000BFFEF73CFE401B022809D820681A
:1035E0008001F7D50BE000BFFEF732FE401B02283A
:1035F00002D90320BDE8F88F20688001F4D40020B0
:10360000F8E70120F6E700000838024000700040AB
:103610000000FFFF70B504001BD0022084F87D007D
:1036200000252168C01E0D6121688861204600F0D8
:103630006BFF2068416841F008014160204600F0BE
:103640001DF9C4F8805084F87D50002084F87C5027
:1036500070BD012070BD000070B50B4800F016F879
:1036600005460948843000F011F8022D044601D0C7
:10367000122D01D1FCF7FDFF022C01D0222C01D12B
:10368000FCF7C2FE70BD00004005002090F87D00F0
:10369000704700002DE9F0474FF000060400354662
:1036A00004D094F87D00B14618B107E00120BDE8D0
:1036B000F087204684F87C9000F0E1F8022084F83E
:1036C0007D00204600F020FFE06838B1012802D0DC
:1036D000022803D101E0102600E02026A16861B194
:1036E000012906D002294FF4006005D0032904D136
:1036F0000EE04FF4806500E005465C495B4A2068B7
:103700002031904201D0884205D15848001F03E083
:1037100046F00106F0E756480660E06948B32368C2
:103720000020934201D08B4203D14FF40020FFF7D9
:10373000FFF94F4A2168121D914203D04C4A2432AE
:10374000914203D14FF48010FFF7F2F9E16900EBE9
:1037500080000A2240004902B0FBF1F0B0FBF2F316
:10376000B0FBF2F1216202FB1300082801D9491CC9
:10377000216260684FF40078E8B3022871D0E06BF2
:10378000012801D04FF000082068DFF8E8C06FF092
:10379000FF01394E4EF20F0203684FF2200703EA91
:1037A0000C030360236B60681843D4E90D3C43EAC3
:1037B0000C031843636A40EA08002843D4E904C5AF
:1037C0001843236840EA0C002843258CD3F800C036
:1037D00040EA0555484645EA0C051D6023685D68CA
:1037E0004FF0010C95435D60D4F80080D8F80420B8
:1037F000A3691A4300E034E0D4E90A352B431A43A5
:10380000C8F804202268936833409360A36C226D4B
:10381000256C1A43E36C6D1E2B43656C1A432368B9
:1038200001EB05252A439D682A439A6054F8542BDE
:10383000D3683B40D36094E86400A78954F8543DB2
:103840002A4301EB062141EA0741DD680A432A4386
:10385000DA60C4F8800084F87DC084F87C00002021
:1038600025E7E06B01288DD08EE700000458014069
:10387000005C014010C005FF0080F8FF70477047F2
:1038800070B5044629B122B194F87D00012802D018
:1038900043E0012070BD94F87C0001283DD0012355
:1038A00084F87C3061660025A4F868202220A4F802
:1038B0006A20C4F8805084F87D00216F184808649D
:1038C000216F1848C863216F1748C864206F0565C9
:1038D0002168B4F86830626E1C31206FFEF764FB1B
:1038E00010B184F87C50D4E720680168C90303D480
:1038F000016841F4803101600021204600F024FE7F
:1039000021680A69104308612068016841F40031A8
:103910000160002084F87C5070BD022070BD000062
:10392000B74400087D4400083944000810B5FCF78E
:1039300071FE10BD10B5FCF78DFD10BD70B50446CD
:1039400029B122B194F87D00012802D043E0012082
:1039500070BD94F87C0001283DD0012384F87C30B0
:1039600061660025A4F868201220A4F86A20C4F833
:10397000805084F87D00E16E18480864E16E1848B4
:10398000C863E16E1748C864E06E05652268B4F844
:103990006830616E1C32E06EFEF706FB10B184F8F1
:1039A0007C50D4E720680168C90303D4016841F45E
:1039B000803101600021204600F0C6FD21680A69BF
:1039C000104308612068016841F400310160002063
:1039D00084F87C5070BD022070BD0000FD440008DA
:1039E000C14400083944000810B5FCF723FF10BD9E
:1039F00010B5FCF73FFE10BD70B504000D4603D0B6
:103A000094F82C0010B107E0012070BD002084F86C
:103A10002D00204600F011F8022084F82C002068C8
:103A2000211DFDF718FFD4E900022946FDF758FFD4
:103A3000012084F82C00002070BD704710B50446AA
:103A400090F82C00022809D0022084F82C0020686D
:103A5000FDF730FF012084F82C00002010BD00008D
:103A600070B5044690F82C000D4602280DD00220B7
:103A700084F82C002068FDF723FF2868022805D071
:103A80005FF0010084F82C00002070BD0520F9E7EC
:103A9000401EB0F1807F10B501D3012010BD4FF062
:103AA000E02460610F21601700F004FF0020A06196
:103AB0000721216110BDFEE701688A69D2439207A0
:103AC00001D400228A6200688169C943C90703D012
:103AD000816941F001018161704700002DE9F041E9
:103AE0000446006890460E468069C043C00635D43F
:103AF0000025202720688069C043800616D5701CE9
:103B0000F8D0FEF7A5FBA0EB0800B04201D8002ECC
:103B1000F0D1606C84F8405040F02000606484F87C
:103B2000417084F842500120BDE8F08121681020E6
:103B3000C8612068C7612046FFF7BEFF20680849BA
:103B400042680A404260606C40F00400606484F89F
:103B5000417084F8425084F84050E4E70020E3E7E5
:103B600000E800FE2DE9F843174604461548DAB28E
:103B7000DDE908981E4600900023204600F056F824
:103B800042464946204600F0BBF8B8B9012EFDB2C6
:103B900008D02068390A816242464946204600F032
:103BA000AFF858B920688562002240214B46204674
:103BB000CDF8008000F050F8002800D00120BDE8CA
:103BC000F8830000002000802DE9F84304461648E1
:103BD00017461E46DAB20090C3022046DDE9089877
:103BE00000F024F842464946204600F089F8B8B96A
:103BF000012EFDB208D02068390A8162424649464A
:103C0000204600F07DF858B92068856200228021A6
:103C10004B462046CDF8008000F01EF8002800D06A
:103C20000120BDE8F88300000020008070B5006826
:103C3000C1F30901074E41EA0241049C4FF480653B
:103C40004268194305EA54553543AA4321430A43C0
:103C5000426070BDFF63FF032DE9F0411D4617462A
:103C60000E460446DDF8188008E0681C06D0FEF712
:103C7000EFFAA0EB0800A8420BD855B12068806984
:103C800036EA000013D00020B842EED00020BDE894
:103C9000F081626C002084F84000202142F0200274
:103CA000626484F8411084F842000120EFE70120AB
:103CB000EAE770B516460D4604460DE03246294641
:103CC0002046FFF70BFF08B1012070BDFEF7C0FAD8
:103CD000801BA84207D835B120688069C0438006A0
:103CE000ECD4002070BD626C002084F840002021DC
:103CF00042F02002626484F8411084F84200E3E755
:103D000070B516460D4604460FE032462946204659
:103D1000FFF7E4FE08B1012070BD681C05D0FEF776
:103D200097FA801BA84207D835B120688069C04344
:103D30008007EAD4002070BD626C002084F8400047
:103D4000202142F02002626484F8411084F842008D
:103D5000E1E710B50446FEF781FA2046BDE81040C1
:103D6000AFF3008010B50446FEF792FA002818D190
:103D70000C48844201D10C4800E00C4801210C4A57
:103D8000206000206260C4E9020120616061E0619E
:103D90002062204600F00EF82046BDE81040FEF7F5
:103DA0007BBA10BDDC010020005C004000540040E4
:103DB00032279140F0B542490022424B87B0424D34
:103DC0004FF48076414C9842D1F800C04FF0120079
:103DD0004FF002034FF0040737D14CF0800CC1F8CC
:103DE00000C009680DF1080C01F0800105918021E7
:103DF000CDE900108CE88C00354F69463846FEF757
:103E000031F9694638460096FEF72CF9286840F4E7
:103E100000002860286800F400000590206840F445
:103E200000002060206820F40000206000220F21A4
:103E30004820FEF77BFD4820FEF76AFD00220F2197
:103E40004920FEF773FD492035E04CF0020CC1F823
:103E500000C00968CDE9022301F00201CDE9047137
:103E6000CDE900601B4E69463046FEF7FBF8701541
:103E7000694600903046FEF7F5F8286840F40010D7
:103E80002860286800F400100590206840F40010B5
:103E90002060206820F40010206000220F211F20E5
:103EA000FEF744FD1F20FEF733FD00220F212020E6
:103EB000FEF73CFD2020FEF72BFD07B0F0BD000013
:103EC00030380240DC0100204038024020380240F7
:103ED000001C024000040240FEB50D4606464FF4A9
:103EE0007A74DDE908018DE8130029463046FEF7B3
:103EF0002FFA040003D029463046FFF72AFF204658
:103F0000FEBDFEB50D4606464FF47A74DDE90801A4
:103F10008DE8130029463046FEF7CCFA040003D0A2
:103F200029463046FFF715FF2046FEBD4FF4F070DE
:103F30004FF4877110B5FDF7DFF9FCF7EFFD0120B5
:103F40004FF04041FCF73CFEFCF7BCFC0120FCF7C5
:103F50000FFFBDE81040FDF7D5BA00002DE9F8438A
:103F600007461B480E461546DDE908184FF4403257
:103F70001C464260174A126802EB820303EBC2023E
:103F8000A0F1A80303EB8202926C022A00D0002267
:103F90008260114A0260C1600D48FDF7AFFD002844
:103FA00014D10B483946FDF759FD00280ED10848B9
:103FB0002B46324641460094FDF769FE002805D1A4
:103FC000BDE8F84302480A21FDF7DABDBDE8F883F1
:103FD000A0030020AC00002000B002400148FEF722
:103FE00078BB0000F80200202DE9FE4F81460068F2
:103FF000882493468D888C2204EBCB178A46C368AD
:104000009421BE46C459C3F30B432B4404F47044BB
:104010001F04019702EBCB1240F80E4001EBCB13CB
:10402000DAF800709C214FF0AC0C01EBCB1440F29D
:10403000077102910CEBCB11D9F800C09825002034
:10404000CDF800C0A02605EBCB15DCF80CC006EBC4
:10405000CB16CCF30B4C0CF1010C07EB0C08DDF884
:1040600000C0019F48EA07084CF80E80D9F800709C
:10407000BAF80CC0B846FF68C7F30A0767444FEAAE
:10408000074E58F8027007F4704C48F802C0D9F88F
:1040900000C0DAF80870DCF80C80C8F30A0808F1F0
:1040A0000108B84448EA0E084CF80280D9F800200C
:1040B000D75827F00707D750D9F80070DAF8102042
:1040C000FA509AF831209AF818304FEA022C9AF8F0
:1040D0003220120442EA0362D9F800301F59185105
:1040E0009AF8303043EA0C031343D9F800201351F7
:1040F000D9F80020535923F0FF035351D9F8002079
:10410000DAF814305351D9F800209359029CA34394
:104110009351D9F80030DAE9072422439A51D9F8AB
:10412000002053585050D9F80020DAF8240050509D
:10413000DAF81000C8B301283AD004283AD002288F
:1041400038D0032836D0072834D00120D9F80030E1
:10415000B02505EBCB11B42284245D5802EBCB12C1
:1041600005F0E0255D50DAE9003504EBCB14EB1ADD
:10417000BAF8285043434543D9F80000DB1C43EA12
:1041800005434350D9F8000081586FF30A0181506C
:10419000D9F80000DAF82C108150D9F80000015944
:1041A00041F001010151BDE8FE8FFFE70420CDE79A
:1041B0000320CBE70220C9E770B5FCF79FFC494C10
:1041C0000A256E26E638A188884245D2FCF796FC7F
:1041D000A188A03888423FD9FCF780FC618805EBB4
:1041E0009000884206D2FCF779FC618806EB9000CB
:1041F000884276D8FCF772FCC0F35D0061880A3013
:10420000884207D2FCF76AFCC0F35D0061886E301B
:10421000884266D8FCF762FC00EB4000618805EB41
:104220009000884208D2FCF759FC00EB40006188FE
:1042300006EB9000884254D8FCF750FC60880A28AE
:104240004FD9FCF74BFC60886E284AD201202070C1
:10425000BDE87040FDF7B6B9FCF750FCA18878388E
:1042600088423ED2FCF74AFCA1883238884238D9CD
:10427000FCF734FC618805EB9000884206D2FCF71D
:104280002DFC618806EB900088422AD8FCF726FCBA
:10429000C0F35D0061880A30884207D2FCF71EFC3B
:1042A000C0F35D0061886E3088421AD8FCF716FCB6
:1042B00000EB4000618805EB9000884208D2FCF7D3
:1042C0000DFC00EB4000618806EB9000884208D8A6
:1042D000FCF704FC60880A2803D9BDE87040FCF7AD
:1042E000FDBB70BD00000020FEE7000008B5012006
:1042F0004AF644421023022100904FF44070FCF72C
:104300002FF900284FF0FF3108463CD0FCF736FD6E
:104310003348FCF74FFDFCF7F1FB5F3881B2012316
:10432000002030A2FCF7E8FAFCF7E8FB503881B235
:104330000123002031A2FCF7DFFA00BF374E4FF413
:10434000806949463046FBF7A5FF354F4946384658
:10435000FBF7A0FF334C4FF4007800254146304670
:10436000A560FCF74DF90120FCF742FA49463846B2
:10437000FCF71EFAB246DFF8B8B0B9462A4F4646F7
:10438000DFF8A88009E0FCF7F9FC4FF0FF20FCF70C
:1043900011FDD3E70120FDF745FEA0680128F9D102
:1043A000324651464846A560FBF75BFF02E001201C
:1043B000FDF738FEA0680228F9D13246414658463A
:1043C000A560FBF74EFF1848FCF7B0FE38780028D0
:1043D000E3D078886080B889A080FCF7B1FFDCE783
:1043E0000000FFFF424C41442055525A41445A4577
:1043F0004E494120415544494F00000020537072FE
:104400006F62756A207A72657365746F7761632075
:1044100075727A61647A656E69650000005811C032
:10442000005C11C000000020B0010020005A11C043
:10443000005E11C07047704710B5846BD4F88000DF
:1044400040F08000C4F88000E06E406D012803D089
:10445000206F406D01280DD12068016821F40031E2
:104460000160204600F050F8012184F87D10002002
:10447000A4F86A002046FFF7EFF810BD10B50168F8
:104480000968846BC80512D420680021026822F4F0
:10449000003202602046A4F86A1000F055F8014688
:1044A0002068012302698A43026184F87D30204636
:1044B000FFF73CFA10BD10B5806BFFF73BFA10BD5B
:1044C00010B501680968846BC80513D40020A4F8EE
:1044D0006A002068016821F4003101600021204653
:1044E00000F032F801462068012302698A43026124
:1044F00084F87D302046FFF777FA10BD10B5806B49
:10450000FFF776FA10BD000030B50E4941F658337A
:1045100002680C6800211568B4FBF3F325F48034BD
:1045200014609A00521E07D2D0F88020032142F076
:104530004002C0F8802003E003681B68DB03F1D46D
:10454000084630BD9000002001294FF0010100D144
:104550000921026B4068082A05D1032801D00128EF
:1045600003D141F01001032804D0022802D041F009
:104570000400704741F0600070470000054904489E
:104580000860016821F4803101600248FFF742B8F9
:10459000245C0140C40500202DE9F74F334C9346BD
:1045A00031494FF000094FF080084FF0010A2160B7
:1045B0000A68402622F480320A600421C4E90C987B
:1045C000C4E90E9ACA02C4E90109C4E904298A03AC
:1045D000C4E906ABC4F82490202726643503C4E957
:1045E0001172C4F84C90C4E91459C4E916910198A9
:1045F00020662046FFF74EF81B48A91004232A46E0
:1046000004F1840520302860D0F800C02CF4803CF0
:10461000C0F800C0C5F81CB003206860C5E90C985C
:10462000C5E90E9AC5F808A0C5F810902E640E11C1
:104630006F64C5E9059A6E62C5E91219C5E91429C6
:10464000C5E91693019828662846FFF723F82068E5
:10465000016841F4803101602868016841F48031CB
:104660000160BDE8FE8F0000045C014040050020B1
:10467000054904480860016821F48031016002485E
:10468000FEF7C8BF045C0140400500207047FDF7FD
:10469000BFBF000070B592B030216846FBF7FAFD4D
:1046A00014210CA8FBF7F6FD1A48016841F080516F
:1046B0000160006800F0805011901748016841F4D3
:1046C0004041016000681923022400F44040119029
:1046D00001201D01820501040926CDE90642CDE92C
:1046E0000001CDE90835CDE90A466846FEF7F6FD3A
:1046F000FEF74EF90EAD0021E3024FF4A05285E81B
:104700000E000F20CDE90C0406210CA8FEF71EFDBB
:1047100012B070BD4038024000700040104A30B501
:104720001048146800210F4B44F4700414600833DF
:1047300005680D4A0D4C45F00105056019600368D8
:10474000051D1340074A03600C322C600568E30521
:10475000034C25F480250560803C1160236030BD4A
:1047600088ED00E000380240FFFFF6FE1030002424
:10477000FDF758BC0148FFF7F5BA0000DC01002046
:104780003EB50124002202AB8DF80820CDE90034AB
:104790000A46234601460348FFF79EFB9DF80800A2
:1047A0003EBD0000DC01002007B5012382B004AA51
:1047B000CDE900230A4601460248FFF7A2FB05B0F7
:1047C00000BD0000DC010020FEE70000284B02468F
:1047D00010B5A1F16504222C587812D2A2F22D1145
:1047E000312903D2632841D2401C05E0973A312A8F
:1047F0003CD200283AD0401E5870BDE81040FCF76B
:104800005FBE8C1F272C07D20A2A05D9502A03D253
:10481000BDE81040FCF776BEAB39222926D2CD2A5E
:1048200024D9B2F5987F21D81870FBF7F5FF00283E
:1048300010480FD0FCF7A2FA0F48FCF7BBFA0F485C
:10484000FCF7AAFA03230EA2E121BDE810400846B6
:10485000FCF752B8FCF792FA4FF0FF20FCF7AAFAE7
:104860000648FCF799FA032307A2EDE710BD000004
:104870007C000020D3D3D3FF0000FFFFB000002056
:104880004552524F520000004F4B00000FB4084BEE
:1048900010B504A902AA039800F02CF8044602A956
:1048A000002000F0D1F8204610BC5DF814FB000099
:1048B000494A0008090700284FEA116104DB00F1AA
:1048C000E02080F80014704700F00F0000F1E020B5
:1048D00080F8141D704702E008C8121F08C1002AA2
:1048E000FAD170477047002001E001C1121F002A71
:1048F000FBD170472DE9FF4F89B09B460446002548
:1049000006E025280BD05A460B999047641C6D1C75
:1049100020780028F5D10DB02846BDE8F08F00279B
:10492000B8460122474900E0074314F8013F203B05
:1049300002FA03F00842F7D120782E2819D114F892
:10494000010F47F004072A280ED06FF02F022078BD
:10495000A0F1300109290CD808EB880102EB4101D4
:1049600000EB0108641CF2E70A98641C50F8048B01
:104970000A9020780028CED0642808D0692806D074
:1049800075281ED05A460B9990476D1C58E00A991D
:104990004FF00A0901C90A91002802DA40422D218C
:1049A00002E0390504D52B218DF82010012103E008
:1049B000F90704D02021F7E78A4608AE0DE0002170
:1049C000FAE70A994FF00A0901C90A91F7E749463F
:1049D000FBF76BFC303106F8011D0028F7D1ADEB79
:1049E000060000F12009780701D44FF00108C845FE
:1049F00002DDA8EB090000E000208046002706E069
:104A000008A85A46C05D0B9990476D1C7F1C5745FE
:104A1000F6DB04E030205A460B9990476D1CB8F144
:104A20000001A8F10108F5DC05E016F8010B5A4673
:104A30000B9990476D1CB9F10001A9F10109F4DC53
:104A4000641C65E7092801000A68531C0B6010709C
:104A50007047000010B5044C2078002803D1FFF700
:104A600089FE0120207010BD0A010020C82010B569
:104A7000FFF77EFEBDE81040FFF7ECBFF8B5064635
:104A800000208DF8000004460546FFF7E3FFA8214B
:104A9000F0B2FFF775FE8DF800009DF80000512878
:104AA00000D10125641CE4B2032C01D2002DEED00C
:104AB0009DF80000F8BD70477047000038B500242D
:104AC0008DF800400221C0B2FFF75AFE8DF80000B9
:104AD0009DF8000000F00F008DF800009DF8000028
:104AE000052801D98DF800409DF80010024841705A
:104AF00084709DF8000038BD0A0100200022A42126
:104B0000C0B2FFF751BE0122A421C0B2FFF74CBED4
:104B100038B50C4600218DF800100121C0B2FFF716
:104B20002FFE8DF800009DF80000206038BD0000C9
:104B30002DE9F84306461F4600209046DDF82090F8
:104B40000A468DF8000001462B4800252C46407887
:104B500090424FD90A2A2DD2DFE802F005090D1143
:104B600015191D21252903210725082422E00921E3
:104B70000D250E241EE00F21132514241AE0152103
:104B800019251A2416E01B211F25202412E02121BB
:104B9000252526240EE027212B252C240AE02D2173
:104BA0003125322406E033213725382402E039212B
:104BB0003D253E24F0B2FFF7E3FD8DF800009DF89F
:104BC00000008109C9F800102946F0B2FFF7D8FDAE
:104BD0008DF800009DF80010F0B2C8F800102146D2
:104BE000FFF7CEFD8DF800009DF80000042101EADA
:104BF00010103860BDE8F8830A0100202DE9F84F55
:104C00008A4607464448002193468DF800100E4618
:104C10000D460C46827843789A427AD20A2A814617
:104C200037D2DFE802F0050A0F14191E23282D32AF
:104C300004210326062505242BE00A2109260C253C
:104C40000B2426E010210F261225112421E0162125
:104C50001526182517241CE01C211B261E251D24A3
:104C600017E0222121262425232412E028212726AB
:104C70002A2529240DE02E212D2630252F2408E079
:104C8000342133263625352403E03A2139263C25C4
:104C90003B24F8B2FFF774FD8DF800009DF800107A
:104CA000F8B2DFF87480A8F10208A8F800103146C5
:104CB000FFF766FD8DF800009DF80010B8F80000C1
:104CC00001F00F0140EA0120A8F800002946AAF8E7
:104CD0000000F8B2FFF754FD8DF800009DF80010B9
:104CE000F8B2A8F800102146FFF74AFD8DF8000041
:104CF0009DF80020B8F8001002F00F0241EA0221EE
:104D0000A8F80010ABF8001099F80210491C89F8B7
:104D10000210BDE8F88F00000A0100200020704753
:104D2000FFF7ECBE86B0BFF34F8FBFF36F8F4748DE
:104D300000240460BFF34F8FBFF36F8F44490868AE
:104D400040F400300860BFF34F8FBFF36F8F4048CF
:104D500070300460BFF34F8F001F43F6FF7600688A
:104D60003A4D1035C0F34E32C0F3C90306EA42177C
:104D7000184600BF47EA807CC5F800C0401EF9D243
:104D8000521EF3D2BFF34F8F086840F480300860A2
:104D9000BFF34F8FBFF36F8FFDF742FCFFF77AFC35
:104DA00014216846FBF776FA2A4D286840F4807093
:104DB0002860286800F480700590286840F0800022
:104DC000286028680022244F012100F0800005900F
:104DD0003846FDF738FA01260096CDE901646946A8
:104DE00038460394FDF73EF91D481C4901600471E3
:104DF0004471446106628461FCF7E0FD184819497A
:104E00002430C0E900148460C4608462C462046316
:104E10004463FCF773FE124801212430FCF71EFEA8
:104E2000FCF752F8286840F480502860286800F4A5
:104E3000805000900020FBF7C9FF00210220FBF703
:104E4000F9FFFFF773F8FFF751FA000050EF00E0A9
:104E500014ED00E0303802400020024000300240F3
:104E60004C01002000B00240FBF791BA2DE9FF5F32
:104E700001F47F4604464FF00008CFB2FBF78AFAF0
:104E80004FF4817903224946E0B2FCF754FA00223C
:104E9000054640F61701E0B2FCF74DFA05444946D5
:104EA0000022E0B2FCF747FA05446C223921E0B257
:104EB000FCF741FA0544E0B20EB1132200E00322F0
:104EC0000121FCF738FA05443220FBF761FADFF8DC
:104ED0009895002F4FF4407B4FF0000A7ED00120C0
:104EE000C9F80400012F22D0022F01D0032F35D0A2
:104EF000052140F20332E0B2FCF71DFA054440F20E
:104F000001610122E0B2FCF716FA054440F20261A9
:104F10000122E0B2FCF70FFA054440F204610022DE
:104F2000E0B2FCF708FA05440022E0B210E00521E7
:104F300040F60C42E0B2FCF7FEF9054440F2016194
:104F40000022E0B2FCF7F7F905440022E0B219E0D4
:104F500040F20561FCF7EFF9054446E0B6F5006F55
:104F600040F60F724FF00501E0B21AD0FCF7E3F9FA
:104F7000054440F201610122E0B2FCF7DCF905448E
:104F80000122E0B240F20261FCF7D5F9054440F29B
:104F900004610222E0B2FCF7CEF905440222E0B23D
:104FA000D6E7FCF7C8F9054440F201610322E0B2FC
:104FB000FCF7C1F9054440F202610322E0B2FCF7BC
:104FC000BAF9054440F204610322E0B2FCF7B3F9F8
:104FD000054440F205610322E0B200E003E0FCF783
:104FE000AAF9054403E0C9F804A0002E7DD00120F1
:104FF000C9F80800B6F5807F45D0B6F5007F06D029
:105000005E452AD0B6F5006F5ED06D1CA0E004218D
:105010004FF44362E0B2FCF78EF90544DB224FF413
:105020008A61E0B2FCF787F9054402214FF4C042DF
:10503000E0B2FCF780F905444FF4C1610222E0B20E
:10504000FCF779F9054440F209610222E0B2FCF76D
:1050500072F905440E22E0B272E011222821E0B27A
:10506000FCF769F9054435222921E0B2FCF763F920
:10507000054435222A21E0B2FCF75DF9054440F2EF
:105080000332E0B202E04FF44372E0B20421FCF7D5
:1050900052F90544DB224FF48861E0B2FCF74BF98A
:1050A000054446F250320221E0B2FCF744F90544CF
:1050B00040F206610222E0B2FCF73DF9054440F2FD
:1050C00007610222E0B236E0042140F63C72E0B211
:1050D000FCF731F90544DB224FF48A61E0B2FCF7BA
:1050E0002AF90544DB22E0B200E02FE04FF48861AA
:1050F000FCF721F9054446F2A0320221E0B2FCF7A8
:105100001AF9054440F206610222E0B2FCF713F9F5
:10511000054440F207610222E0B2FCF70CF90544B5
:105120004FF4C1610222E0B2FCF705F9054440F2F8
:1051300009610222E0B2FCF7FEF805440D22E0B25C
:105140004FF4E061FCF7F7F8054401E0C9F808A066
:105150004FF404710398B0F5FA4F4FD012DCB0F55C
:10516000FA5F20D0A0F61130B0F500504CD000F618
:105170009140B0F5005019D000F65E00B0F5005F28
:105180000ED144E0A0F64440B0F5204042D0A0F556
:1051900070603C3804D000F58940B0F5803F30D0D5
:1051A0008322E0B204E00322E0B201E03322E0B265
:1051B000FCF7C1F80544B6F5006FE0B22DD044F21B
:1051C00010025946FCF7B7F8054440F202310022BC
:1051D000E0B2FCF7B0F805440A224FF40271E0B2E5
:1051E000FCF7A9F8012205445102E0B2FCF7A3F84C
:1051F000002F05447ED0022F12D040E06322E0B29F
:10520000D6E7A322E0B2D3E71322E0B2D0E74322ED
:10521000E0B2CDE77322E0B2CAE744F21802D0E769
:105220004FF480772D213A46E0B2FCF784F805442C
:105230003A462E21E0B2FCF77EF8054499F80000CA
:105240004FF488714F460028E0B209D04FF4014274
:10525000FCF771F8054487F800A04FF4967005E05C
:1052600048F20812FCF767F805443220FBF790F883
:1052700000224FF48461E0B2FCF75DF805445F461C
:1052800003215A46E0B2FCF756F8054400222221D9
:10529000E0B2FCF750F8054400222321E0B2FCF70D
:1052A0004AF805443A463621E0B2FCF744F8054492
:1052B00043F203020121E0B2FCF73DF80544B6F5E4
:1052C000006FE0B27DD005225121FCF734F805448F
:1052D00043F2033201219046E0B2FCF72CF805447A
:1052E00022226021E0B2FCF726F8054449F6257237
:1052F000E0B200E057E04C21FCF71DF805440F2018
:10530000FBF746F801222D21E0B2FCF714F8054422
:1053100001222E21E0B2FCF70EF8054403214FF4E0
:105320004C72E0B2FCF707F8054433225421E0B296
:10533000FCF701F8054440F20110FBF729F8EE22D2
:105340006021E0B2FBF7F7FF0544C0224FF4C261D1
:10535000E0B2FBF7F0FF054440F21161C022E0B279
:10536000FBF7E9FF054410224FF48461E0B2FBF73C
:10537000E2FF054440F21261C022E0B2FBF7DBFF1E
:10538000054440F21361C022E0B2FBF7D4FF0544AC
:1053900040F222411022E0B2FBF7CDFF0544029912
:1053A000204600F059F9EEB3B6F5807F4FF4C4699A
:1053B00014D0B6F5007F11D0B6F5006F4FF4C0578A
:1053C00000E008E04FF4826A19D05E4531D0B6F5AE
:1053D000806F2ED03FE040F2052275E7012148F0B2
:1053E0001302E0B2FBF7A7FF054449460222E0B2F0
:1053F000FBF7A1FF05444FF46052E0B216E0012133
:1054000048F01302E0B2FBF796FF0544494602223A
:10541000E0B2FBF790FF05443A465146E0B2FBF795
:105420008AFF00E01BE005443A46E0B240F2114139
:105430000EE00B221821E0B2FBF77DFF05440B22A2
:105440001A21E0B2FBF777FF05443A465146E0B235
:10545000FBF771FF05440299204600F0FDF804B007
:105460002846BDE8F09F00004001002070B50121F2
:10547000054600F067F8012204460221E8B2FBF776
:105480005AFF204470BD002100F05CB810B50446FE
:10549000FAF780FFE0B2BDE810400021FAF780BFC4
:1054A0000022114610B5C0B2FBF745FF02490022A9
:1054B0004A608A6010BD000040010020002100F019
:1054C00041B8B1F5FA4F4FF404732AD012DCB1F5AC
:1054D000FA5F20D0A1F61131B1F5005127D001F6C5
:1054E0009141B1F5005119D001F65E01B1F5005FAF
:1054F0000ED11FE0A1F64441B1F520411DD0A1F528
:1055000070613C3904D001F58941B1F5803F0BD081
:105510008322C0B213E00322C0B210E03322C0B233
:105520000DE06322C0B20AE0A322C0B207E013225A
:10553000C0B204E04322C0B201E07322C0B21946F7
:10554000FBF7F9BE2DE9F0410446134842680020FC
:10555000002A10D0012940F222454FF484610CD07A
:105560001022E0B2FBF7E7FE102206462946E0B221
:10557000FBF7E1FE3044BDE8F0814FF4007632469F
:10558000E0B2FBF7D8FE074632462946E0B2FBF709
:10559000D2FE3844EFE70000400100202DE9F0473B
:1055A0000129044640F2016540F2026640F20468B7
:1055B00040F205691FD0022940F2033201D00329CD
:1055C00029D00521E0B2FBF7B6FE012207462946A5
:1055D000E0B2FBF7B0FEC51931460122E0B2FBF79D
:1055E000AAFE054441460022E0B2FBF7A4FE0544B2
:1055F0000022E0B22AE0052140F60C42E0B2FBF7BF
:105600009AFE002207462946E0B2FBF794FEC51930
:105610000022E0B20EE0052140F60F72E0B2FBF787
:105620008AFE012207462946E0B2FBF784FEC5192F
:105630000122E0B23146FBF77EFE054441460222DC
:10564000E0B2FBF778FE05440222E0B24946FBF7E0
:1056500072FE2844BDE8F0872DE9F04764290D4625
:1056600004464FF064084FF0000001D9642604E0BE
:10567000C5EB8512B2FBF8F1CEB2DFF88C90D9F809
:10568000041079B33E2E0DD900212046FFF75AFFB2
:1056900040F27F1607461C213246E0B2FBF74BFE74
:1056A00007440DE05DB300212046FFF74BFF46F4B1
:1056B000A07607461C213246E0B2FBF73CFE0744C9
:1056C00032461D21E0B2FBF736FE07443246262162
:1056D000E0B2FBF730FE074432462721E0B2FBF789
:1056E0002AFE3844D9F80810002906D0642D04D2C7
:1056F000C5EB05121201B2FBF8F1BDE8F0870121FC
:105700002046FFF71FFFEDE7400100202DE9F041A3
:105710001C4E044600250F46706880B301212046C8
:10572000FFF710FF022F054629D04FF400774FF402
:1057300084613A46E0B2FBF7FEFD05443A4640F28A
:105740002241E0B2FBF7F7FD054400222D21E0B233
:10575000FBF7F1FD054400222E21E0B2FBF7EBFD43
:10576000054400220521E0B2FBF7E5FD00220544D7
:105770001146E0B2FBF7DFFD0021716005442846C9
:10578000BDE8F0814001002000061016000610164A
:1057900000000000000000000102030406070809E1
:1057A0000002800007000700020000000008000857
:1057B0000008280028002800000000000000000069
:1057C00000000000000000000000000000000000D9
:1057D00000000000000000000000000000000000C9
:1057E00000000000000000000000000000000000B9
:1057F00000000000000000000000000000000000A9
:10580000000000000000038000038000038000030C
:105810008000038000038000038000038000038079
:1058200000010000010000000000000000038000F3
:1058300003800000000000000000000000000000E5
:105840000000000000000000000000000000000058
:10585000000E70000E70000E700004200004200086
:1058600004200004200000000000000000000000F0
:105870000000000000000000000000000000000028
:105880000000000000000000000000000000000018
:1058900000000000000006600006600006600006D0
:1058A00060000660003FF8003FF8000660000CC092
:1058B000003FF8003FF8000CC0000CC0000CC00016
:1058C0000CC0000CC0000000000000000000000040
:1058D00000000000000000000000000180000180C6
:1058E0000007B0000FF0001870001870001C0000D6
:1058F0000F800007E00000F0001830001C30001C92
:1059000070001FE0001BC0000180000180000180CA
:105910000001800000000000000000000000000006
:105920000000000000000780000FC0001CE000180D
:1059300060001860001CE0000FF80007E0001FF096
:105940000007380006180006180007380003F000AA
:1059500001E0000000000000000000000000000066
:105960000000000000000000000000000000000037
:105970000000000003F00007F0000C60000C0000C5
:105980000C00000600000700000F9C001DFC001822
:10599000F0001870000FFC0007DC000000000000A1
:1059A00000000000000000000000000000000000F7
:1059B00000000000000000000003800003800003DE
:1059C0008000010000010000010000010000000053
:1059D00000000000000000000000000000000000C7
:1059E00000000000000000000000000000000000B7
:1059F000000000000000000000000000000000188F
:105A00000000380000700000F00000E00000E0003E
:105A100001C00001C00001C00001C00001C00001C0
:105A2000C00000E00000E0000070000070000038DE
:105A3000000018000000000000000000000000004E
:105A40000000000000001800001C00000E00000E06
:105A500000000700000700000380000380000380AF
:105A6000000380000380000380000700000700009F
:105A70000F00000E00001C000018000000000000D5
:105A80000000000000000000000000000000018095
:105A9000000180000180001DB8001FF80007E00031
:105AA00003C00003C00006600006600000000000A4
:105AB00000000000000000000000000000000000E6
:105AC00000000000000000000000000000000000D6
:105AD0000000000000000000000000000180000144
